{
  "contracts/pool/LinearInterestRateModel.sol": {
    "LinearInterestRateModel": {
      "abi": [
        {
          "inputs": [
            {
              "internalType": "uint16",
              "name": "U_1",
              "type": "uint16"
            },
            {
              "internalType": "uint16",
              "name": "U_2",
              "type": "uint16"
            },
            {
              "internalType": "uint16",
              "name": "R_base",
              "type": "uint16"
            },
            {
              "internalType": "uint16",
              "name": "R_slope1",
              "type": "uint16"
            },
            {
              "internalType": "uint16",
              "name": "R_slope2",
              "type": "uint16"
            },
            {
              "internalType": "uint16",
              "name": "R_slope3",
              "type": "uint16"
            },
            {
              "internalType": "bool",
              "name": "_isBorrowingMoreU2Forbidden",
              "type": "bool"
            }
          ],
          "stateMutability": "nonpayable",
          "type": "constructor"
        },
        {
          "inputs": [],
          "name": "BorrowingMoreThanU2ForbiddenException",
          "type": "error"
        },
        {
          "inputs": [],
          "name": "IncorrectParameterException",
          "type": "error"
        },
        {
          "inputs": [],
          "name": "R_base_RAY",
          "outputs": [
            {
              "internalType": "uint256",
              "name": "",
              "type": "uint256"
            }
          ],
          "stateMutability": "view",
          "type": "function"
        },
        {
          "inputs": [],
          "name": "R_slope1_RAY",
          "outputs": [
            {
              "internalType": "uint256",
              "name": "",
              "type": "uint256"
            }
          ],
          "stateMutability": "view",
          "type": "function"
        },
        {
          "inputs": [],
          "name": "R_slope2_RAY",
          "outputs": [
            {
              "internalType": "uint256",
              "name": "",
              "type": "uint256"
            }
          ],
          "stateMutability": "view",
          "type": "function"
        },
        {
          "inputs": [],
          "name": "R_slope3_RAY",
          "outputs": [
            {
              "internalType": "uint256",
              "name": "",
              "type": "uint256"
            }
          ],
          "stateMutability": "view",
          "type": "function"
        },
        {
          "inputs": [],
          "name": "U_1_WAD",
          "outputs": [
            {
              "internalType": "uint256",
              "name": "",
              "type": "uint256"
            }
          ],
          "stateMutability": "view",
          "type": "function"
        },
        {
          "inputs": [],
          "name": "U_2_WAD",
          "outputs": [
            {
              "internalType": "uint256",
              "name": "",
              "type": "uint256"
            }
          ],
          "stateMutability": "view",
          "type": "function"
        },
        {
          "inputs": [
            {
              "internalType": "uint256",
              "name": "expectedLiquidity",
              "type": "uint256"
            },
            {
              "internalType": "uint256",
              "name": "availableLiquidity",
              "type": "uint256"
            }
          ],
          "name": "availableToBorrow",
          "outputs": [
            {
              "internalType": "uint256",
              "name": "",
              "type": "uint256"
            }
          ],
          "stateMutability": "view",
          "type": "function"
        },
        {
          "inputs": [
            {
              "internalType": "uint256",
              "name": "expectedLiquidity",
              "type": "uint256"
            },
            {
              "internalType": "uint256",
              "name": "availableLiquidity",
              "type": "uint256"
            },
            {
              "internalType": "bool",
              "name": "checkOptimalBorrowing",
              "type": "bool"
            }
          ],
          "name": "calcBorrowRate",
          "outputs": [
            {
              "internalType": "uint256",
              "name": "",
              "type": "uint256"
            }
          ],
          "stateMutability": "view",
          "type": "function"
        },
        {
          "inputs": [
            {
              "internalType": "uint256",
              "name": "expectedLiquidity",
              "type": "uint256"
            },
            {
              "internalType": "uint256",
              "name": "availableLiquidity",
              "type": "uint256"
            }
          ],
          "name": "calcBorrowRate",
          "outputs": [
            {
              "internalType": "uint256",
              "name": "",
              "type": "uint256"
            }
          ],
          "stateMutability": "view",
          "type": "function"
        },
        {
          "inputs": [],
          "name": "getModelParameters",
          "outputs": [
            {
              "internalType": "uint16",
              "name": "U_1",
              "type": "uint16"
            },
            {
              "internalType": "uint16",
              "name": "U_2",
              "type": "uint16"
            },
            {
              "internalType": "uint16",
              "name": "R_base",
              "type": "uint16"
            },
            {
              "internalType": "uint16",
              "name": "R_slope1",
              "type": "uint16"
            },
            {
              "internalType": "uint16",
              "name": "R_slope2",
              "type": "uint16"
            },
            {
              "internalType": "uint16",
              "name": "R_slope3",
              "type": "uint16"
            }
          ],
          "stateMutability": "view",
          "type": "function"
        },
        {
          "inputs": [],
          "name": "isBorrowingMoreU2Forbidden",
          "outputs": [
            {
              "internalType": "bool",
              "name": "",
              "type": "bool"
            }
          ],
          "stateMutability": "view",
          "type": "function"
        }
      ],
      "evm": {
        "bytecode": {
          "linkReferences": {},
          "object": "6101606040523480156200001257600080fd5b50604051620012c5380380620012c58339818101604052810190620000389190620002f1565b61271061ffff168761ffff161015806200005c575061271061ffff168661ffff1610155b806200006f57508561ffff168761ffff16115b8062000084575061271061ffff168561ffff16115b8062000099575061271061ffff168461ffff16115b80620000ae575061271061ffff168361ffff16115b80620000c157508261ffff168461ffff16115b80620000d457508161ffff168361ffff16115b156200010c576040517f47fbaa9700000000000000000000000000000000000000000000000000000000815260040160405180910390fd5b61271061ffff16670de0b6b3a76400006200012891906200040c565b8761ffff1662000139919062000444565b60a0818152505061271061ffff16670de0b6b3a76400006200015c91906200040c565b8661ffff166200016d919062000444565b60c0818152505061271061ffff166b033b2e3c9fd0803ce80000006200019491906200040c565b8561ffff16620001a5919062000444565b60e0818152505061271061ffff166b033b2e3c9fd0803ce8000000620001cc91906200040c565b8461ffff16620001dd919062000444565b610100818152505061271061ffff166b033b2e3c9fd0803ce80000006200020591906200040c565b8361ffff1662000216919062000444565b610120818152505061271061ffff166b033b2e3c9fd0803ce80000006200023e91906200040c565b8261ffff166200024f919062000444565b6101408181525050801515608081151581525050505050505050506200048f565b600080fd5b600061ffff82169050919050565b6200028e8162000275565b81146200029a57600080fd5b50565b600081519050620002ae8162000283565b92915050565b60008115159050919050565b620002cb81620002b4565b8114620002d757600080fd5b50565b600081519050620002eb81620002c0565b92915050565b600080600080600080600060e0888a03121562000313576200031262000270565b5b6000620003238a828b016200029d565b9750506020620003368a828b016200029d565b9650506040620003498a828b016200029d565b95505060606200035c8a828b016200029d565b94505060806200036f8a828b016200029d565b93505060a0620003828a828b016200029d565b92505060c0620003958a828b01620002da565b91505092959891949750929550565b6000819050919050565b7f4e487b7100000000000000000000000000000000000000000000000000000000600052601260045260246000fd5b7f4e487b7100000000000000000000000000000000000000000000000000000000600052601160045260246000fd5b60006200041982620003a4565b91506200042683620003a4565b925082620004395762000438620003ae565b5b828204905092915050565b60006200045182620003a4565b91506200045e83620003a4565b92508282026200046e81620003a4565b91508282048414831517620004885762000487620003dd565b5b5092915050565b60805160a05160c05160e051610100516101205161014051610d17620005ae6000396000818161025901528181610582015261099d01526000818161042e015281816105b70152818161067d01526109520152600081816102350152818161032601528181610463015281816105d801526109070152600081816102860152818161035b01528181610484015281816105f90152818161065901526108bc01526000818161038e015281816103d70152818161052201528181610556015281816106c5015281816107580152818161079101526108710152600081816102dc01528181610304015281816103b601528181610402015281816107e3015261082a0152600081816104c9015281816106a101526106eb0152610d176000f3fe608060405234801561001057600080fd5b50600436106100a95760003560e01c80636e55f77e116100715780636e55f77e14610168578063762dbdb8146101865780637f681d54146101a457806381ec4ab7146101c2578063be3c37cd146101f2578063c8284e6d14610210576100a9565b806301967344146100ae5780631a405265146100cc578063306ea067146100ea57806342568d441461011a5780636cdc90fd1461014a575b600080fd5b6100b6610233565b6040516100c391906109e9565b60405180910390f35b6100d4610257565b6040516100e191906109e9565b60405180910390f35b61010460048036038101906100ff9190610a6d565b61027b565b60405161011191906109e9565b60405180910390f35b610134600480360381019061012f9190610ac0565b610641565b60405161014191906109e9565b60405180910390f35b610152610657565b60405161015f91906109e9565b60405180910390f35b61017061067b565b60405161017d91906109e9565b60405180910390f35b61018e61069f565b60405161019b9190610b0f565b60405180910390f35b6101ac6106c3565b6040516101b991906109e9565b60405180910390f35b6101dc60048036038101906101d79190610ac0565b6106e7565b6040516101e991906109e9565b60405180910390f35b6101fa6107e1565b60405161020791906109e9565b60405180910390f35b610218610805565b60405161022a96959493929190610b47565b60405180910390f35b7f000000000000000000000000000000000000000000000000000000000000000081565b7f000000000000000000000000000000000000000000000000000000000000000081565b60008284116102ac577f0000000000000000000000000000000000000000000000000000000000000000905061063a565b60008484866102bb9190610bd7565b670de0b6b3a76400006102ce9190610c0b565b6102d89190610c7c565b90507f000000000000000000000000000000000000000000000000000000000000000081101561038c577f0000000000000000000000000000000000000000000000000000000000000000817f000000000000000000000000000000000000000000000000000000000000000061034f9190610c0b565b6103599190610c7c565b7f00000000000000000000000000000000000000000000000000000000000000006103849190610cad565b91505061063a565b7f00000000000000000000000000000000000000000000000000000000000000008110156104bf577f00000000000000000000000000000000000000000000000000000000000000007f00000000000000000000000000000000000000000000000000000000000000006104009190610bd7565b7f00000000000000000000000000000000000000000000000000000000000000008261042c9190610bd7565b7f00000000000000000000000000000000000000000000000000000000000000006104579190610c0b565b6104619190610c7c565b7f00000000000000000000000000000000000000000000000000000000000000007f00000000000000000000000000000000000000000000000000000000000000006104ad9190610cad565b6104b79190610cad565b91505061063a565b8280156104e957507f00000000000000000000000000000000000000000000000000000000000000005b15610520576040517f351f03e300000000000000000000000000000000000000000000000000000000815260040160405180910390fd5b7f0000000000000000000000000000000000000000000000000000000000000000670de0b6b3a76400006105549190610bd7565b7f0000000000000000000000000000000000000000000000000000000000000000826105809190610bd7565b7f00000000000000000000000000000000000000000000000000000000000000006105ab9190610c0b565b6105b59190610c7c565b7f00000000000000000000000000000000000000000000000000000000000000007f00000000000000000000000000000000000000000000000000000000000000007f00000000000000000000000000000000000000000000000000000000000000006106229190610cad565b61062c9190610cad565b6106369190610cad565b9150505b9392505050565b600061064f8383600061027b565b905092915050565b7f000000000000000000000000000000000000000000000000000000000000000081565b7f000000000000000000000000000000000000000000000000000000000000000081565b7f000000000000000000000000000000000000000000000000000000000000000081565b7f000000000000000000000000000000000000000000000000000000000000000081565b60007f000000000000000000000000000000000000000000000000000000000000000080156107165750818310155b8015610723575060008314155b156107d75760008383856107379190610bd7565b670de0b6b3a764000061074a9190610c0b565b6107549190610c7c565b90507f000000000000000000000000000000000000000000000000000000000000000081106107845760006107cf565b670de0b6b3a764000084827f00000000000000000000000000000000000000000000000000000000000000006107ba9190610bd7565b6107c49190610c0b565b6107ce9190610c7c565b5b9150506107db565b8190505b92915050565b7f000000000000000000000000000000000000000000000000000000000000000081565b60008060008060008061271061ffff16670de0b6b3a76400006108289190610c7c565b7f00000000000000000000000000000000000000000000000000000000000000006108539190610c7c565b955061271061ffff16670de0b6b3a764000061086f9190610c7c565b7f000000000000000000000000000000000000000000000000000000000000000061089a9190610c7c565b945061271061ffff166b033b2e3c9fd0803ce80000006108ba9190610c7c565b7f00000000000000000000000000000000000000000000000000000000000000006108e59190610c7c565b935061271061ffff166b033b2e3c9fd0803ce80000006109059190610c7c565b7f00000000000000000000000000000000000000000000000000000000000000006109309190610c7c565b925061271061ffff166b033b2e3c9fd0803ce80000006109509190610c7c565b7f000000000000000000000000000000000000000000000000000000000000000061097b9190610c7c565b915061271061ffff166b033b2e3c9fd0803ce800000061099b9190610c7c565b7f00000000000000000000000000000000000000000000000000000000000000006109c69190610c7c565b9050909192939495565b6000819050919050565b6109e3816109d0565b82525050565b60006020820190506109fe60008301846109da565b92915050565b600080fd5b610a12816109d0565b8114610a1d57600080fd5b50565b600081359050610a2f81610a09565b92915050565b60008115159050919050565b610a4a81610a35565b8114610a5557600080fd5b50565b600081359050610a6781610a41565b92915050565b600080600060608486031215610a8657610a85610a04565b5b6000610a9486828701610a20565b9350506020610aa586828701610a20565b9250506040610ab686828701610a58565b9150509250925092565b60008060408385031215610ad757610ad6610a04565b5b6000610ae585828601610a20565b9250506020610af685828601610a20565b9150509250929050565b610b0981610a35565b82525050565b6000602082019050610b246000830184610b00565b92915050565b600061ffff82169050919050565b610b4181610b2a565b82525050565b600060c082019050610b5c6000830189610b38565b610b696020830188610b38565b610b766040830187610b38565b610b836060830186610b38565b610b906080830185610b38565b610b9d60a0830184610b38565b979650505050505050565b7f4e487b7100000000000000000000000000000000000000000000000000000000600052601160045260246000fd5b6000610be2826109d0565b9150610bed836109d0565b9250828203905081811115610c0557610c04610ba8565b5b92915050565b6000610c16826109d0565b9150610c21836109d0565b9250828202610c2f816109d0565b91508282048414831517610c4657610c45610ba8565b5b5092915050565b7f4e487b7100000000000000000000000000000000000000000000000000000000600052601260045260246000fd5b6000610c87826109d0565b9150610c92836109d0565b925082610ca257610ca1610c4d565b5b828204905092915050565b6000610cb8826109d0565b9150610cc3836109d0565b9250828201905080821115610cdb57610cda610ba8565b5b9291505056fea26469706673582212201a20a20336efcfcccf10e56966d0059449177aefcdde5c56b3c82e5ef9efa29e64736f6c63430008180033",
          "opcodes": "PUSH2 0x160 PUSH1 0x40 MSTORE CALLVALUE DUP1 ISZERO PUSH3 0x12 JUMPI PUSH1 0x0 DUP1 REVERT JUMPDEST POP PUSH1 0x40 MLOAD PUSH3 0x12C5 CODESIZE SUB DUP1 PUSH3 0x12C5 DUP4 CODECOPY DUP2 DUP2 ADD PUSH1 0x40 MSTORE DUP2 ADD SWAP1 PUSH3 0x38 SWAP2 SWAP1 PUSH3 0x2F1 JUMP JUMPDEST PUSH2 0x2710 PUSH2 0xFFFF AND DUP8 PUSH2 0xFFFF AND LT ISZERO DUP1 PUSH3 0x5C JUMPI POP PUSH2 0x2710 PUSH2 0xFFFF AND DUP7 PUSH2 0xFFFF AND LT ISZERO JUMPDEST DUP1 PUSH3 0x6F JUMPI POP DUP6 PUSH2 0xFFFF AND DUP8 PUSH2 0xFFFF AND GT JUMPDEST DUP1 PUSH3 0x84 JUMPI POP PUSH2 0x2710 PUSH2 0xFFFF AND DUP6 PUSH2 0xFFFF AND GT JUMPDEST DUP1 PUSH3 0x99 JUMPI POP PUSH2 0x2710 PUSH2 0xFFFF AND DUP5 PUSH2 0xFFFF AND GT JUMPDEST DUP1 PUSH3 0xAE JUMPI POP PUSH2 0x2710 PUSH2 0xFFFF AND DUP4 PUSH2 0xFFFF AND GT JUMPDEST DUP1 PUSH3 0xC1 JUMPI POP DUP3 PUSH2 0xFFFF AND DUP5 PUSH2 0xFFFF AND GT JUMPDEST DUP1 PUSH3 0xD4 JUMPI POP DUP2 PUSH2 0xFFFF AND DUP4 PUSH2 0xFFFF AND GT JUMPDEST ISZERO PUSH3 0x10C JUMPI PUSH1 0x40 MLOAD PUSH32 0x47FBAA9700000000000000000000000000000000000000000000000000000000 DUP2 MSTORE PUSH1 0x4 ADD PUSH1 0x40 MLOAD DUP1 SWAP2 SUB SWAP1 REVERT JUMPDEST PUSH2 0x2710 PUSH2 0xFFFF AND PUSH8 0xDE0B6B3A7640000 PUSH3 0x128 SWAP2 SWAP1 PUSH3 0x40C JUMP JUMPDEST DUP8 PUSH2 0xFFFF AND PUSH3 0x139 SWAP2 SWAP1 PUSH3 0x444 JUMP JUMPDEST PUSH1 0xA0 DUP2 DUP2 MSTORE POP POP PUSH2 0x2710 PUSH2 0xFFFF AND PUSH8 0xDE0B6B3A7640000 PUSH3 0x15C SWAP2 SWAP1 PUSH3 0x40C JUMP JUMPDEST DUP7 PUSH2 0xFFFF AND PUSH3 0x16D SWAP2 SWAP1 PUSH3 0x444 JUMP JUMPDEST PUSH1 0xC0 DUP2 DUP2 MSTORE POP POP PUSH2 0x2710 PUSH2 0xFFFF AND PUSH12 0x33B2E3C9FD0803CE8000000 PUSH3 0x194 SWAP2 SWAP1 PUSH3 0x40C JUMP JUMPDEST DUP6 PUSH2 0xFFFF AND PUSH3 0x1A5 SWAP2 SWAP1 PUSH3 0x444 JUMP JUMPDEST PUSH1 0xE0 DUP2 DUP2 MSTORE POP POP PUSH2 0x2710 PUSH2 0xFFFF AND PUSH12 0x33B2E3C9FD0803CE8000000 PUSH3 0x1CC SWAP2 SWAP1 PUSH3 0x40C JUMP JUMPDEST DUP5 PUSH2 0xFFFF AND PUSH3 0x1DD SWAP2 SWAP1 PUSH3 0x444 JUMP JUMPDEST PUSH2 0x100 DUP2 DUP2 MSTORE POP POP PUSH2 0x2710 PUSH2 0xFFFF AND PUSH12 0x33B2E3C9FD0803CE8000000 PUSH3 0x205 SWAP2 SWAP1 PUSH3 0x40C JUMP JUMPDEST DUP4 PUSH2 0xFFFF AND PUSH3 0x216 SWAP2 SWAP1 PUSH3 0x444 JUMP JUMPDEST PUSH2 0x120 DUP2 DUP2 MSTORE POP POP PUSH2 0x2710 PUSH2 0xFFFF AND PUSH12 0x33B2E3C9FD0803CE8000000 PUSH3 0x23E SWAP2 SWAP1 PUSH3 0x40C JUMP JUMPDEST DUP3 PUSH2 0xFFFF AND PUSH3 0x24F SWAP2 SWAP1 PUSH3 0x444 JUMP JUMPDEST PUSH2 0x140 DUP2 DUP2 MSTORE POP POP DUP1 ISZERO ISZERO PUSH1 0x80 DUP2 ISZERO ISZERO DUP2 MSTORE POP POP POP POP POP POP POP POP POP PUSH3 0x48F JUMP JUMPDEST PUSH1 0x0 DUP1 REVERT JUMPDEST PUSH1 0x0 PUSH2 0xFFFF DUP3 AND SWAP1 POP SWAP2 SWAP1 POP JUMP JUMPDEST PUSH3 0x28E DUP2 PUSH3 0x275 JUMP JUMPDEST DUP2 EQ PUSH3 0x29A JUMPI PUSH1 0x0 DUP1 REVERT JUMPDEST POP JUMP JUMPDEST PUSH1 0x0 DUP2 MLOAD SWAP1 POP PUSH3 0x2AE DUP2 PUSH3 0x283 JUMP JUMPDEST SWAP3 SWAP2 POP POP JUMP JUMPDEST PUSH1 0x0 DUP2 ISZERO ISZERO SWAP1 POP SWAP2 SWAP1 POP JUMP JUMPDEST PUSH3 0x2CB DUP2 PUSH3 0x2B4 JUMP JUMPDEST DUP2 EQ PUSH3 0x2D7 JUMPI PUSH1 0x0 DUP1 REVERT JUMPDEST POP JUMP JUMPDEST PUSH1 0x0 DUP2 MLOAD SWAP1 POP PUSH3 0x2EB DUP2 PUSH3 0x2C0 JUMP JUMPDEST SWAP3 SWAP2 POP POP JUMP JUMPDEST PUSH1 0x0 DUP1 PUSH1 0x0 DUP1 PUSH1 0x0 DUP1 PUSH1 0x0 PUSH1 0xE0 DUP9 DUP11 SUB SLT ISZERO PUSH3 0x313 JUMPI PUSH3 0x312 PUSH3 0x270 JUMP JUMPDEST JUMPDEST PUSH1 0x0 PUSH3 0x323 DUP11 DUP3 DUP12 ADD PUSH3 0x29D JUMP JUMPDEST SWAP8 POP POP PUSH1 0x20 PUSH3 0x336 DUP11 DUP3 DUP12 ADD PUSH3 0x29D JUMP JUMPDEST SWAP7 POP POP PUSH1 0x40 PUSH3 0x349 DUP11 DUP3 DUP12 ADD PUSH3 0x29D JUMP JUMPDEST SWAP6 POP POP PUSH1 0x60 PUSH3 0x35C DUP11 DUP3 DUP12 ADD PUSH3 0x29D JUMP JUMPDEST SWAP5 POP POP PUSH1 0x80 PUSH3 0x36F DUP11 DUP3 DUP12 ADD PUSH3 0x29D JUMP JUMPDEST SWAP4 POP POP PUSH1 0xA0 PUSH3 0x382 DUP11 DUP3 DUP12 ADD PUSH3 0x29D JUMP JUMPDEST SWAP3 POP POP PUSH1 0xC0 PUSH3 0x395 DUP11 DUP3 DUP12 ADD PUSH3 0x2DA JUMP JUMPDEST SWAP2 POP POP SWAP3 SWAP6 SWAP9 SWAP2 SWAP5 SWAP8 POP SWAP3 SWAP6 POP JUMP JUMPDEST PUSH1 0x0 DUP2 SWAP1 POP SWAP2 SWAP1 POP JUMP JUMPDEST PUSH32 0x4E487B7100000000000000000000000000000000000000000000000000000000 PUSH1 0x0 MSTORE PUSH1 0x12 PUSH1 0x4 MSTORE PUSH1 0x24 PUSH1 0x0 REVERT JUMPDEST PUSH32 0x4E487B7100000000000000000000000000000000000000000000000000000000 PUSH1 0x0 MSTORE PUSH1 0x11 PUSH1 0x4 MSTORE PUSH1 0x24 PUSH1 0x0 REVERT JUMPDEST PUSH1 0x0 PUSH3 0x419 DUP3 PUSH3 0x3A4 JUMP JUMPDEST SWAP2 POP PUSH3 0x426 DUP4 PUSH3 0x3A4 JUMP JUMPDEST SWAP3 POP DUP3 PUSH3 0x439 JUMPI PUSH3 0x438 PUSH3 0x3AE JUMP JUMPDEST JUMPDEST DUP3 DUP3 DIV SWAP1 POP SWAP3 SWAP2 POP POP JUMP JUMPDEST PUSH1 0x0 PUSH3 0x451 DUP3 PUSH3 0x3A4 JUMP JUMPDEST SWAP2 POP PUSH3 0x45E DUP4 PUSH3 0x3A4 JUMP JUMPDEST SWAP3 POP DUP3 DUP3 MUL PUSH3 0x46E DUP2 PUSH3 0x3A4 JUMP JUMPDEST SWAP2 POP DUP3 DUP3 DIV DUP5 EQ DUP4 ISZERO OR PUSH3 0x488 JUMPI PUSH3 0x487 PUSH3 0x3DD JUMP JUMPDEST JUMPDEST POP SWAP3 SWAP2 POP POP JUMP JUMPDEST PUSH1 0x80 MLOAD PUSH1 0xA0 MLOAD PUSH1 0xC0 MLOAD PUSH1 0xE0 MLOAD PUSH2 0x100 MLOAD PUSH2 0x120 MLOAD PUSH2 0x140 MLOAD PUSH2 0xD17 PUSH3 0x5AE PUSH1 0x0 CODECOPY PUSH1 0x0 DUP2 DUP2 PUSH2 0x259 ADD MSTORE DUP2 DUP2 PUSH2 0x582 ADD MSTORE PUSH2 0x99D ADD MSTORE PUSH1 0x0 DUP2 DUP2 PUSH2 0x42E ADD MSTORE DUP2 DUP2 PUSH2 0x5B7 ADD MSTORE DUP2 DUP2 PUSH2 0x67D ADD MSTORE PUSH2 0x952 ADD MSTORE PUSH1 0x0 DUP2 DUP2 PUSH2 0x235 ADD MSTORE DUP2 DUP2 PUSH2 0x326 ADD MSTORE DUP2 DUP2 PUSH2 0x463 ADD MSTORE DUP2 DUP2 PUSH2 0x5D8 ADD MSTORE PUSH2 0x907 ADD MSTORE PUSH1 0x0 DUP2 DUP2 PUSH2 0x286 ADD MSTORE DUP2 DUP2 PUSH2 0x35B ADD MSTORE DUP2 DUP2 PUSH2 0x484 ADD MSTORE DUP2 DUP2 PUSH2 0x5F9 ADD MSTORE DUP2 DUP2 PUSH2 0x659 ADD MSTORE PUSH2 0x8BC ADD MSTORE PUSH1 0x0 DUP2 DUP2 PUSH2 0x38E ADD MSTORE DUP2 DUP2 PUSH2 0x3D7 ADD MSTORE DUP2 DUP2 PUSH2 0x522 ADD MSTORE DUP2 DUP2 PUSH2 0x556 ADD MSTORE DUP2 DUP2 PUSH2 0x6C5 ADD MSTORE DUP2 DUP2 PUSH2 0x758 ADD MSTORE DUP2 DUP2 PUSH2 0x791 ADD MSTORE PUSH2 0x871 ADD MSTORE PUSH1 0x0 DUP2 DUP2 PUSH2 0x2DC ADD MSTORE DUP2 DUP2 PUSH2 0x304 ADD MSTORE DUP2 DUP2 PUSH2 0x3B6 ADD MSTORE DUP2 DUP2 PUSH2 0x402 ADD MSTORE DUP2 DUP2 PUSH2 0x7E3 ADD MSTORE PUSH2 0x82A ADD MSTORE PUSH1 0x0 DUP2 DUP2 PUSH2 0x4C9 ADD MSTORE DUP2 DUP2 PUSH2 0x6A1 ADD MSTORE PUSH2 0x6EB ADD MSTORE PUSH2 0xD17 PUSH1 0x0 RETURN INVALID PUSH1 0x80 PUSH1 0x40 MSTORE CALLVALUE DUP1 ISZERO PUSH2 0x10 JUMPI PUSH1 0x0 DUP1 REVERT JUMPDEST POP PUSH1 0x4 CALLDATASIZE LT PUSH2 0xA9 JUMPI PUSH1 0x0 CALLDATALOAD PUSH1 0xE0 SHR DUP1 PUSH4 0x6E55F77E GT PUSH2 0x71 JUMPI DUP1 PUSH4 0x6E55F77E EQ PUSH2 0x168 JUMPI DUP1 PUSH4 0x762DBDB8 EQ PUSH2 0x186 JUMPI DUP1 PUSH4 0x7F681D54 EQ PUSH2 0x1A4 JUMPI DUP1 PUSH4 0x81EC4AB7 EQ PUSH2 0x1C2 JUMPI DUP1 PUSH4 0xBE3C37CD EQ PUSH2 0x1F2 JUMPI DUP1 PUSH4 0xC8284E6D EQ PUSH2 0x210 JUMPI PUSH2 0xA9 JUMP JUMPDEST DUP1 PUSH4 0x1967344 EQ PUSH2 0xAE JUMPI DUP1 PUSH4 0x1A405265 EQ PUSH2 0xCC JUMPI DUP1 PUSH4 0x306EA067 EQ PUSH2 0xEA JUMPI DUP1 PUSH4 0x42568D44 EQ PUSH2 0x11A JUMPI DUP1 PUSH4 0x6CDC90FD EQ PUSH2 0x14A JUMPI JUMPDEST PUSH1 0x0 DUP1 REVERT JUMPDEST PUSH2 0xB6 PUSH2 0x233 JUMP JUMPDEST PUSH1 0x40 MLOAD PUSH2 0xC3 SWAP2 SWAP1 PUSH2 0x9E9 JUMP JUMPDEST PUSH1 0x40 MLOAD DUP1 SWAP2 SUB SWAP1 RETURN JUMPDEST PUSH2 0xD4 PUSH2 0x257 JUMP JUMPDEST PUSH1 0x40 MLOAD PUSH2 0xE1 SWAP2 SWAP1 PUSH2 0x9E9 JUMP JUMPDEST PUSH1 0x40 MLOAD DUP1 SWAP2 SUB SWAP1 RETURN JUMPDEST PUSH2 0x104 PUSH1 0x4 DUP1 CALLDATASIZE SUB DUP2 ADD SWAP1 PUSH2 0xFF SWAP2 SWAP1 PUSH2 0xA6D JUMP JUMPDEST PUSH2 0x27B JUMP JUMPDEST PUSH1 0x40 MLOAD PUSH2 0x111 SWAP2 SWAP1 PUSH2 0x9E9 JUMP JUMPDEST PUSH1 0x40 MLOAD DUP1 SWAP2 SUB SWAP1 RETURN JUMPDEST PUSH2 0x134 PUSH1 0x4 DUP1 CALLDATASIZE SUB DUP2 ADD SWAP1 PUSH2 0x12F SWAP2 SWAP1 PUSH2 0xAC0 JUMP JUMPDEST PUSH2 0x641 JUMP JUMPDEST PUSH1 0x40 MLOAD PUSH2 0x141 SWAP2 SWAP1 PUSH2 0x9E9 JUMP JUMPDEST PUSH1 0x40 MLOAD DUP1 SWAP2 SUB SWAP1 RETURN JUMPDEST PUSH2 0x152 PUSH2 0x657 JUMP JUMPDEST PUSH1 0x40 MLOAD PUSH2 0x15F SWAP2 SWAP1 PUSH2 0x9E9 JUMP JUMPDEST PUSH1 0x40 MLOAD DUP1 SWAP2 SUB SWAP1 RETURN JUMPDEST PUSH2 0x170 PUSH2 0x67B JUMP JUMPDEST PUSH1 0x40 MLOAD PUSH2 0x17D SWAP2 SWAP1 PUSH2 0x9E9 JUMP JUMPDEST PUSH1 0x40 MLOAD DUP1 SWAP2 SUB SWAP1 RETURN JUMPDEST PUSH2 0x18E PUSH2 0x69F JUMP JUMPDEST PUSH1 0x40 MLOAD PUSH2 0x19B SWAP2 SWAP1 PUSH2 0xB0F JUMP JUMPDEST PUSH1 0x40 MLOAD DUP1 SWAP2 SUB SWAP1 RETURN JUMPDEST PUSH2 0x1AC PUSH2 0x6C3 JUMP JUMPDEST PUSH1 0x40 MLOAD PUSH2 0x1B9 SWAP2 SWAP1 PUSH2 0x9E9 JUMP JUMPDEST PUSH1 0x40 MLOAD DUP1 SWAP2 SUB SWAP1 RETURN JUMPDEST PUSH2 0x1DC PUSH1 0x4 DUP1 CALLDATASIZE SUB DUP2 ADD SWAP1 PUSH2 0x1D7 SWAP2 SWAP1 PUSH2 0xAC0 JUMP JUMPDEST PUSH2 0x6E7 JUMP JUMPDEST PUSH1 0x40 MLOAD PUSH2 0x1E9 SWAP2 SWAP1 PUSH2 0x9E9 JUMP JUMPDEST PUSH1 0x40 MLOAD DUP1 SWAP2 SUB SWAP1 RETURN JUMPDEST PUSH2 0x1FA PUSH2 0x7E1 JUMP JUMPDEST PUSH1 0x40 MLOAD PUSH2 0x207 SWAP2 SWAP1 PUSH2 0x9E9 JUMP JUMPDEST PUSH1 0x40 MLOAD DUP1 SWAP2 SUB SWAP1 RETURN JUMPDEST PUSH2 0x218 PUSH2 0x805 JUMP JUMPDEST PUSH1 0x40 MLOAD PUSH2 0x22A SWAP7 SWAP6 SWAP5 SWAP4 SWAP3 SWAP2 SWAP1 PUSH2 0xB47 JUMP JUMPDEST PUSH1 0x40 MLOAD DUP1 SWAP2 SUB SWAP1 RETURN JUMPDEST PUSH32 0x0 DUP2 JUMP JUMPDEST PUSH32 0x0 DUP2 JUMP JUMPDEST PUSH1 0x0 DUP3 DUP5 GT PUSH2 0x2AC JUMPI PUSH32 0x0 SWAP1 POP PUSH2 0x63A JUMP JUMPDEST PUSH1 0x0 DUP5 DUP5 DUP7 PUSH2 0x2BB SWAP2 SWAP1 PUSH2 0xBD7 JUMP JUMPDEST PUSH8 0xDE0B6B3A7640000 PUSH2 0x2CE SWAP2 SWAP1 PUSH2 0xC0B JUMP JUMPDEST PUSH2 0x2D8 SWAP2 SWAP1 PUSH2 0xC7C JUMP JUMPDEST SWAP1 POP PUSH32 0x0 DUP2 LT ISZERO PUSH2 0x38C JUMPI PUSH32 0x0 DUP2 PUSH32 0x0 PUSH2 0x34F SWAP2 SWAP1 PUSH2 0xC0B JUMP JUMPDEST PUSH2 0x359 SWAP2 SWAP1 PUSH2 0xC7C JUMP JUMPDEST PUSH32 0x0 PUSH2 0x384 SWAP2 SWAP1 PUSH2 0xCAD JUMP JUMPDEST SWAP2 POP POP PUSH2 0x63A JUMP JUMPDEST PUSH32 0x0 DUP2 LT ISZERO PUSH2 0x4BF JUMPI PUSH32 0x0 PUSH32 0x0 PUSH2 0x400 SWAP2 SWAP1 PUSH2 0xBD7 JUMP JUMPDEST PUSH32 0x0 DUP3 PUSH2 0x42C SWAP2 SWAP1 PUSH2 0xBD7 JUMP JUMPDEST PUSH32 0x0 PUSH2 0x457 SWAP2 SWAP1 PUSH2 0xC0B JUMP JUMPDEST PUSH2 0x461 SWAP2 SWAP1 PUSH2 0xC7C JUMP JUMPDEST PUSH32 0x0 PUSH32 0x0 PUSH2 0x4AD SWAP2 SWAP1 PUSH2 0xCAD JUMP JUMPDEST PUSH2 0x4B7 SWAP2 SWAP1 PUSH2 0xCAD JUMP JUMPDEST SWAP2 POP POP PUSH2 0x63A JUMP JUMPDEST DUP3 DUP1 ISZERO PUSH2 0x4E9 JUMPI POP PUSH32 0x0 JUMPDEST ISZERO PUSH2 0x520 JUMPI PUSH1 0x40 MLOAD PUSH32 0x351F03E300000000000000000000000000000000000000000000000000000000 DUP2 MSTORE PUSH1 0x4 ADD PUSH1 0x40 MLOAD DUP1 SWAP2 SUB SWAP1 REVERT JUMPDEST PUSH32 0x0 PUSH8 0xDE0B6B3A7640000 PUSH2 0x554 SWAP2 SWAP1 PUSH2 0xBD7 JUMP JUMPDEST PUSH32 0x0 DUP3 PUSH2 0x580 SWAP2 SWAP1 PUSH2 0xBD7 JUMP JUMPDEST PUSH32 0x0 PUSH2 0x5AB SWAP2 SWAP1 PUSH2 0xC0B JUMP JUMPDEST PUSH2 0x5B5 SWAP2 SWAP1 PUSH2 0xC7C JUMP JUMPDEST PUSH32 0x0 PUSH32 0x0 PUSH32 0x0 PUSH2 0x622 SWAP2 SWAP1 PUSH2 0xCAD JUMP JUMPDEST PUSH2 0x62C SWAP2 SWAP1 PUSH2 0xCAD JUMP JUMPDEST PUSH2 0x636 SWAP2 SWAP1 PUSH2 0xCAD JUMP JUMPDEST SWAP2 POP POP JUMPDEST SWAP4 SWAP3 POP POP POP JUMP JUMPDEST PUSH1 0x0 PUSH2 0x64F DUP4 DUP4 PUSH1 0x0 PUSH2 0x27B JUMP JUMPDEST SWAP1 POP SWAP3 SWAP2 POP POP JUMP JUMPDEST PUSH32 0x0 DUP2 JUMP JUMPDEST PUSH32 0x0 DUP2 JUMP JUMPDEST PUSH32 0x0 DUP2 JUMP JUMPDEST PUSH32 0x0 DUP2 JUMP JUMPDEST PUSH1 0x0 PUSH32 0x0 DUP1 ISZERO PUSH2 0x716 JUMPI POP DUP2 DUP4 LT ISZERO JUMPDEST DUP1 ISZERO PUSH2 0x723 JUMPI POP PUSH1 0x0 DUP4 EQ ISZERO JUMPDEST ISZERO PUSH2 0x7D7 JUMPI PUSH1 0x0 DUP4 DUP4 DUP6 PUSH2 0x737 SWAP2 SWAP1 PUSH2 0xBD7 JUMP JUMPDEST PUSH8 0xDE0B6B3A7640000 PUSH2 0x74A SWAP2 SWAP1 PUSH2 0xC0B JUMP JUMPDEST PUSH2 0x754 SWAP2 SWAP1 PUSH2 0xC7C JUMP JUMPDEST SWAP1 POP PUSH32 0x0 DUP2 LT PUSH2 0x784 JUMPI PUSH1 0x0 PUSH2 0x7CF JUMP JUMPDEST PUSH8 0xDE0B6B3A7640000 DUP5 DUP3 PUSH32 0x0 PUSH2 0x7BA SWAP2 SWAP1 PUSH2 0xBD7 JUMP JUMPDEST PUSH2 0x7C4 SWAP2 SWAP1 PUSH2 0xC0B JUMP JUMPDEST PUSH2 0x7CE SWAP2 SWAP1 PUSH2 0xC7C JUMP JUMPDEST JUMPDEST SWAP2 POP POP PUSH2 0x7DB JUMP JUMPDEST DUP2 SWAP1 POP JUMPDEST SWAP3 SWAP2 POP POP JUMP JUMPDEST PUSH32 0x0 DUP2 JUMP JUMPDEST PUSH1 0x0 DUP1 PUSH1 0x0 DUP1 PUSH1 0x0 DUP1 PUSH2 0x2710 PUSH2 0xFFFF AND PUSH8 0xDE0B6B3A7640000 PUSH2 0x828 SWAP2 SWAP1 PUSH2 0xC7C JUMP JUMPDEST PUSH32 0x0 PUSH2 0x853 SWAP2 SWAP1 PUSH2 0xC7C JUMP JUMPDEST SWAP6 POP PUSH2 0x2710 PUSH2 0xFFFF AND PUSH8 0xDE0B6B3A7640000 PUSH2 0x86F SWAP2 SWAP1 PUSH2 0xC7C JUMP JUMPDEST PUSH32 0x0 PUSH2 0x89A SWAP2 SWAP1 PUSH2 0xC7C JUMP JUMPDEST SWAP5 POP PUSH2 0x2710 PUSH2 0xFFFF AND PUSH12 0x33B2E3C9FD0803CE8000000 PUSH2 0x8BA SWAP2 SWAP1 PUSH2 0xC7C JUMP JUMPDEST PUSH32 0x0 PUSH2 0x8E5 SWAP2 SWAP1 PUSH2 0xC7C JUMP JUMPDEST SWAP4 POP PUSH2 0x2710 PUSH2 0xFFFF AND PUSH12 0x33B2E3C9FD0803CE8000000 PUSH2 0x905 SWAP2 SWAP1 PUSH2 0xC7C JUMP JUMPDEST PUSH32 0x0 PUSH2 0x930 SWAP2 SWAP1 PUSH2 0xC7C JUMP JUMPDEST SWAP3 POP PUSH2 0x2710 PUSH2 0xFFFF AND PUSH12 0x33B2E3C9FD0803CE8000000 PUSH2 0x950 SWAP2 SWAP1 PUSH2 0xC7C JUMP JUMPDEST PUSH32 0x0 PUSH2 0x97B SWAP2 SWAP1 PUSH2 0xC7C JUMP JUMPDEST SWAP2 POP PUSH2 0x2710 PUSH2 0xFFFF AND PUSH12 0x33B2E3C9FD0803CE8000000 PUSH2 0x99B SWAP2 SWAP1 PUSH2 0xC7C JUMP JUMPDEST PUSH32 0x0 PUSH2 0x9C6 SWAP2 SWAP1 PUSH2 0xC7C JUMP JUMPDEST SWAP1 POP SWAP1 SWAP2 SWAP3 SWAP4 SWAP5 SWAP6 JUMP JUMPDEST PUSH1 0x0 DUP2 SWAP1 POP SWAP2 SWAP1 POP JUMP JUMPDEST PUSH2 0x9E3 DUP2 PUSH2 0x9D0 JUMP JUMPDEST DUP3 MSTORE POP POP JUMP JUMPDEST PUSH1 0x0 PUSH1 0x20 DUP3 ADD SWAP1 POP PUSH2 0x9FE PUSH1 0x0 DUP4 ADD DUP5 PUSH2 0x9DA JUMP JUMPDEST SWAP3 SWAP2 POP POP JUMP JUMPDEST PUSH1 0x0 DUP1 REVERT JUMPDEST PUSH2 0xA12 DUP2 PUSH2 0x9D0 JUMP JUMPDEST DUP2 EQ PUSH2 0xA1D JUMPI PUSH1 0x0 DUP1 REVERT JUMPDEST POP JUMP JUMPDEST PUSH1 0x0 DUP2 CALLDATALOAD SWAP1 POP PUSH2 0xA2F DUP2 PUSH2 0xA09 JUMP JUMPDEST SWAP3 SWAP2 POP POP JUMP JUMPDEST PUSH1 0x0 DUP2 ISZERO ISZERO SWAP1 POP SWAP2 SWAP1 POP JUMP JUMPDEST PUSH2 0xA4A DUP2 PUSH2 0xA35 JUMP JUMPDEST DUP2 EQ PUSH2 0xA55 JUMPI PUSH1 0x0 DUP1 REVERT JUMPDEST POP JUMP JUMPDEST PUSH1 0x0 DUP2 CALLDATALOAD SWAP1 POP PUSH2 0xA67 DUP2 PUSH2 0xA41 JUMP JUMPDEST SWAP3 SWAP2 POP POP JUMP JUMPDEST PUSH1 0x0 DUP1 PUSH1 0x0 PUSH1 0x60 DUP5 DUP7 SUB SLT ISZERO PUSH2 0xA86 JUMPI PUSH2 0xA85 PUSH2 0xA04 JUMP JUMPDEST JUMPDEST PUSH1 0x0 PUSH2 0xA94 DUP7 DUP3 DUP8 ADD PUSH2 0xA20 JUMP JUMPDEST SWAP4 POP POP PUSH1 0x20 PUSH2 0xAA5 DUP7 DUP3 DUP8 ADD PUSH2 0xA20 JUMP JUMPDEST SWAP3 POP POP PUSH1 0x40 PUSH2 0xAB6 DUP7 DUP3 DUP8 ADD PUSH2 0xA58 JUMP JUMPDEST SWAP2 POP POP SWAP3 POP SWAP3 POP SWAP3 JUMP JUMPDEST PUSH1 0x0 DUP1 PUSH1 0x40 DUP4 DUP6 SUB SLT ISZERO PUSH2 0xAD7 JUMPI PUSH2 0xAD6 PUSH2 0xA04 JUMP JUMPDEST JUMPDEST PUSH1 0x0 PUSH2 0xAE5 DUP6 DUP3 DUP7 ADD PUSH2 0xA20 JUMP JUMPDEST SWAP3 POP POP PUSH1 0x20 PUSH2 0xAF6 DUP6 DUP3 DUP7 ADD PUSH2 0xA20 JUMP JUMPDEST SWAP2 POP POP SWAP3 POP SWAP3 SWAP1 POP JUMP JUMPDEST PUSH2 0xB09 DUP2 PUSH2 0xA35 JUMP JUMPDEST DUP3 MSTORE POP POP JUMP JUMPDEST PUSH1 0x0 PUSH1 0x20 DUP3 ADD SWAP1 POP PUSH2 0xB24 PUSH1 0x0 DUP4 ADD DUP5 PUSH2 0xB00 JUMP JUMPDEST SWAP3 SWAP2 POP POP JUMP JUMPDEST PUSH1 0x0 PUSH2 0xFFFF DUP3 AND SWAP1 POP SWAP2 SWAP1 POP JUMP JUMPDEST PUSH2 0xB41 DUP2 PUSH2 0xB2A JUMP JUMPDEST DUP3 MSTORE POP POP JUMP JUMPDEST PUSH1 0x0 PUSH1 0xC0 DUP3 ADD SWAP1 POP PUSH2 0xB5C PUSH1 0x0 DUP4 ADD DUP10 PUSH2 0xB38 JUMP JUMPDEST PUSH2 0xB69 PUSH1 0x20 DUP4 ADD DUP9 PUSH2 0xB38 JUMP JUMPDEST PUSH2 0xB76 PUSH1 0x40 DUP4 ADD DUP8 PUSH2 0xB38 JUMP JUMPDEST PUSH2 0xB83 PUSH1 0x60 DUP4 ADD DUP7 PUSH2 0xB38 JUMP JUMPDEST PUSH2 0xB90 PUSH1 0x80 DUP4 ADD DUP6 PUSH2 0xB38 JUMP JUMPDEST PUSH2 0xB9D PUSH1 0xA0 DUP4 ADD DUP5 PUSH2 0xB38 JUMP JUMPDEST SWAP8 SWAP7 POP POP POP POP POP POP POP JUMP JUMPDEST PUSH32 0x4E487B7100000000000000000000000000000000000000000000000000000000 PUSH1 0x0 MSTORE PUSH1 0x11 PUSH1 0x4 MSTORE PUSH1 0x24 PUSH1 0x0 REVERT JUMPDEST PUSH1 0x0 PUSH2 0xBE2 DUP3 PUSH2 0x9D0 JUMP JUMPDEST SWAP2 POP PUSH2 0xBED DUP4 PUSH2 0x9D0 JUMP JUMPDEST SWAP3 POP DUP3 DUP3 SUB SWAP1 POP DUP2 DUP2 GT ISZERO PUSH2 0xC05 JUMPI PUSH2 0xC04 PUSH2 0xBA8 JUMP JUMPDEST JUMPDEST SWAP3 SWAP2 POP POP JUMP JUMPDEST PUSH1 0x0 PUSH2 0xC16 DUP3 PUSH2 0x9D0 JUMP JUMPDEST SWAP2 POP PUSH2 0xC21 DUP4 PUSH2 0x9D0 JUMP JUMPDEST SWAP3 POP DUP3 DUP3 MUL PUSH2 0xC2F DUP2 PUSH2 0x9D0 JUMP JUMPDEST SWAP2 POP DUP3 DUP3 DIV DUP5 EQ DUP4 ISZERO OR PUSH2 0xC46 JUMPI PUSH2 0xC45 PUSH2 0xBA8 JUMP JUMPDEST JUMPDEST POP SWAP3 SWAP2 POP POP JUMP JUMPDEST PUSH32 0x4E487B7100000000000000000000000000000000000000000000000000000000 PUSH1 0x0 MSTORE PUSH1 0x12 PUSH1 0x4 MSTORE PUSH1 0x24 PUSH1 0x0 REVERT JUMPDEST PUSH1 0x0 PUSH2 0xC87 DUP3 PUSH2 0x9D0 JUMP JUMPDEST SWAP2 POP PUSH2 0xC92 DUP4 PUSH2 0x9D0 JUMP JUMPDEST SWAP3 POP DUP3 PUSH2 0xCA2 JUMPI PUSH2 0xCA1 PUSH2 0xC4D JUMP JUMPDEST JUMPDEST DUP3 DUP3 DIV SWAP1 POP SWAP3 SWAP2 POP POP JUMP JUMPDEST PUSH1 0x0 PUSH2 0xCB8 DUP3 PUSH2 0x9D0 JUMP JUMPDEST SWAP2 POP PUSH2 0xCC3 DUP4 PUSH2 0x9D0 JUMP JUMPDEST SWAP3 POP DUP3 DUP3 ADD SWAP1 POP DUP1 DUP3 GT ISZERO PUSH2 0xCDB JUMPI PUSH2 0xCDA PUSH2 0xBA8 JUMP JUMPDEST JUMPDEST SWAP3 SWAP2 POP POP JUMP INVALID LOG2 PUSH5 0x6970667358 0x22 SLT KECCAK256 BYTE KECCAK256 LOG2 SUB CALLDATASIZE 0xEF 0xCF 0xCC 0xCF LT 0xE5 PUSH10 0x66D0059449177AEFCDDE TLOAD JUMP 0xB3 0xC8 0x2E MCOPY 0xF9 0xEF LOG2 SWAP15 PUSH5 0x736F6C6343 STOP ADDMOD XOR STOP CALLER "
        },
        "methodIdentifiers": {
          "R_base_RAY()": "6cdc90fd",
          "R_slope1_RAY()": "01967344",
          "R_slope2_RAY()": "6e55f77e",
          "R_slope3_RAY()": "1a405265",
          "U_1_WAD()": "be3c37cd",
          "U_2_WAD()": "7f681d54",
          "availableToBorrow(uint256,uint256)": "81ec4ab7",
          "calcBorrowRate(uint256,uint256)": "42568d44",
          "calcBorrowRate(uint256,uint256,bool)": "306ea067",
          "getModelParameters()": "c8284e6d",
          "isBorrowingMoreU2Forbidden()": "762dbdb8"
        }
      }
    }
  }
}