{
  "_format": "hh-sol-artifact-1",
  "contractName": "CreditManager",
  "sourceName": "contracts/credit/CreditManager.sol",
  "abi": [
    {
      "inputs": [
        {
          "internalType": "address",
          "name": "_addressProvider",
          "type": "address"
        },
        {
          "internalType": "address",
          "name": "_pool",
          "type": "address"
        }
      ],
      "stateMutability": "nonpayable",
      "type": "constructor"
    },
    {
      "inputs": [],
      "name": "ActiveCreditAccountNotSetException",
      "type": "error"
    },
    {
      "inputs": [],
      "name": "ActiveCreditAccountOverridenException",
      "type": "error"
    },
    {
      "inputs": [
        {
          "internalType": "address",
          "name": "target",
          "type": "address"
        }
      ],
      "name": "AddressEmptyCode",
      "type": "error"
    },
    {
      "inputs": [
        {
          "internalType": "address",
          "name": "account",
          "type": "address"
        }
      ],
      "name": "AddressInsufficientBalance",
      "type": "error"
    },
    {
      "inputs": [],
      "name": "AllowanceFailedException",
      "type": "error"
    },
    {
      "inputs": [],
      "name": "CallerNotAdapterException",
      "type": "error"
    },
    {
      "inputs": [],
      "name": "CallerNotConfiguratorException",
      "type": "error"
    },
    {
      "inputs": [],
      "name": "CallerNotCreditFacadeException",
      "type": "error"
    },
    {
      "inputs": [],
      "name": "CloseAccountWithNonZeroDebtException",
      "type": "error"
    },
    {
      "inputs": [],
      "name": "CreditAccountDoesNotExistException",
      "type": "error"
    },
    {
      "inputs": [],
      "name": "DebtUpdatedTwiceInOneBlockException",
      "type": "error"
    },
    {
      "inputs": [],
      "name": "FailedInnerCall",
      "type": "error"
    },
    {
      "inputs": [],
      "name": "IncorrectParameterException",
      "type": "error"
    },
    {
      "inputs": [],
      "name": "NotEnoughCollateralException",
      "type": "error"
    },
    {
      "inputs": [],
      "name": "ReentrancyGuardReentrantCall",
      "type": "error"
    },
    {
      "inputs": [
        {
          "internalType": "address",
          "name": "token",
          "type": "address"
        }
      ],
      "name": "SafeERC20FailedOperation",
      "type": "error"
    },
    {
      "inputs": [],
      "name": "TokenAlreadyAddedException",
      "type": "error"
    },
    {
      "inputs": [],
      "name": "TokenNotAllowedException",
      "type": "error"
    },
    {
      "inputs": [],
      "name": "TooManyEnabledTokensException",
      "type": "error"
    },
    {
      "inputs": [],
      "name": "TooManyTokensException",
      "type": "error"
    },
    {
      "inputs": [],
      "name": "ZeroAddressException",
      "type": "error"
    },
    {
      "inputs": [],
      "name": "accountFactory",
      "outputs": [
        {
          "internalType": "address",
          "name": "",
          "type": "address"
        }
      ],
      "stateMutability": "view",
      "type": "function"
    },
    {
      "inputs": [
        {
          "internalType": "address",
          "name": "",
          "type": "address"
        }
      ],
      "name": "adapterToContract",
      "outputs": [
        {
          "internalType": "address",
          "name": "",
          "type": "address"
        }
      ],
      "stateMutability": "view",
      "type": "function"
    },
    {
      "inputs": [
        {
          "internalType": "address",
          "name": "payer",
          "type": "address"
        },
        {
          "internalType": "address",
          "name": "creditAccount",
          "type": "address"
        },
        {
          "internalType": "address",
          "name": "token",
          "type": "address"
        },
        {
          "internalType": "uint256",
          "name": "amount",
          "type": "uint256"
        }
      ],
      "name": "addCollateral",
      "outputs": [
        {
          "internalType": "uint256",
          "name": "tokensToEnable",
          "type": "uint256"
        }
      ],
      "stateMutability": "nonpayable",
      "type": "function"
    },
    {
      "inputs": [
        {
          "internalType": "address",
          "name": "token",
          "type": "address"
        }
      ],
      "name": "addToken",
      "outputs": [],
      "stateMutability": "nonpayable",
      "type": "function"
    },
    {
      "inputs": [],
      "name": "addressProvider",
      "outputs": [
        {
          "internalType": "address",
          "name": "",
          "type": "address"
        }
      ],
      "stateMutability": "view",
      "type": "function"
    },
    {
      "inputs": [
        {
          "internalType": "address",
          "name": "token",
          "type": "address"
        },
        {
          "internalType": "uint256",
          "name": "amount",
          "type": "uint256"
        }
      ],
      "name": "approveCreditAccount",
      "outputs": [],
      "stateMutability": "nonpayable",
      "type": "function"
    },
    {
      "inputs": [
        {
          "internalType": "address",
          "name": "creditAccount",
          "type": "address"
        },
        {
          "internalType": "address",
          "name": "token",
          "type": "address"
        },
        {
          "internalType": "address",
          "name": "spender",
          "type": "address"
        },
        {
          "internalType": "uint256",
          "name": "amount",
          "type": "uint256"
        }
      ],
      "name": "approveToken",
      "outputs": [],
      "stateMutability": "nonpayable",
      "type": "function"
    },
    {
      "inputs": [
        {
          "internalType": "address",
          "name": "creditAccount",
          "type": "address"
        },
        {
          "internalType": "enum CollateralCalcTask",
          "name": "task",
          "type": "uint8"
        }
      ],
      "name": "calcDebtAndCollateral",
      "outputs": [
        {
          "components": [
            {
              "internalType": "uint256",
              "name": "debt",
              "type": "uint256"
            },
            {
              "internalType": "uint256",
              "name": "cumulativeIndexNow",
              "type": "uint256"
            },
            {
              "internalType": "uint256",
              "name": "cumulativeIndexLastUpdate",
              "type": "uint256"
            },
            {
              "internalType": "uint256",
              "name": "accruedInterest",
              "type": "uint256"
            },
            {
              "internalType": "uint256",
              "name": "totalValue",
              "type": "uint256"
            },
            {
              "internalType": "uint256",
              "name": "enabledTokensMask",
              "type": "uint256"
            },
            {
              "internalType": "uint256",
              "name": "quotedTokensMask",
              "type": "uint256"
            },
            {
              "internalType": "address[]",
              "name": "quotedTokens",
              "type": "address[]"
            }
          ],
          "internalType": "struct CollateralDebtData",
          "name": "cdd",
          "type": "tuple"
        }
      ],
      "stateMutability": "nonpayable",
      "type": "function"
    },
    {
      "inputs": [],
      "name": "collateralTokensCount",
      "outputs": [
        {
          "internalType": "uint8",
          "name": "",
          "type": "uint8"
        }
      ],
      "stateMutability": "view",
      "type": "function"
    },
    {
      "inputs": [
        {
          "internalType": "address",
          "name": "",
          "type": "address"
        }
      ],
      "name": "contractToAdapter",
      "outputs": [
        {
          "internalType": "address",
          "name": "",
          "type": "address"
        }
      ],
      "stateMutability": "view",
      "type": "function"
    },
    {
      "inputs": [
        {
          "internalType": "address",
          "name": "",
          "type": "address"
        }
      ],
      "name": "creditAccountInfo",
      "outputs": [
        {
          "internalType": "uint256",
          "name": "debt",
          "type": "uint256"
        },
        {
          "internalType": "uint256",
          "name": "cumulativeIndexLastUpdate",
          "type": "uint256"
        },
        {
          "internalType": "uint256",
          "name": "enabledTokensMask",
          "type": "uint256"
        },
        {
          "internalType": "uint64",
          "name": "lastDebtUpdate",
          "type": "uint64"
        },
        {
          "internalType": "address",
          "name": "borrower",
          "type": "address"
        }
      ],
      "stateMutability": "view",
      "type": "function"
    },
    {
      "inputs": [],
      "name": "creditAccounts",
      "outputs": [
        {
          "internalType": "address[]",
          "name": "",
          "type": "address[]"
        }
      ],
      "stateMutability": "view",
      "type": "function"
    },
    {
      "inputs": [],
      "name": "creditAccountsLen",
      "outputs": [
        {
          "internalType": "uint256",
          "name": "",
          "type": "uint256"
        }
      ],
      "stateMutability": "view",
      "type": "function"
    },
    {
      "inputs": [],
      "name": "creditFacade",
      "outputs": [
        {
          "internalType": "address",
          "name": "",
          "type": "address"
        }
      ],
      "stateMutability": "view",
      "type": "function"
    },
    {
      "inputs": [
        {
          "internalType": "address",
          "name": "creditAccount",
          "type": "address"
        }
      ],
      "name": "enabledTokensMaskOf",
      "outputs": [
        {
          "internalType": "uint256",
          "name": "",
          "type": "uint256"
        }
      ],
      "stateMutability": "view",
      "type": "function"
    },
    {
      "inputs": [
        {
          "internalType": "bytes",
          "name": "data",
          "type": "bytes"
        }
      ],
      "name": "execute",
      "outputs": [
        {
          "internalType": "bytes",
          "name": "result",
          "type": "bytes"
        }
      ],
      "stateMutability": "nonpayable",
      "type": "function"
    },
    {
      "inputs": [
        {
          "internalType": "address",
          "name": "creditAccount",
          "type": "address"
        },
        {
          "internalType": "address",
          "name": "target",
          "type": "address"
        },
        {
          "internalType": "bytes",
          "name": "callData",
          "type": "bytes"
        }
      ],
      "name": "externalCall",
      "outputs": [
        {
          "internalType": "bytes",
          "name": "result",
          "type": "bytes"
        }
      ],
      "stateMutability": "nonpayable",
      "type": "function"
    },
    {
      "inputs": [
        {
          "internalType": "address",
          "name": "creditAccount",
          "type": "address"
        },
        {
          "internalType": "uint256",
          "name": "enabledTokensMask",
          "type": "uint256"
        }
      ],
      "name": "fullCollateralCheck",
      "outputs": [
        {
          "internalType": "uint256",
          "name": "enabledTokensMaskAfter",
          "type": "uint256"
        }
      ],
      "stateMutability": "nonpayable",
      "type": "function"
    },
    {
      "inputs": [],
      "name": "getActiveCreditAccountOrRevert",
      "outputs": [
        {
          "internalType": "address",
          "name": "creditAccount",
          "type": "address"
        }
      ],
      "stateMutability": "view",
      "type": "function"
    },
    {
      "inputs": [
        {
          "internalType": "address",
          "name": "creditAccount",
          "type": "address"
        }
      ],
      "name": "getBorrowerOrRevert",
      "outputs": [
        {
          "internalType": "address",
          "name": "borrower",
          "type": "address"
        }
      ],
      "stateMutability": "view",
      "type": "function"
    },
    {
      "inputs": [
        {
          "internalType": "address",
          "name": "token",
          "type": "address"
        }
      ],
      "name": "getTokenMaskOrRevert",
      "outputs": [
        {
          "internalType": "uint256",
          "name": "tokenMask",
          "type": "uint256"
        }
      ],
      "stateMutability": "view",
      "type": "function"
    },
    {
      "inputs": [
        {
          "internalType": "address",
          "name": "creditAccount",
          "type": "address"
        },
        {
          "internalType": "uint256",
          "name": "amount",
          "type": "uint256"
        },
        {
          "internalType": "uint256",
          "name": "enabledTokensMask",
          "type": "uint256"
        },
        {
          "internalType": "enum ManageDebtAction",
          "name": "action",
          "type": "uint8"
        }
      ],
      "name": "manageDebt",
      "outputs": [
        {
          "internalType": "uint256",
          "name": "newDebt",
          "type": "uint256"
        },
        {
          "internalType": "uint256",
          "name": "tokensToEnable",
          "type": "uint256"
        },
        {
          "internalType": "uint256",
          "name": "tokensToDisable",
          "type": "uint256"
        }
      ],
      "stateMutability": "nonpayable",
      "type": "function"
    },
    {
      "inputs": [],
      "name": "name",
      "outputs": [
        {
          "internalType": "string",
          "name": "",
          "type": "string"
        }
      ],
      "stateMutability": "pure",
      "type": "function"
    },
    {
      "inputs": [
        {
          "internalType": "address",
          "name": "onBehalfOf",
          "type": "address"
        }
      ],
      "name": "openCreditAccount",
      "outputs": [
        {
          "internalType": "address",
          "name": "creditAccount",
          "type": "address"
        }
      ],
      "stateMutability": "nonpayable",
      "type": "function"
    },
    {
      "inputs": [],
      "name": "pool",
      "outputs": [
        {
          "internalType": "address",
          "name": "",
          "type": "address"
        }
      ],
      "stateMutability": "view",
      "type": "function"
    },
    {
      "inputs": [],
      "name": "priceOracle",
      "outputs": [
        {
          "internalType": "address",
          "name": "",
          "type": "address"
        }
      ],
      "stateMutability": "view",
      "type": "function"
    },
    {
      "inputs": [
        {
          "internalType": "address",
          "name": "creditAccount",
          "type": "address"
        }
      ],
      "name": "setActiveCreditAccount",
      "outputs": [],
      "stateMutability": "nonpayable",
      "type": "function"
    },
    {
      "inputs": [
        {
          "internalType": "address",
          "name": "adapter",
          "type": "address"
        },
        {
          "internalType": "address",
          "name": "targetContract",
          "type": "address"
        }
      ],
      "name": "setContractAllowance",
      "outputs": [],
      "stateMutability": "nonpayable",
      "type": "function"
    },
    {
      "inputs": [
        {
          "internalType": "address",
          "name": "_creditFacade",
          "type": "address"
        }
      ],
      "name": "setCreditFacade",
      "outputs": [],
      "stateMutability": "nonpayable",
      "type": "function"
    },
    {
      "inputs": [],
      "name": "underlying",
      "outputs": [
        {
          "internalType": "address",
          "name": "",
          "type": "address"
        }
      ],
      "stateMutability": "view",
      "type": "function"
    },
    {
      "inputs": [
        {
          "internalType": "address",
          "name": "creditAccount",
          "type": "address"
        },
        {
          "internalType": "address",
          "name": "token",
          "type": "address"
        },
        {
          "internalType": "uint256",
          "name": "amount",
          "type": "uint256"
        },
        {
          "internalType": "address",
          "name": "to",
          "type": "address"
        }
      ],
      "name": "withdrawCollateral",
      "outputs": [
        {
          "internalType": "uint256",
          "name": "tokensToDisable",
          "type": "uint256"
        }
      ],
      "stateMutability": "nonpayable",
      "type": "function"
    }
  ],
  "bytecode": "0x6101006040526001600360006101000a81548173ffffffffffffffffffffffffffffffffffffffff021916908373ffffffffffffffffffffffffffffffffffffffff1602179055503480156200005457600080fd5b50604051620035cc380380620035cc83398181016040528101906200007a91906200043f565b60016000819055508173ffffffffffffffffffffffffffffffffffffffff1660808173ffffffffffffffffffffffffffffffffffffffff16815250508073ffffffffffffffffffffffffffffffffffffffff1660e08173ffffffffffffffffffffffffffffffffffffffff16815250508073ffffffffffffffffffffffffffffffffffffffff16632495a5996040518163ffffffff1660e01b8152600401602060405180830381865afa15801562000136573d6000803e3d6000fd5b505050506040513d601f19601f820116820180604052508101906200015c919062000486565b73ffffffffffffffffffffffffffffffffffffffff1660c08173ffffffffffffffffffffffffffffffffffffffff1681525050620001a260c0516200027e60201b60201c565b60805173ffffffffffffffffffffffffffffffffffffffff1663e395b6ca7f4143434f554e545f464143544f525900000000000000000000000000000000006040518263ffffffff1660e01b8152600401620001ff9190620004d3565b602060405180830381865afa1580156200021d573d6000803e3d6000fd5b505050506040513d601f19601f8201168201806040525081019062000243919062000486565b73ffffffffffffffffffffffffffffffffffffffff1660a08173ffffffffffffffffffffffffffffffffffffffff16815250505050620004f0565b6000600460008373ffffffffffffffffffffffffffffffffffffffff1673ffffffffffffffffffffffffffffffffffffffff1681526020019081526020016000205414620002f8576040517f2e5a5c7700000000000000000000000000000000000000000000000000000000815260040160405180910390fd5b60ff600260149054906101000a900460ff1660ff161062000345576040517f7e050c5200000000000000000000000000000000000000000000000000000000815260040160405180910390fd5b6000600260149054906101000a900460ff1660ff166001901b905080600460008473ffffffffffffffffffffffffffffffffffffffff1673ffffffffffffffffffffffffffffffffffffffff168152602001908152602001600020819055506002601481819054906101000a900460ff1660010191906101000a81548160ff021916908360ff1602179055505050565b600080fd5b600073ffffffffffffffffffffffffffffffffffffffff82169050919050565b60006200040782620003da565b9050919050565b6200041981620003fa565b81146200042557600080fd5b50565b60008151905062000439816200040e565b92915050565b60008060408385031215620004595762000458620003d5565b5b6000620004698582860162000428565b92505060206200047c8582860162000428565b9150509250929050565b6000602082840312156200049f576200049e620003d5565b5b6000620004af8482850162000428565b91505092915050565b6000819050919050565b620004cd81620004b8565b82525050565b6000602082019050620004ea6000830184620004c2565b92915050565b60805160a05160c05160e0516130716200055b6000396000818161075801528181610ac401528181611649015261191e015260008181610aa301528181610b7801528181610f1a01526111cd015260008181610c830152610ef6015260006107a201526130716000f3fe608060405234801561001057600080fd5b50600436106101e55760003560e01c8063687cd9c11161010f578063d5c2f486116100a2578063f9f0ca6611610071578063f9f0ca66146105d6578063fa30b30f14610606578063fdd5764514610622578063ff68754314610652576101e5565b8063d5c2f4861461053c578063e09357a41461056c578063eb23d33e14610588578063f13d0fc6146105b8576101e5565b8063830aa745116100de578063830aa745146104a4578063acb0e845146104d4578063c53afb1e146104f0578063d48bfca714610520576101e5565b8063687cd9c11461042e5780636f307dc31461044c578063741f3e3c1461046a57806380213c7414610488576101e5565b80632f7a188111610187578063432017e811610156578063432017e81461037e57806343fe7bbe146103b0578063458936f5146103e05780635a6f45de146103fe576101e5565b80632f7a1881146102de57806333635b90146102fc57806334878f541461032c5780633c5bc3b21461034a576101e5565b806312ef080d116101c357806312ef080d1461026857806316f0115b146102845780632630c12f146102a25780632954018c146102c0576101e5565b806306fdde03146101ea57806309c5eabe146102085780630d334ca614610238575b600080fd5b6101f2610682565b6040516101ff91906122cb565b60405180910390f35b610222600480360381019061021d9190612366565b6106bf565b60405161022f9190612408565b60405180910390f35b610252600480360381019061024d91906124ad565b6106ff565b60405161025f9190612674565b60405180910390f35b610282600480360381019061027d91906126c2565b61072c565b005b61028c610756565b6040516102999190612738565b60405180910390f35b6102aa61077a565b6040516102b79190612738565b60405180910390f35b6102c86107a0565b6040516102d59190612738565b60405180910390f35b6102e66107c4565b6040516102f39190612738565b60405180910390f35b61031660048036038101906103119190612753565b6107ea565b60405161032391906127a2565b60405180910390f35b61033461082c565b6040516103419190612738565b60405180910390f35b610364600480360381019061035f91906127bd565b6108bc565b60405161037595949392919061280d565b60405180910390f35b61039860048036038101906103939190612885565b610926565b6040516103a7939291906128ec565b60405180910390f35b6103ca60048036038101906103c591906127bd565b610c6f565b6040516103d79190612738565b60405180910390f35b6103e8610dbd565b6040516103f5919061293f565b60405180910390f35b6104186004803603810190610413919061295a565b610dd0565b60405161042591906127a2565b60405180910390f35b610436610ef4565b6040516104439190612738565b60405180910390f35b610454610f18565b6040516104619190612738565b60405180910390f35b610472610f3c565b60405161047f9190612a30565b60405180910390f35b6104a2600480360381019061049d9190612a52565b610f4d565b005b6104be60048036038101906104b991906126c2565b61104d565b6040516104cb91906127a2565b60405180910390f35b6104ee60048036038101906104e991906127bd565b6110a7565b005b61050a600480360381019061050591906127bd565b6110eb565b6040516105179190612738565b60405180910390f35b61053a600480360381019061053591906127bd565b6111bd565b005b610556600480360381019061055191906127bd565b6111c9565b60405161056391906127a2565b60405180910390f35b610586600480360381019061058191906127bd565b6112a9565b005b6105a2600480360381019061059d9190612a92565b611305565b6040516105af9190612408565b60405180910390f35b6105c0611335565b6040516105cd91906127a2565b60405180910390f35b6105f060048036038101906105eb91906127bd565b611346565b6040516105fd91906127a2565b60405180910390f35b610620600480360381019061061b9190612753565b611392565b005b61063c600480360381019061063791906127bd565b6113cc565b6040516106499190612738565b60405180910390f35b61066c600480360381019061066791906127bd565b6113ff565b6040516106799190612738565b60405180910390f35b60606040518060400160405280600d81526020017f4372656469744d616e6167657200000000000000000000000000000000000000815250905090565b60606106c9611432565b60006106d3611478565b905060006106df61082c565b90506106ed81838787611545565b925050506106f96115d6565b92915050565b6107076121f6565b610710836110eb565b506107248361071e85611346565b846115e0565b905092915050565b610734611432565b61073c611776565b610748848484846117ff565b6107506115d6565b50505050565b7f000000000000000000000000000000000000000000000000000000000000000081565b600260009054906101000a900473ffffffffffffffffffffffffffffffffffffffff1681565b7f000000000000000000000000000000000000000000000000000000000000000081565b600160009054906101000a900473ffffffffffffffffffffffffffffffffffffffff1681565b60006107f4611432565b6107fc611776565b600061080a848460026115e0565b90508060a00151915061081d848361183c565b506108266115d6565b92915050565b6000600360009054906101000a900473ffffffffffffffffffffffffffffffffffffffff169050600173ffffffffffffffffffffffffffffffffffffffff168173ffffffffffffffffffffffffffffffffffffffff16036108b9576040517f5cd6b24400000000000000000000000000000000000000000000000000000000815260040160405180910390fd5b90565b60076020528060005260406000206000915090508060000154908060010154908060020154908060030160009054906101000a900467ffffffffffffffff16908060030160089054906101000a900473ffffffffffffffffffffffffffffffffffffffff16905085565b6000806000610933611432565b61093b611776565b6000600760008973ffffffffffffffffffffffffffffffffffffffff1673ffffffffffffffffffffffffffffffffffffffff1681526020019081526020016000209050438160030160009054906101000a900467ffffffffffffffff1667ffffffffffffffff16036109d9576040517f8b426a9a00000000000000000000000000000000000000000000000000000000815260040160405180910390fd5b600087036109f557806000015460008093509350935050610c5d565b6000610a03898860006115e0565b90506000806001811115610a1a57610a19612b06565b5b876001811115610a2d57610a2c612b06565b5b03610a6557610a4a89836000015184602001518560400151611887565b8092508197505050610a5c898b61191c565b60019450610c1c565b6000610a78610a73846119ad565b6119ca565b9050808a10610a85578099505b8a73ffffffffffffffffffffffffffffffffffffffff1663d1660f997f00000000000000000000000000000000000000000000000000000000000000007f00000000000000000000000000000000000000000000000000000000000000008d6040518463ffffffff1660e01b8152600401610b0293929190612b35565b600060405180830381600087803b158015610b1c57600080fd5b505af1158015610b30573d6000803e3d6000fd5b50505050808a03610b4b576000965082602001519150610b74565b610b6b610b578b6119d4565b8460000151856020015186604001516119de565b80935081985050505b60017f000000000000000000000000000000000000000000000000000000000000000073ffffffffffffffffffffffffffffffffffffffff166370a082318d6040518263ffffffff1660e01b8152600401610bcf9190612738565b602060405180830381865afa158015610bec573d6000803e3d6000fd5b505050506040513d601f19601f82011682018060405250810190610c109190612b81565b11610c1a57600194505b505b858360000181905550438360030160006101000a81548167ffffffffffffffff021916908367ffffffffffffffff1602179055508083600101819055505050505b610c656115d6565b9450945094915050565b6000610c79611432565b610c81611776565b7f000000000000000000000000000000000000000000000000000000000000000073ffffffffffffffffffffffffffffffffffffffff166395ad97f26040518163ffffffff1660e01b81526004016020604051808303816000875af1158015610cee573d6000803e3d6000fd5b505050506040513d601f19601f82011682018060405250810190610d129190612bc3565b90506000600760008373ffffffffffffffffffffffffffffffffffffffff1673ffffffffffffffffffffffffffffffffffffffff1681526020019081526020016000209050828160030160086101000a81548173ffffffffffffffffffffffffffffffffffffffff021916908373ffffffffffffffffffffffffffffffffffffffff160217905550610dae826008611aa490919063ffffffff16565b5050610db86115d6565b919050565b600260149054906101000a900460ff1681565b6000610dda611432565b610de2611776565b6000610ded856111c9565b90508573ffffffffffffffffffffffffffffffffffffffff1663d1660f998685876040518463ffffffff1660e01b8152600401610e2c93929190612b35565b600060405180830381600087803b158015610e4657600080fd5b505af1158015610e5a573d6000803e3d6000fd5b5050505060018573ffffffffffffffffffffffffffffffffffffffff166370a08231886040518263ffffffff1660e01b8152600401610e999190612738565b602060405180830381865afa158015610eb6573d6000803e3d6000fd5b505050506040513d601f19601f82011682018060405250810190610eda9190612b81565b11610ee3578091505b50610eec6115d6565b949350505050565b7f000000000000000000000000000000000000000000000000000000000000000081565b7f000000000000000000000000000000000000000000000000000000000000000081565b6060610f486008611ad4565b905090565b80600560008473ffffffffffffffffffffffffffffffffffffffff1673ffffffffffffffffffffffffffffffffffffffff16815260200190815260200160002060006101000a81548173ffffffffffffffffffffffffffffffffffffffff021916908373ffffffffffffffffffffffffffffffffffffffff16021790555081600660008373ffffffffffffffffffffffffffffffffffffffff1673ffffffffffffffffffffffffffffffffffffffff16815260200190815260200160002060006101000a81548173ffffffffffffffffffffffffffffffffffffffff021916908373ffffffffffffffffffffffffffffffffffffffff1602179055505050565b6000611057611432565b61105f611776565b611068836111c9565b90506110978585848673ffffffffffffffffffffffffffffffffffffffff16611af5909392919063ffffffff16565b61109f6115d6565b949350505050565b80600160006101000a81548173ffffffffffffffffffffffffffffffffffffffff021916908373ffffffffffffffffffffffffffffffffffffffff16021790555050565b6000600760008373ffffffffffffffffffffffffffffffffffffffff1673ffffffffffffffffffffffffffffffffffffffff16815260200190815260200160002060030160089054906101000a900473ffffffffffffffffffffffffffffffffffffffff169050600073ffffffffffffffffffffffffffffffffffffffff168173ffffffffffffffffffffffffffffffffffffffff16036111b8576040517f309d150100000000000000000000000000000000000000000000000000000000815260040160405180910390fd5b919050565b6111c681611b77565b50565b60007f000000000000000000000000000000000000000000000000000000000000000073ffffffffffffffffffffffffffffffffffffffff168273ffffffffffffffffffffffffffffffffffffffff160361122757600190506112a4565b600460008373ffffffffffffffffffffffffffffffffffffffff1673ffffffffffffffffffffffffffffffffffffffff168152602001908152602001600020549050600081036112a3576040517f700ca0af00000000000000000000000000000000000000000000000000000000815260040160405180910390fd5b5b919050565b6112b1611432565b6112b9611776565b80600360006101000a81548173ffffffffffffffffffffffffffffffffffffffff021916908373ffffffffffffffffffffffffffffffffffffffff1602179055506113026115d6565b50565b606061130f611432565b611317611776565b61132385858585611545565b905061132d6115d6565b949350505050565b60006113416008611ccc565b905090565b6000600760008373ffffffffffffffffffffffffffffffffffffffff1673ffffffffffffffffffffffffffffffffffffffff168152602001908152602001600020600201549050919050565b61139a611432565b60006113a4611478565b905060006113b061082c565b90506113be818584866117ff565b50506113c86115d6565b5050565b60066020528060005260406000206000915054906101000a900473ffffffffffffffffffffffffffffffffffffffff1681565b60056020528060005260406000206000915054906101000a900473ffffffffffffffffffffffffffffffffffffffff1681565b60026000540361146e576040517f3ee5aeb500000000000000000000000000000000000000000000000000000000815260040160405180910390fd5b6002600081905550565b6000600560003373ffffffffffffffffffffffffffffffffffffffff1673ffffffffffffffffffffffffffffffffffffffff16815260200190815260200160002060009054906101000a900473ffffffffffffffffffffffffffffffffffffffff169050600073ffffffffffffffffffffffffffffffffffffffff168173ffffffffffffffffffffffffffffffffffffffff1603611542576040517f5535a8f100000000000000000000000000000000000000000000000000000000815260040160405180910390fd5b90565b60608473ffffffffffffffffffffffffffffffffffffffff16631cff79cd8585856040518463ffffffff1660e01b815260040161158493929190612c2c565b6000604051808303816000875af11580156115a3573d6000803e3d6000fd5b505050506040513d6000823e3d601f19601f820116820180604052508101906115cc9190612d7f565b9050949350505050565b6001600081905550565b6115e86121f6565b6000600760008673ffffffffffffffffffffffffffffffffffffffff1673ffffffffffffffffffffffffffffffffffffffff1681526020019081526020016000209050806000015482600001818152505080600101548260400181815250507f000000000000000000000000000000000000000000000000000000000000000073ffffffffffffffffffffffffffffffffffffffff1663faaba9e26040518163ffffffff1660e01b8152600401602060405180830381865afa1580156116b2573d6000803e3d6000fd5b505050506040513d601f19601f820116820180604052508101906116d69190612b81565b826020018181525050600060048111156116f3576116f2612b06565b5b83600481111561170657611705612b06565b5b03611711575061176f565b838260a0018181525050611732826000015183604001518460200151611ce1565b8260600181815250506001600481111561174f5761174e612b06565b5b83600481111561176257611761612b06565b5b0361176d575061176f565b505b9392505050565b600160009054906101000a900473ffffffffffffffffffffffffffffffffffffffff1673ffffffffffffffffffffffffffffffffffffffff163373ffffffffffffffffffffffffffffffffffffffff16146117fd576040517f0c1d6a3f00000000000000000000000000000000000000000000000000000000815260040160405180910390fd5b565b611808836111c9565b506118368383838773ffffffffffffffffffffffffffffffffffffffff16611d1f909392919063ffffffff16565b50505050565b80600760008473ffffffffffffffffffffffffffffffffffffffff1673ffffffffffffffffffffffffffffffffffffffff168152602001908152602001600020600201819055505050565b6000806000850361189d57858491509150611913565b85856118a99190612df7565b915085633b9aca006118bb9190612e2b565b838686633b9aca006118cd9190612e2b565b6118d79190612e2b565b6118e19190612e9c565b6118eb9190612df7565b633b9aca0083866118fc9190612e2b565b6119069190612e2b565b6119109190612e9c565b90505b94509492505050565b7f000000000000000000000000000000000000000000000000000000000000000073ffffffffffffffffffffffffffffffffffffffff1663bf28068b83836040518363ffffffff1660e01b8152600401611977929190612ecd565b600060405180830381600087803b15801561199157600080fd5b505af11580156119a5573d6000803e3d6000fd5b505050505050565b6000816060015182600001516119c39190612df7565b9050919050565b6000819050919050565b6000819050919050565b600080600086905080866119f29190612ef6565b925060008114611a96576000611a09878688611ce1565b9050808210611a28578082611a1e9190612ef6565b9150859250611a90565b868583633b9aca00611a3a9190612e2b565b611a449190612e2b565b611a4e9190612e9c565b86633b9aca00611a5e9190612e2b565b611a689190612ef6565b8587633b9aca00611a799190612e2b565b611a839190612e2b565b611a8d9190612e9c565b92505b50611a9a565b8391505b5094509492505050565b6000611acc836000018373ffffffffffffffffffffffffffffffffffffffff1660001b611d57565b905092915050565b60606000611ae483600001611dc7565b905060608190508092505050919050565b611b71848573ffffffffffffffffffffffffffffffffffffffff166323b872dd868686604051602401611b2a93929190612b35565b604051602081830303815290604052915060e01b6020820180517bffffffffffffffffffffffffffffffffffffffffffffffffffffffff8381831617835250505050611e23565b50505050565b6000600460008373ffffffffffffffffffffffffffffffffffffffff1673ffffffffffffffffffffffffffffffffffffffff1681526020019081526020016000205414611bf0576040517f2e5a5c7700000000000000000000000000000000000000000000000000000000815260040160405180910390fd5b60ff600260149054906101000a900460ff1660ff1610611c3c576040517f7e050c5200000000000000000000000000000000000000000000000000000000815260040160405180910390fd5b6000600260149054906101000a900460ff1660ff166001901b905080600460008473ffffffffffffffffffffffffffffffffffffffff1673ffffffffffffffffffffffffffffffffffffffff168152602001908152602001600020819055506002601481819054906101000a900460ff1660010191906101000a81548160ff021916908360ff1602179055505050565b6000611cda82600001611eba565b9050919050565b6000808403611cf35760009050611d18565b83838386611d019190612e2b565b611d0b9190612e9c565b611d159190612ef6565b90505b9392505050565b611d2d848484846000611ecb565b611d5157611d4084848460006001611ecb565b50611d4f848484846001611ecb565b505b50505050565b6000611d63838361201c565b611dbc578260000182908060018154018082558091505060019003906000526020600020016000909190919091505582600001805490508360010160008481526020019081526020016000208190555060019050611dc1565b600090505b92915050565b606081600001805480602002602001604051908101604052809291908181526020018280548015611e1757602002820191906000526020600020905b815481526020019060010190808311611e03575b50505050509050919050565b6000611e4e828473ffffffffffffffffffffffffffffffffffffffff1661203f90919063ffffffff16565b90506000815114158015611e73575080806020019051810190611e719190612f62565b155b15611eb557826040517f5274afe7000000000000000000000000000000000000000000000000000000008152600401611eac9190612738565b60405180910390fd5b505050565b600081600001805490509050919050565b60008573ffffffffffffffffffffffffffffffffffffffff16631cff79cd868686604051602401611efd929190612f8f565b60405160208183030381529060405263095ea7b360e01b6020820180517bffffffffffffffffffffffffffffffffffffffffffffffffffffffff83818316178352505050506040518363ffffffff1660e01b8152600401611f5f929190612fb8565b6000604051808303816000875af1925050508015611fa057506040513d6000823e3d601f19601f82011682018060405250810190611f9d9190612d7f565b60015b15611fd657600081511480611fc5575080806020019051810190611fc49190612f62565b5b15611fd4576001915050612013565b505b811561200e576040517f2f10a7f300000000000000000000000000000000000000000000000000000000815260040160405180910390fd5b600090505b95945050505050565b600080836001016000848152602001908152602001600020541415905092915050565b606061204d83836000612055565b905092915050565b60608147101561209c57306040517fcd7860590000000000000000000000000000000000000000000000000000000081526004016120939190612738565b60405180910390fd5b6000808573ffffffffffffffffffffffffffffffffffffffff1684866040516120c59190613024565b60006040518083038185875af1925050503d8060008114612102576040519150601f19603f3d011682016040523d82523d6000602084013e612107565b606091505b5091509150612117868383612122565b925050509392505050565b60608261213757612132826121b1565b6121a9565b6000825114801561215f575060008473ffffffffffffffffffffffffffffffffffffffff163b145b156121a157836040517f9996b3150000000000000000000000000000000000000000000000000000000081526004016121989190612738565b60405180910390fd5b8190506121aa565b5b9392505050565b6000815111156121c45780518082602001fd5b6040517f1425ea4200000000000000000000000000000000000000000000000000000000815260040160405180910390fd5b60405180610100016040528060008152602001600081526020016000815260200160008152602001600081526020016000815260200160008152602001606081525090565b600081519050919050565b600082825260208201905092915050565b60005b8381101561227557808201518184015260208101905061225a565b60008484015250505050565b6000601f19601f8301169050919050565b600061229d8261223b565b6122a78185612246565b93506122b7818560208601612257565b6122c081612281565b840191505092915050565b600060208201905081810360008301526122e58184612292565b905092915050565b6000604051905090565b600080fd5b600080fd5b600080fd5b600080fd5b600080fd5b60008083601f84011261232657612325612301565b5b8235905067ffffffffffffffff81111561234357612342612306565b5b60208301915083600182028301111561235f5761235e61230b565b5b9250929050565b6000806020838503121561237d5761237c6122f7565b5b600083013567ffffffffffffffff81111561239b5761239a6122fc565b5b6123a785828601612310565b92509250509250929050565b600081519050919050565b600082825260208201905092915050565b60006123da826123b3565b6123e481856123be565b93506123f4818560208601612257565b6123fd81612281565b840191505092915050565b6000602082019050818103600083015261242281846123cf565b905092915050565b600073ffffffffffffffffffffffffffffffffffffffff82169050919050565b60006124558261242a565b9050919050565b6124658161244a565b811461247057600080fd5b50565b6000813590506124828161245c565b92915050565b6005811061249557600080fd5b50565b6000813590506124a781612488565b92915050565b600080604083850312156124c4576124c36122f7565b5b60006124d285828601612473565b92505060206124e385828601612498565b9150509250929050565b6000819050919050565b612500816124ed565b82525050565b600081519050919050565b600082825260208201905092915050565b6000819050602082019050919050565b61253b8161244a565b82525050565b600061254d8383612532565b60208301905092915050565b6000602082019050919050565b600061257182612506565b61257b8185612511565b935061258683612522565b8060005b838110156125b757815161259e8882612541565b97506125a983612559565b92505060018101905061258a565b5085935050505092915050565b6000610100830160008301516125dd60008601826124f7565b5060208301516125f060208601826124f7565b50604083015161260360408601826124f7565b50606083015161261660608601826124f7565b50608083015161262960808601826124f7565b5060a083015161263c60a08601826124f7565b5060c083015161264f60c08601826124f7565b5060e083015184820360e08601526126678282612566565b9150508091505092915050565b6000602082019050818103600083015261268e81846125c4565b905092915050565b61269f816124ed565b81146126aa57600080fd5b50565b6000813590506126bc81612696565b92915050565b600080600080608085870312156126dc576126db6122f7565b5b60006126ea87828801612473565b94505060206126fb87828801612473565b935050604061270c87828801612473565b925050606061271d878288016126ad565b91505092959194509250565b6127328161244a565b82525050565b600060208201905061274d6000830184612729565b92915050565b6000806040838503121561276a576127696122f7565b5b600061277885828601612473565b9250506020612789858286016126ad565b9150509250929050565b61279c816124ed565b82525050565b60006020820190506127b76000830184612793565b92915050565b6000602082840312156127d3576127d26122f7565b5b60006127e184828501612473565b91505092915050565b600067ffffffffffffffff82169050919050565b612807816127ea565b82525050565b600060a0820190506128226000830188612793565b61282f6020830187612793565b61283c6040830186612793565b61284960608301856127fe565b6128566080830184612729565b9695505050505050565b6002811061286d57600080fd5b50565b60008135905061287f81612860565b92915050565b6000806000806080858703121561289f5761289e6122f7565b5b60006128ad87828801612473565b94505060206128be878288016126ad565b93505060406128cf878288016126ad565b92505060606128e087828801612870565b91505092959194509250565b60006060820190506129016000830186612793565b61290e6020830185612793565b61291b6040830184612793565b949350505050565b600060ff82169050919050565b61293981612923565b82525050565b60006020820190506129546000830184612930565b92915050565b60008060008060808587031215612974576129736122f7565b5b600061298287828801612473565b945050602061299387828801612473565b93505060406129a4878288016126ad565b92505060606129b587828801612473565b91505092959194509250565b600082825260208201905092915050565b60006129dd82612506565b6129e781856129c1565b93506129f283612522565b8060005b83811015612a23578151612a0a8882612541565b9750612a1583612559565b9250506001810190506129f6565b5085935050505092915050565b60006020820190508181036000830152612a4a81846129d2565b905092915050565b60008060408385031215612a6957612a686122f7565b5b6000612a7785828601612473565b9250506020612a8885828601612473565b9150509250929050565b60008060008060608587031215612aac57612aab6122f7565b5b6000612aba87828801612473565b9450506020612acb87828801612473565b935050604085013567ffffffffffffffff811115612aec57612aeb6122fc565b5b612af887828801612310565b925092505092959194509250565b7f4e487b7100000000000000000000000000000000000000000000000000000000600052602160045260246000fd5b6000606082019050612b4a6000830186612729565b612b576020830185612729565b612b646040830184612793565b949350505050565b600081519050612b7b81612696565b92915050565b600060208284031215612b9757612b966122f7565b5b6000612ba584828501612b6c565b91505092915050565b600081519050612bbd8161245c565b92915050565b600060208284031215612bd957612bd86122f7565b5b6000612be784828501612bae565b91505092915050565b82818337600083830152505050565b6000612c0b83856123be565b9350612c18838584612bf0565b612c2183612281565b840190509392505050565b6000604082019050612c416000830186612729565b8181036020830152612c54818486612bff565b9050949350505050565b600080fd5b7f4e487b7100000000000000000000000000000000000000000000000000000000600052604160045260246000fd5b612c9b82612281565b810181811067ffffffffffffffff82111715612cba57612cb9612c63565b5b80604052505050565b6000612ccd6122ed565b9050612cd98282612c92565b919050565b600067ffffffffffffffff821115612cf957612cf8612c63565b5b612d0282612281565b9050602081019050919050565b6000612d22612d1d84612cde565b612cc3565b905082815260208101848484011115612d3e57612d3d612c5e565b5b612d49848285612257565b509392505050565b600082601f830112612d6657612d65612301565b5b8151612d76848260208601612d0f565b91505092915050565b600060208284031215612d9557612d946122f7565b5b600082015167ffffffffffffffff811115612db357612db26122fc565b5b612dbf84828501612d51565b91505092915050565b7f4e487b7100000000000000000000000000000000000000000000000000000000600052601160045260246000fd5b6000612e02826124ed565b9150612e0d836124ed565b9250828201905080821115612e2557612e24612dc8565b5b92915050565b6000612e36826124ed565b9150612e41836124ed565b9250828202612e4f816124ed565b91508282048414831517612e6657612e65612dc8565b5b5092915050565b7f4e487b7100000000000000000000000000000000000000000000000000000000600052601260045260246000fd5b6000612ea7826124ed565b9150612eb2836124ed565b925082612ec257612ec1612e6d565b5b828204905092915050565b6000604082019050612ee26000830185612793565b612eef6020830184612729565b9392505050565b6000612f01826124ed565b9150612f0c836124ed565b9250828203905081811115612f2457612f23612dc8565b5b92915050565b60008115159050919050565b612f3f81612f2a565b8114612f4a57600080fd5b50565b600081519050612f5c81612f36565b92915050565b600060208284031215612f7857612f776122f7565b5b6000612f8684828501612f4d565b91505092915050565b6000604082019050612fa46000830185612729565b612fb16020830184612793565b9392505050565b6000604082019050612fcd6000830185612729565b8181036020830152612fdf81846123cf565b90509392505050565b600081905092915050565b6000612ffe826123b3565b6130088185612fe8565b9350613018818560208601612257565b80840191505092915050565b60006130308284612ff3565b91508190509291505056fea26469706673582212202b09e4c82457684c233e17fc6a7d8be766b212e1432b5e6d61cffecaf40bef8664736f6c63430008180033",
  "linkReferences": {},
  "deployedLinkReferences": {}
}