{
  "_format": "hh-sol-artifact-1",
  "contractName": "CreditFacade",
  "sourceName": "contracts/credit/CreditFacade.sol",
  "abi": [
    {
      "inputs": [
        {
          "internalType": "address",
          "name": "_creditManager",
          "type": "address"
        }
      ],
      "stateMutability": "nonpayable",
      "type": "constructor"
    },
    {
      "inputs": [
        {
          "internalType": "address",
          "name": "target",
          "type": "address"
        }
      ],
      "name": "AddressEmptyCode",
      "type": "error"
    },
    {
      "inputs": [
        {
          "internalType": "address",
          "name": "account",
          "type": "address"
        }
      ],
      "name": "AddressInsufficientBalance",
      "type": "error"
    },
    {
      "inputs": [],
      "name": "BalanceLessThanExpectedException",
      "type": "error"
    },
    {
      "inputs": [],
      "name": "CallerNotCreditAccountOwnerException",
      "type": "error"
    },
    {
      "inputs": [],
      "name": "CloseAccountWithEnabledTokensException",
      "type": "error"
    },
    {
      "inputs": [],
      "name": "ExpectedBalancesAlreadySetException",
      "type": "error"
    },
    {
      "inputs": [],
      "name": "ExpectedBalancesNotSetException",
      "type": "error"
    },
    {
      "inputs": [],
      "name": "FailedInnerCall",
      "type": "error"
    },
    {
      "inputs": [],
      "name": "ForbiddenTokensException",
      "type": "error"
    },
    {
      "inputs": [],
      "name": "InvalidCollateralHintException",
      "type": "error"
    },
    {
      "inputs": [],
      "name": "ReentrancyGuardReentrantCall",
      "type": "error"
    },
    {
      "inputs": [],
      "name": "TargetContractNotAllowedException",
      "type": "error"
    },
    {
      "inputs": [],
      "name": "UnknownMethodException",
      "type": "error"
    },
    {
      "anonymous": false,
      "inputs": [
        {
          "indexed": true,
          "internalType": "address",
          "name": "creditAccount",
          "type": "address"
        },
        {
          "indexed": true,
          "internalType": "address",
          "name": "token",
          "type": "address"
        },
        {
          "indexed": false,
          "internalType": "uint256",
          "name": "amount",
          "type": "uint256"
        }
      ],
      "name": "AddCollateral",
      "type": "event"
    },
    {
      "anonymous": false,
      "inputs": [
        {
          "indexed": true,
          "internalType": "address",
          "name": "creditAccount",
          "type": "address"
        },
        {
          "indexed": true,
          "internalType": "address",
          "name": "borrower",
          "type": "address"
        }
      ],
      "name": "CloseCreditAccount",
      "type": "event"
    },
    {
      "anonymous": false,
      "inputs": [
        {
          "indexed": true,
          "internalType": "address",
          "name": "creditAccount",
          "type": "address"
        },
        {
          "indexed": false,
          "internalType": "uint256",
          "name": "amount",
          "type": "uint256"
        }
      ],
      "name": "DecreaseDebt",
      "type": "event"
    },
    {
      "anonymous": false,
      "inputs": [
        {
          "indexed": true,
          "internalType": "address",
          "name": "creditAccount",
          "type": "address"
        },
        {
          "indexed": true,
          "internalType": "address",
          "name": "targetContract",
          "type": "address"
        }
      ],
      "name": "Execute",
      "type": "event"
    },
    {
      "anonymous": false,
      "inputs": [],
      "name": "FinishMultiCall",
      "type": "event"
    },
    {
      "anonymous": false,
      "inputs": [
        {
          "indexed": true,
          "internalType": "address",
          "name": "creditAccount",
          "type": "address"
        },
        {
          "indexed": false,
          "internalType": "uint256",
          "name": "amount",
          "type": "uint256"
        }
      ],
      "name": "IncreaseDebt",
      "type": "event"
    },
    {
      "anonymous": false,
      "inputs": [
        {
          "indexed": true,
          "internalType": "address",
          "name": "creditAccount",
          "type": "address"
        },
        {
          "indexed": true,
          "internalType": "address",
          "name": "onBehalfOf",
          "type": "address"
        },
        {
          "indexed": true,
          "internalType": "address",
          "name": "caller",
          "type": "address"
        }
      ],
      "name": "OpenCreditAccount",
      "type": "event"
    },
    {
      "anonymous": false,
      "inputs": [
        {
          "indexed": true,
          "internalType": "address",
          "name": "creditAccount",
          "type": "address"
        },
        {
          "indexed": true,
          "internalType": "address",
          "name": "caller",
          "type": "address"
        }
      ],
      "name": "StartMultiCall",
      "type": "event"
    },
    {
      "anonymous": false,
      "inputs": [
        {
          "indexed": true,
          "internalType": "address",
          "name": "creditAccount",
          "type": "address"
        },
        {
          "indexed": true,
          "internalType": "address",
          "name": "token",
          "type": "address"
        },
        {
          "indexed": false,
          "internalType": "uint256",
          "name": "amount",
          "type": "uint256"
        },
        {
          "indexed": false,
          "internalType": "address",
          "name": "to",
          "type": "address"
        }
      ],
      "name": "WithdrawCollateral",
      "type": "event"
    },
    {
      "inputs": [],
      "name": "creditManager",
      "outputs": [
        {
          "internalType": "address",
          "name": "",
          "type": "address"
        }
      ],
      "stateMutability": "view",
      "type": "function"
    },
    {
      "inputs": [
        {
          "internalType": "address",
          "name": "creditAccount",
          "type": "address"
        },
        {
          "components": [
            {
              "internalType": "address",
              "name": "target",
              "type": "address"
            },
            {
              "internalType": "bytes",
              "name": "callData",
              "type": "bytes"
            }
          ],
          "internalType": "struct MultiCall[]",
          "name": "calls",
          "type": "tuple[]"
        }
      ],
      "name": "multicall",
      "outputs": [],
      "stateMutability": "nonpayable",
      "type": "function"
    },
    {
      "inputs": [
        {
          "internalType": "address",
          "name": "onBehalfOf",
          "type": "address"
        }
      ],
      "name": "openCreditAccount",
      "outputs": [
        {
          "internalType": "address",
          "name": "creditAccount",
          "type": "address"
        }
      ],
      "stateMutability": "payable",
      "type": "function"
    }
  ],
  "bytecode": "0x60a06040523480156200001157600080fd5b5060405162001e8a38038062001e8a83398181016040528101906200003791906200015b565b60016000819055508073ffffffffffffffffffffffffffffffffffffffff1660808173ffffffffffffffffffffffffffffffffffffffff168152505060008173ffffffffffffffffffffffffffffffffffffffff16632954018c6040518163ffffffff1660e01b8152600401602060405180830381865afa158015620000c1573d6000803e3d6000fd5b505050506040513d601f19601f82011682018060405250810190620000e791906200015b565b905050506200018d565b600080fd5b600073ffffffffffffffffffffffffffffffffffffffff82169050919050565b60006200012382620000f6565b9050919050565b620001358162000116565b81146200014157600080fd5b50565b60008151905062000155816200012a565b92915050565b600060208284031215620001745762000173620000f1565b5b6000620001848482850162000144565b91505092915050565b608051611c9c620001ee6000396000818160c9015281816101e501528181610325015281816103c80152818161094301528181610bce01528181610df301528181610f2f015281816110b90152818161115a01526112110152611c9c6000f3fe6080604052600436106100345760003560e01c806343fe7bbe14610039578063c12c21c014610069578063ebe4107c14610094575b600080fd5b610053600480360381019061004e91906114d7565b6100bd565b6040516100609190611513565b60405180910390f35b34801561007557600080fd5b5061007e6101e3565b60405161008b9190611513565b60405180910390f35b3480156100a057600080fd5b506100bb60048036038101906100b69190611593565b610207565b005b60006100c7610232565b7f000000000000000000000000000000000000000000000000000000000000000073ffffffffffffffffffffffffffffffffffffffff166343fe7bbe836040518263ffffffff1660e01b81526004016101209190611513565b6020604051808303816000875af115801561013f573d6000803e3d6000fd5b505050506040513d601f19601f820116820180604052508101906101639190611608565b90503373ffffffffffffffffffffffffffffffffffffffff168273ffffffffffffffffffffffffffffffffffffffff168273ffffffffffffffffffffffffffffffffffffffff167fc8d27edec404d2e191ac2c2b6712d0273947158be2b521c4afb72705f4437bc060405160405180910390a46101de610278565b919050565b7f000000000000000000000000000000000000000000000000000000000000000081565b8261021181610282565b610219610232565b6102248484846102f2565b61022c610278565b50505050565b60026000540361026e576040517f3ee5aeb500000000000000000000000000000000000000000000000000000000815260040160405180910390fd5b6002600081905550565b6001600081905550565b61028b81610321565b73ffffffffffffffffffffffffffffffffffffffff163373ffffffffffffffffffffffffffffffffffffffff16146102ef576040517f1e83c51100000000000000000000000000000000000000000000000000000000815260040160405180910390fd5b50565b60006102fd846103c4565b9050600061030d85858585610467565b905061031a858383610bca565b5050505050565b60007f000000000000000000000000000000000000000000000000000000000000000073ffffffffffffffffffffffffffffffffffffffff1663c53afb1e836040518263ffffffff1660e01b815260040161037c9190611513565b602060405180830381865afa158015610399573d6000803e3d6000fd5b505050506040513d601f19601f820116820180604052508101906103bd9190611608565b9050919050565b60007f000000000000000000000000000000000000000000000000000000000000000073ffffffffffffffffffffffffffffffffffffffff1663f9f0ca66836040518263ffffffff1660e01b815260040161041f9190611513565b602060405180830381865afa15801561043c573d6000803e3d6000fd5b505050506040513d601f19601f82011682018060405250810190610460919061166b565b9050919050565b61046f61145c565b3373ffffffffffffffffffffffffffffffffffffffff168573ffffffffffffffffffffffffffffffffffffffff167f6637691e02875fb5c598316278034ab86d133a75ab6d76491287290e0397928460405160405180910390a3600084849050905060005b81811015610b8a57368686838181106104f0576104ef611698565b5b905060200281019061050291906116d6565b90503073ffffffffffffffffffffffffffffffffffffffff1681600001602081019061052e91906114d7565b73ffffffffffffffffffffffffffffffffffffffff160361093d57600081806020019061055b91906116fe565b9061056691906117a5565b9050636d75b9ee60e01b7bffffffffffffffffffffffffffffffffffffffffffffffffffffffff1916817bffffffffffffffffffffffffffffffffffffffffffffffffffffffff1916036105f7576105f06105e18a8480602001906105cb91906116fe565b60049080926105dc9392919061180e565b610c76565b87610d0a90919063ffffffff16565b9550610937565b631f1088a060e01b7bffffffffffffffffffffffffffffffffffffffffffffffffffffffff1916817bffffffffffffffffffffffffffffffffffffffffffffffffffffffff19160361068c57600061066f8a84806020019061065991906116fe565b600490809261066a9392919061180e565b610d17565b90506106848188610f0790919063ffffffff16565b965050610936565b632b7c7b1160e01b7bffffffffffffffffffffffffffffffffffffffffffffffffffffffff1916817bffffffffffffffffffffffffffffffffffffffffffffffffffffffff1916036107255760006107078a8480602001906106ee91906116fe565b60049080926106ff9392919061180e565b8a6000610f15565b50905061071d8188610d0a90919063ffffffff16565b965050610935565b632a7ba1f760e01b7bffffffffffffffffffffffffffffffffffffffffffffffffffffffff1916817bffffffffffffffffffffffffffffffffffffffffffffffffffffffff1916036107be5760006107a08a84806020019061078791906116fe565b60049080926107989392919061180e565b8a6001610f15565b9150506107b68188610f0790919063ffffffff16565b965050610934565b63c690908a60e01b7bffffffffffffffffffffffffffffffffffffffffffffffffffffffff1916817bffffffffffffffffffffffffffffffffffffffffffffffffffffffff19160361085f57600082806020019061081c91906116fe565b600490809261082d9392919061180e565b81019061083a9190611887565b9050610857610848826110b5565b88610d0a90919063ffffffff16565b965050610933565b6323e27a6460e01b7bffffffffffffffffffffffffffffffffffffffffffffffffffffffff1916817bffffffffffffffffffffffffffffffffffffffffffffffffffffffff1916036109005760008280602001906108bd91906116fe565b60049080926108ce9392919061180e565b8101906108db9190611887565b90506108f86108e9826110b5565b88610f0790919063ffffffff16565b965050610932565b6040517f1e9e7e7a00000000000000000000000000000000000000000000000000000000815260040160405180910390fd5b5b5b5b5b5b50610b7e565b606060007f000000000000000000000000000000000000000000000000000000000000000073ffffffffffffffffffffffffffffffffffffffff1663ff68754384600001602081019061099091906114d7565b6040518263ffffffff1660e01b81526004016109ac9190611513565b602060405180830381865afa1580156109c9573d6000803e3d6000fd5b505050506040513d601f19601f820116820180604052508101906109ed9190611608565b9050600073ffffffffffffffffffffffffffffffffffffffff168173ffffffffffffffffffffffffffffffffffffffff1603610a55576040517ffc1a554300000000000000000000000000000000000000000000000000000000815260040160405180910390fd5b610a5e8a611158565b610aeb838060200190610a7191906116fe565b8080601f016020809104026020016040519081016040528093929190818152602001838380828437600081840152601f19601f82011690508083019250505050505050846000016020810190610ac791906114d7565b73ffffffffffffffffffffffffffffffffffffffff166111e690919063ffffffff16565b91508073ffffffffffffffffffffffffffffffffffffffff168a73ffffffffffffffffffffffffffffffffffffffff167f1b835de7d84f000a333cdc5822ae62eb63b38d4c622ef96ac50f27db56d7c76860405160405180910390a35060008082806020019051810190610b5f91906118b4565b91509150610b7882828a6111fc9092919063ffffffff16565b97505050505b508060010190506104d4565b5050818160000181815250507f9fe19f2060e67aed557c7d1bc297d4bd2d8a8b952e3545c658ec4bc00be7d6c460405160405180910390a1949350505050565b60007f000000000000000000000000000000000000000000000000000000000000000073ffffffffffffffffffffffffffffffffffffffff166333635b908584600001516040518363ffffffff1660e01b8152600401610c2b929190611903565b6020604051808303816000875af1158015610c4a573d6000803e3d6000fd5b505050506040513d601f19601f82011682018060405250810190610c6e919061166b565b905050505050565b60008060008484810190610c8a9190611941565b91509150610c9a3387848461120d565b92508173ffffffffffffffffffffffffffffffffffffffff168673ffffffffffffffffffffffffffffffffffffffff167fa32435755c235de2976ed44a75a2f85cb01faf0c894f639fe0c32bb9455fea8f83604051610cf99190611981565b60405180910390a350509392505050565b6000818317905092915050565b6000806000808585810190610d2c919061199c565b9250925092507fffffffffffffffffffffffffffffffffffffffffffffffffffffffffffffffff8203610df1578273ffffffffffffffffffffffffffffffffffffffff166370a08231886040518263ffffffff1660e01b8152600401610d929190611513565b602060405180830381865afa158015610daf573d6000803e3d6000fd5b505050506040513d601f19601f82011682018060405250810190610dd3919061166b565b915060018211610de95760009350505050610f00565b816001900391505b7f000000000000000000000000000000000000000000000000000000000000000073ffffffffffffffffffffffffffffffffffffffff16635a6f45de888585856040518563ffffffff1660e01b8152600401610e5094939291906119ef565b6020604051808303816000875af1158015610e6f573d6000803e3d6000fd5b505050506040513d601f19601f82011682018060405250810190610e93919061166b565b93508273ffffffffffffffffffffffffffffffffffffffff168773ffffffffffffffffffffffffffffffffffffffff167fe7655dfddd0226889710c711da4e725dd44525fb5717b2321017a97d32793ab88484604051610ef4929190611a34565b60405180910390a35050505b9392505050565b600081198316905092915050565b60008060008686810190610f299190611a5d565b905060007f000000000000000000000000000000000000000000000000000000000000000073ffffffffffffffffffffffffffffffffffffffff1663432017e88a8489896040518563ffffffff1660e01b8152600401610f8c9493929190611b01565b6060604051808303816000875af1158015610fab573d6000803e3d6000fd5b505050506040513d601f19601f82011682018060405250810190610fcf9190611b46565b80955081965082935050505060006001811115610fef57610fee611a8a565b5b85600181111561100257611001611a8a565b5b0361105a578873ffffffffffffffffffffffffffffffffffffffff167fcb6767c6e25552f1ab37156882f03b9ba603ebf3814463bf5eb9b0d2bd8a19b58360405161104d9190611981565b60405180910390a26110a9565b8873ffffffffffffffffffffffffffffffffffffffff167f9ddbe9792bb03a06eab016daae23f04ec25454c24b836da2361fc703037f7762836040516110a09190611981565b60405180910390a25b50509550959350505050565b60007f000000000000000000000000000000000000000000000000000000000000000073ffffffffffffffffffffffffffffffffffffffff1663d5c2f486836040518263ffffffff1660e01b81526004016111109190611513565b602060405180830381865afa15801561112d573d6000803e3d6000fd5b505050506040513d601f19601f82011682018060405250810190611151919061166b565b9050919050565b7f000000000000000000000000000000000000000000000000000000000000000073ffffffffffffffffffffffffffffffffffffffff1663e09357a4826040518263ffffffff1660e01b81526004016111b19190611513565b600060405180830381600087803b1580156111cb57600080fd5b505af11580156111df573d6000803e3d6000fd5b5050505050565b60606111f4838360006112bb565b905092915050565b600081198385171690509392505050565b60007f000000000000000000000000000000000000000000000000000000000000000073ffffffffffffffffffffffffffffffffffffffff1663830aa745868686866040518563ffffffff1660e01b815260040161126e9493929190611b99565b6020604051808303816000875af115801561128d573d6000803e3d6000fd5b505050506040513d601f19601f820116820180604052508101906112b1919061166b565b9050949350505050565b60608147101561130257306040517fcd7860590000000000000000000000000000000000000000000000000000000081526004016112f99190611513565b60405180910390fd5b6000808573ffffffffffffffffffffffffffffffffffffffff16848660405161132b9190611c4f565b60006040518083038185875af1925050503d8060008114611368576040519150601f19603f3d011682016040523d82523d6000602084013e61136d565b606091505b509150915061137d868383611388565b925050509392505050565b60608261139d5761139882611417565b61140f565b600082511480156113c5575060008473ffffffffffffffffffffffffffffffffffffffff163b145b1561140757836040517f9996b3150000000000000000000000000000000000000000000000000000000081526004016113fe9190611513565b60405180910390fd5b819050611410565b5b9392505050565b60008151111561142a5780518082602001fd5b6040517f1425ea4200000000000000000000000000000000000000000000000000000000815260040160405180910390fd5b6040518060200160405280600081525090565b600080fd5b600080fd5b600073ffffffffffffffffffffffffffffffffffffffff82169050919050565b60006114a482611479565b9050919050565b6114b481611499565b81146114bf57600080fd5b50565b6000813590506114d1816114ab565b92915050565b6000602082840312156114ed576114ec61146f565b5b60006114fb848285016114c2565b91505092915050565b61150d81611499565b82525050565b60006020820190506115286000830184611504565b92915050565b600080fd5b600080fd5b600080fd5b60008083601f8401126115535761155261152e565b5b8235905067ffffffffffffffff8111156115705761156f611533565b5b60208301915083602082028301111561158c5761158b611538565b5b9250929050565b6000806000604084860312156115ac576115ab61146f565b5b60006115ba868287016114c2565b935050602084013567ffffffffffffffff8111156115db576115da611474565b5b6115e78682870161153d565b92509250509250925092565b600081519050611602816114ab565b92915050565b60006020828403121561161e5761161d61146f565b5b600061162c848285016115f3565b91505092915050565b6000819050919050565b61164881611635565b811461165357600080fd5b50565b6000815190506116658161163f565b92915050565b6000602082840312156116815761168061146f565b5b600061168f84828501611656565b91505092915050565b7f4e487b7100000000000000000000000000000000000000000000000000000000600052603260045260246000fd5b600080fd5b600080fd5b600080fd5b6000823560016040038336030381126116f2576116f16116c7565b5b80830191505092915050565b6000808335600160200384360303811261171b5761171a6116c7565b5b80840192508235915067ffffffffffffffff82111561173d5761173c6116cc565b5b602083019250600182023603831315611759576117586116d1565b5b509250929050565b600082905092915050565b60007fffffffff0000000000000000000000000000000000000000000000000000000082169050919050565b600082821b905092915050565b60006117b18383611761565b826117bc813561176c565b925060048210156117fc576117f77fffffffff0000000000000000000000000000000000000000000000000000000083600403600802611798565b831692505b505092915050565b600080fd5b600080fd5b6000808585111561182257611821611804565b5b8386111561183357611832611809565b5b6001850283019150848603905094509492505050565b600061185482611479565b9050919050565b61186481611849565b811461186f57600080fd5b50565b6000813590506118818161185b565b92915050565b60006020828403121561189d5761189c61146f565b5b60006118ab84828501611872565b91505092915050565b600080604083850312156118cb576118ca61146f565b5b60006118d985828601611656565b92505060206118ea85828601611656565b9150509250929050565b6118fd81611635565b82525050565b60006040820190506119186000830185611504565b61192560208301846118f4565b9392505050565b60008135905061193b8161163f565b92915050565b600080604083850312156119585761195761146f565b5b600061196685828601611872565b92505060206119778582860161192c565b9150509250929050565b600060208201905061199660008301846118f4565b92915050565b6000806000606084860312156119b5576119b461146f565b5b60006119c386828701611872565b93505060206119d48682870161192c565b92505060406119e586828701611872565b9150509250925092565b6000608082019050611a046000830187611504565b611a116020830186611504565b611a1e60408301856118f4565b611a2b6060830184611504565b95945050505050565b6000604082019050611a4960008301856118f4565b611a566020830184611504565b9392505050565b600060208284031215611a7357611a7261146f565b5b6000611a818482850161192c565b91505092915050565b7f4e487b7100000000000000000000000000000000000000000000000000000000600052602160045260246000fd5b60028110611aca57611ac9611a8a565b5b50565b6000819050611adb82611ab9565b919050565b6000611aeb82611acd565b9050919050565b611afb81611ae0565b82525050565b6000608082019050611b166000830187611504565b611b2360208301866118f4565b611b3060408301856118f4565b611b3d6060830184611af2565b95945050505050565b600080600060608486031215611b5f57611b5e61146f565b5b6000611b6d86828701611656565b9350506020611b7e86828701611656565b9250506040611b8f86828701611656565b9150509250925092565b6000608082019050611bae6000830187611504565b611bbb6020830186611504565b611bc86040830185611504565b611bd560608301846118f4565b95945050505050565b600081519050919050565b600081905092915050565b60005b83811015611c12578082015181840152602081019050611bf7565b60008484015250505050565b6000611c2982611bde565b611c338185611be9565b9350611c43818560208601611bf4565b80840191505092915050565b6000611c5b8284611c1e565b91508190509291505056fea26469706673582212203fd21d390656e342e3418a7c325d64030c526c81d46caf3f59bc4a7151af730f64736f6c63430008180033",
  "linkReferences": {},
  "deployedLinkReferences": {}
}