{
  "_format": "hh-sol-artifact-1",
  "contractName": "Pool",
  "sourceName": "contracts/pool/Pool.sol",
  "abi": [
    {
      "inputs": [
        {
          "internalType": "address",
          "name": "addressProvider_",
          "type": "address"
        },
        {
          "internalType": "address",
          "name": "underlyingToken_",
          "type": "address"
        },
        {
          "internalType": "address",
          "name": "interestRateModel_",
          "type": "address"
        },
        {
          "internalType": "uint128",
          "name": "totalDebtLimit_",
          "type": "uint128"
        },
        {
          "internalType": "string",
          "name": "name_",
          "type": "string"
        },
        {
          "internalType": "string",
          "name": "symbol_",
          "type": "string"
        }
      ],
      "stateMutability": "nonpayable",
      "type": "constructor"
    },
    {
      "inputs": [
        {
          "internalType": "address",
          "name": "target",
          "type": "address"
        }
      ],
      "name": "AddressEmptyCode",
      "type": "error"
    },
    {
      "inputs": [
        {
          "internalType": "address",
          "name": "account",
          "type": "address"
        }
      ],
      "name": "AddressInsufficientBalance",
      "type": "error"
    },
    {
      "inputs": [],
      "name": "CreditManagerCantBorrowException",
      "type": "error"
    },
    {
      "inputs": [],
      "name": "ECDSAInvalidSignature",
      "type": "error"
    },
    {
      "inputs": [
        {
          "internalType": "uint256",
          "name": "length",
          "type": "uint256"
        }
      ],
      "name": "ECDSAInvalidSignatureLength",
      "type": "error"
    },
    {
      "inputs": [
        {
          "internalType": "bytes32",
          "name": "s",
          "type": "bytes32"
        }
      ],
      "name": "ECDSAInvalidSignatureS",
      "type": "error"
    },
    {
      "inputs": [
        {
          "internalType": "address",
          "name": "spender",
          "type": "address"
        },
        {
          "internalType": "uint256",
          "name": "allowance",
          "type": "uint256"
        },
        {
          "internalType": "uint256",
          "name": "needed",
          "type": "uint256"
        }
      ],
      "name": "ERC20InsufficientAllowance",
      "type": "error"
    },
    {
      "inputs": [
        {
          "internalType": "address",
          "name": "sender",
          "type": "address"
        },
        {
          "internalType": "uint256",
          "name": "balance",
          "type": "uint256"
        },
        {
          "internalType": "uint256",
          "name": "needed",
          "type": "uint256"
        }
      ],
      "name": "ERC20InsufficientBalance",
      "type": "error"
    },
    {
      "inputs": [
        {
          "internalType": "address",
          "name": "approver",
          "type": "address"
        }
      ],
      "name": "ERC20InvalidApprover",
      "type": "error"
    },
    {
      "inputs": [
        {
          "internalType": "address",
          "name": "receiver",
          "type": "address"
        }
      ],
      "name": "ERC20InvalidReceiver",
      "type": "error"
    },
    {
      "inputs": [
        {
          "internalType": "address",
          "name": "sender",
          "type": "address"
        }
      ],
      "name": "ERC20InvalidSender",
      "type": "error"
    },
    {
      "inputs": [
        {
          "internalType": "address",
          "name": "spender",
          "type": "address"
        }
      ],
      "name": "ERC20InvalidSpender",
      "type": "error"
    },
    {
      "inputs": [
        {
          "internalType": "uint256",
          "name": "deadline",
          "type": "uint256"
        }
      ],
      "name": "ERC2612ExpiredSignature",
      "type": "error"
    },
    {
      "inputs": [
        {
          "internalType": "address",
          "name": "signer",
          "type": "address"
        },
        {
          "internalType": "address",
          "name": "owner",
          "type": "address"
        }
      ],
      "name": "ERC2612InvalidSigner",
      "type": "error"
    },
    {
      "inputs": [
        {
          "internalType": "address",
          "name": "receiver",
          "type": "address"
        },
        {
          "internalType": "uint256",
          "name": "assets",
          "type": "uint256"
        },
        {
          "internalType": "uint256",
          "name": "max",
          "type": "uint256"
        }
      ],
      "name": "ERC4626ExceededMaxDeposit",
      "type": "error"
    },
    {
      "inputs": [
        {
          "internalType": "address",
          "name": "receiver",
          "type": "address"
        },
        {
          "internalType": "uint256",
          "name": "shares",
          "type": "uint256"
        },
        {
          "internalType": "uint256",
          "name": "max",
          "type": "uint256"
        }
      ],
      "name": "ERC4626ExceededMaxMint",
      "type": "error"
    },
    {
      "inputs": [
        {
          "internalType": "address",
          "name": "owner",
          "type": "address"
        },
        {
          "internalType": "uint256",
          "name": "shares",
          "type": "uint256"
        },
        {
          "internalType": "uint256",
          "name": "max",
          "type": "uint256"
        }
      ],
      "name": "ERC4626ExceededMaxRedeem",
      "type": "error"
    },
    {
      "inputs": [
        {
          "internalType": "address",
          "name": "owner",
          "type": "address"
        },
        {
          "internalType": "uint256",
          "name": "assets",
          "type": "uint256"
        },
        {
          "internalType": "uint256",
          "name": "max",
          "type": "uint256"
        }
      ],
      "name": "ERC4626ExceededMaxWithdraw",
      "type": "error"
    },
    {
      "inputs": [],
      "name": "FailedInnerCall",
      "type": "error"
    },
    {
      "inputs": [
        {
          "internalType": "address",
          "name": "account",
          "type": "address"
        },
        {
          "internalType": "uint256",
          "name": "currentNonce",
          "type": "uint256"
        }
      ],
      "name": "InvalidAccountNonce",
      "type": "error"
    },
    {
      "inputs": [],
      "name": "InvalidShortString",
      "type": "error"
    },
    {
      "inputs": [],
      "name": "MathOverflowedMulDiv",
      "type": "error"
    },
    {
      "inputs": [],
      "name": "ReentrancyGuardReentrantCall",
      "type": "error"
    },
    {
      "inputs": [
        {
          "internalType": "int256",
          "name": "value",
          "type": "int256"
        }
      ],
      "name": "SafeCastOverflowedIntToUint",
      "type": "error"
    },
    {
      "inputs": [
        {
          "internalType": "uint8",
          "name": "bits",
          "type": "uint8"
        },
        {
          "internalType": "uint256",
          "name": "value",
          "type": "uint256"
        }
      ],
      "name": "SafeCastOverflowedUintDowncast",
      "type": "error"
    },
    {
      "inputs": [
        {
          "internalType": "uint256",
          "name": "value",
          "type": "uint256"
        }
      ],
      "name": "SafeCastOverflowedUintToInt",
      "type": "error"
    },
    {
      "inputs": [
        {
          "internalType": "address",
          "name": "token",
          "type": "address"
        }
      ],
      "name": "SafeERC20FailedOperation",
      "type": "error"
    },
    {
      "inputs": [
        {
          "internalType": "string",
          "name": "str",
          "type": "string"
        }
      ],
      "name": "StringTooLong",
      "type": "error"
    },
    {
      "anonymous": false,
      "inputs": [
        {
          "indexed": true,
          "internalType": "address",
          "name": "creditManager",
          "type": "address"
        }
      ],
      "name": "AddCreditManager",
      "type": "event"
    },
    {
      "anonymous": false,
      "inputs": [
        {
          "indexed": true,
          "internalType": "address",
          "name": "owner",
          "type": "address"
        },
        {
          "indexed": true,
          "internalType": "address",
          "name": "spender",
          "type": "address"
        },
        {
          "indexed": false,
          "internalType": "uint256",
          "name": "value",
          "type": "uint256"
        }
      ],
      "name": "Approval",
      "type": "event"
    },
    {
      "anonymous": false,
      "inputs": [
        {
          "indexed": true,
          "internalType": "address",
          "name": "creditManager",
          "type": "address"
        },
        {
          "indexed": true,
          "internalType": "address",
          "name": "creditAccount",
          "type": "address"
        },
        {
          "indexed": false,
          "internalType": "uint256",
          "name": "amount",
          "type": "uint256"
        }
      ],
      "name": "Borrow",
      "type": "event"
    },
    {
      "anonymous": false,
      "inputs": [
        {
          "indexed": true,
          "internalType": "address",
          "name": "sender",
          "type": "address"
        },
        {
          "indexed": true,
          "internalType": "address",
          "name": "owner",
          "type": "address"
        },
        {
          "indexed": false,
          "internalType": "uint256",
          "name": "assets",
          "type": "uint256"
        },
        {
          "indexed": false,
          "internalType": "uint256",
          "name": "shares",
          "type": "uint256"
        }
      ],
      "name": "Deposit",
      "type": "event"
    },
    {
      "anonymous": false,
      "inputs": [],
      "name": "EIP712DomainChanged",
      "type": "event"
    },
    {
      "anonymous": false,
      "inputs": [
        {
          "indexed": true,
          "internalType": "address",
          "name": "creditManager",
          "type": "address"
        },
        {
          "indexed": false,
          "internalType": "uint256",
          "name": "loss",
          "type": "uint256"
        }
      ],
      "name": "IncurUncoveredLoss",
      "type": "event"
    },
    {
      "anonymous": false,
      "inputs": [
        {
          "indexed": true,
          "internalType": "address",
          "name": "onBehalfOf",
          "type": "address"
        },
        {
          "indexed": true,
          "internalType": "uint256",
          "name": "referralCode",
          "type": "uint256"
        },
        {
          "indexed": false,
          "internalType": "uint256",
          "name": "amount",
          "type": "uint256"
        }
      ],
      "name": "Refer",
      "type": "event"
    },
    {
      "anonymous": false,
      "inputs": [
        {
          "indexed": true,
          "internalType": "address",
          "name": "creditManager",
          "type": "address"
        },
        {
          "indexed": false,
          "internalType": "uint256",
          "name": "borrowedAmount",
          "type": "uint256"
        },
        {
          "indexed": false,
          "internalType": "uint256",
          "name": "profit",
          "type": "uint256"
        },
        {
          "indexed": false,
          "internalType": "uint256",
          "name": "loss",
          "type": "uint256"
        }
      ],
      "name": "Repay",
      "type": "event"
    },
    {
      "anonymous": false,
      "inputs": [
        {
          "indexed": true,
          "internalType": "address",
          "name": "creditManager",
          "type": "address"
        },
        {
          "indexed": false,
          "internalType": "uint256",
          "name": "newLimit",
          "type": "uint256"
        }
      ],
      "name": "SetCreditManagerDebtLimit",
      "type": "event"
    },
    {
      "anonymous": false,
      "inputs": [
        {
          "indexed": true,
          "internalType": "address",
          "name": "newInterestRateModel",
          "type": "address"
        }
      ],
      "name": "SetInterestRateModel",
      "type": "event"
    },
    {
      "anonymous": false,
      "inputs": [
        {
          "indexed": true,
          "internalType": "address",
          "name": "newPoolQuotaKeeper",
          "type": "address"
        }
      ],
      "name": "SetPoolQuotaKeeper",
      "type": "event"
    },
    {
      "anonymous": false,
      "inputs": [
        {
          "indexed": false,
          "internalType": "uint256",
          "name": "limit",
          "type": "uint256"
        }
      ],
      "name": "SetTotalDebtLimit",
      "type": "event"
    },
    {
      "anonymous": false,
      "inputs": [
        {
          "indexed": false,
          "internalType": "uint256",
          "name": "fee",
          "type": "uint256"
        }
      ],
      "name": "SetWithdrawFee",
      "type": "event"
    },
    {
      "anonymous": false,
      "inputs": [
        {
          "indexed": true,
          "internalType": "address",
          "name": "from",
          "type": "address"
        },
        {
          "indexed": true,
          "internalType": "address",
          "name": "to",
          "type": "address"
        },
        {
          "indexed": false,
          "internalType": "uint256",
          "name": "value",
          "type": "uint256"
        }
      ],
      "name": "Transfer",
      "type": "event"
    },
    {
      "anonymous": false,
      "inputs": [
        {
          "indexed": true,
          "internalType": "address",
          "name": "sender",
          "type": "address"
        },
        {
          "indexed": true,
          "internalType": "address",
          "name": "receiver",
          "type": "address"
        },
        {
          "indexed": true,
          "internalType": "address",
          "name": "owner",
          "type": "address"
        },
        {
          "indexed": false,
          "internalType": "uint256",
          "name": "assets",
          "type": "uint256"
        },
        {
          "indexed": false,
          "internalType": "uint256",
          "name": "shares",
          "type": "uint256"
        }
      ],
      "name": "Withdraw",
      "type": "event"
    },
    {
      "inputs": [],
      "name": "DOMAIN_SEPARATOR",
      "outputs": [
        {
          "internalType": "bytes32",
          "name": "",
          "type": "bytes32"
        }
      ],
      "stateMutability": "view",
      "type": "function"
    },
    {
      "inputs": [],
      "name": "addressProvider",
      "outputs": [
        {
          "internalType": "address",
          "name": "",
          "type": "address"
        }
      ],
      "stateMutability": "view",
      "type": "function"
    },
    {
      "inputs": [
        {
          "internalType": "address",
          "name": "owner",
          "type": "address"
        },
        {
          "internalType": "address",
          "name": "spender",
          "type": "address"
        }
      ],
      "name": "allowance",
      "outputs": [
        {
          "internalType": "uint256",
          "name": "",
          "type": "uint256"
        }
      ],
      "stateMutability": "view",
      "type": "function"
    },
    {
      "inputs": [
        {
          "internalType": "address",
          "name": "spender",
          "type": "address"
        },
        {
          "internalType": "uint256",
          "name": "value",
          "type": "uint256"
        }
      ],
      "name": "approve",
      "outputs": [
        {
          "internalType": "bool",
          "name": "",
          "type": "bool"
        }
      ],
      "stateMutability": "nonpayable",
      "type": "function"
    },
    {
      "inputs": [],
      "name": "asset",
      "outputs": [
        {
          "internalType": "address",
          "name": "",
          "type": "address"
        }
      ],
      "stateMutability": "view",
      "type": "function"
    },
    {
      "inputs": [],
      "name": "availableLiquidity",
      "outputs": [
        {
          "internalType": "uint256",
          "name": "",
          "type": "uint256"
        }
      ],
      "stateMutability": "view",
      "type": "function"
    },
    {
      "inputs": [
        {
          "internalType": "address",
          "name": "account",
          "type": "address"
        }
      ],
      "name": "balanceOf",
      "outputs": [
        {
          "internalType": "uint256",
          "name": "",
          "type": "uint256"
        }
      ],
      "stateMutability": "view",
      "type": "function"
    },
    {
      "inputs": [],
      "name": "baseInterestIndex",
      "outputs": [
        {
          "internalType": "uint256",
          "name": "",
          "type": "uint256"
        }
      ],
      "stateMutability": "view",
      "type": "function"
    },
    {
      "inputs": [],
      "name": "baseInterestIndexLU",
      "outputs": [
        {
          "internalType": "uint256",
          "name": "",
          "type": "uint256"
        }
      ],
      "stateMutability": "view",
      "type": "function"
    },
    {
      "inputs": [],
      "name": "baseInterestRate",
      "outputs": [
        {
          "internalType": "uint256",
          "name": "",
          "type": "uint256"
        }
      ],
      "stateMutability": "view",
      "type": "function"
    },
    {
      "inputs": [
        {
          "internalType": "uint256",
          "name": "shares",
          "type": "uint256"
        }
      ],
      "name": "convertToAssets",
      "outputs": [
        {
          "internalType": "uint256",
          "name": "",
          "type": "uint256"
        }
      ],
      "stateMutability": "view",
      "type": "function"
    },
    {
      "inputs": [
        {
          "internalType": "uint256",
          "name": "assets",
          "type": "uint256"
        }
      ],
      "name": "convertToShares",
      "outputs": [
        {
          "internalType": "uint256",
          "name": "",
          "type": "uint256"
        }
      ],
      "stateMutability": "view",
      "type": "function"
    },
    {
      "inputs": [
        {
          "internalType": "address",
          "name": "creditManager",
          "type": "address"
        }
      ],
      "name": "creditManagerBorrowable",
      "outputs": [
        {
          "internalType": "uint256",
          "name": "borrowable",
          "type": "uint256"
        }
      ],
      "stateMutability": "view",
      "type": "function"
    },
    {
      "inputs": [
        {
          "internalType": "address",
          "name": "creditManager",
          "type": "address"
        }
      ],
      "name": "creditManagerBorrowed",
      "outputs": [
        {
          "internalType": "uint256",
          "name": "",
          "type": "uint256"
        }
      ],
      "stateMutability": "view",
      "type": "function"
    },
    {
      "inputs": [
        {
          "internalType": "address",
          "name": "creditManager",
          "type": "address"
        }
      ],
      "name": "creditManagerDebtLimit",
      "outputs": [
        {
          "internalType": "uint128",
          "name": "",
          "type": "uint128"
        }
      ],
      "stateMutability": "view",
      "type": "function"
    },
    {
      "inputs": [],
      "name": "creditManagers",
      "outputs": [
        {
          "internalType": "address[]",
          "name": "",
          "type": "address[]"
        }
      ],
      "stateMutability": "view",
      "type": "function"
    },
    {
      "inputs": [],
      "name": "decimals",
      "outputs": [
        {
          "internalType": "uint8",
          "name": "",
          "type": "uint8"
        }
      ],
      "stateMutability": "view",
      "type": "function"
    },
    {
      "inputs": [
        {
          "internalType": "uint256",
          "name": "assets",
          "type": "uint256"
        },
        {
          "internalType": "address",
          "name": "receiver",
          "type": "address"
        }
      ],
      "name": "deposit",
      "outputs": [
        {
          "internalType": "uint256",
          "name": "shares",
          "type": "uint256"
        }
      ],
      "stateMutability": "nonpayable",
      "type": "function"
    },
    {
      "inputs": [
        {
          "internalType": "uint256",
          "name": "assets",
          "type": "uint256"
        },
        {
          "internalType": "address",
          "name": "receiver",
          "type": "address"
        },
        {
          "internalType": "uint256",
          "name": "referralCode",
          "type": "uint256"
        }
      ],
      "name": "depositWithReferral",
      "outputs": [
        {
          "internalType": "uint256",
          "name": "shares",
          "type": "uint256"
        }
      ],
      "stateMutability": "nonpayable",
      "type": "function"
    },
    {
      "inputs": [],
      "name": "eip712Domain",
      "outputs": [
        {
          "internalType": "bytes1",
          "name": "fields",
          "type": "bytes1"
        },
        {
          "internalType": "string",
          "name": "name",
          "type": "string"
        },
        {
          "internalType": "string",
          "name": "version",
          "type": "string"
        },
        {
          "internalType": "uint256",
          "name": "chainId",
          "type": "uint256"
        },
        {
          "internalType": "address",
          "name": "verifyingContract",
          "type": "address"
        },
        {
          "internalType": "bytes32",
          "name": "salt",
          "type": "bytes32"
        },
        {
          "internalType": "uint256[]",
          "name": "extensions",
          "type": "uint256[]"
        }
      ],
      "stateMutability": "view",
      "type": "function"
    },
    {
      "inputs": [],
      "name": "expectedLiquidity",
      "outputs": [
        {
          "internalType": "uint256",
          "name": "",
          "type": "uint256"
        }
      ],
      "stateMutability": "view",
      "type": "function"
    },
    {
      "inputs": [],
      "name": "expectedLiquidityLU",
      "outputs": [
        {
          "internalType": "uint256",
          "name": "",
          "type": "uint256"
        }
      ],
      "stateMutability": "view",
      "type": "function"
    },
    {
      "inputs": [],
      "name": "interestRateModel",
      "outputs": [
        {
          "internalType": "address",
          "name": "",
          "type": "address"
        }
      ],
      "stateMutability": "view",
      "type": "function"
    },
    {
      "inputs": [],
      "name": "lastBaseInterestUpdate",
      "outputs": [
        {
          "internalType": "uint40",
          "name": "",
          "type": "uint40"
        }
      ],
      "stateMutability": "view",
      "type": "function"
    },
    {
      "inputs": [],
      "name": "lastQuotaRevenueUpdate",
      "outputs": [
        {
          "internalType": "uint40",
          "name": "",
          "type": "uint40"
        }
      ],
      "stateMutability": "view",
      "type": "function"
    },
    {
      "inputs": [
        {
          "internalType": "uint256",
          "name": "borrowedAmount",
          "type": "uint256"
        },
        {
          "internalType": "address",
          "name": "creditAccount",
          "type": "address"
        }
      ],
      "name": "lendCreditAccount",
      "outputs": [],
      "stateMutability": "nonpayable",
      "type": "function"
    },
    {
      "inputs": [
        {
          "internalType": "address",
          "name": "",
          "type": "address"
        }
      ],
      "name": "maxDeposit",
      "outputs": [
        {
          "internalType": "uint256",
          "name": "",
          "type": "uint256"
        }
      ],
      "stateMutability": "view",
      "type": "function"
    },
    {
      "inputs": [],
      "name": "maxDeposit",
      "outputs": [
        {
          "internalType": "uint256",
          "name": "",
          "type": "uint256"
        }
      ],
      "stateMutability": "view",
      "type": "function"
    },
    {
      "inputs": [
        {
          "internalType": "address",
          "name": "",
          "type": "address"
        }
      ],
      "name": "maxMint",
      "outputs": [
        {
          "internalType": "uint256",
          "name": "",
          "type": "uint256"
        }
      ],
      "stateMutability": "view",
      "type": "function"
    },
    {
      "inputs": [
        {
          "internalType": "address",
          "name": "owner",
          "type": "address"
        }
      ],
      "name": "maxRedeem",
      "outputs": [
        {
          "internalType": "uint256",
          "name": "",
          "type": "uint256"
        }
      ],
      "stateMutability": "view",
      "type": "function"
    },
    {
      "inputs": [
        {
          "internalType": "address",
          "name": "owner",
          "type": "address"
        }
      ],
      "name": "maxWithdraw",
      "outputs": [
        {
          "internalType": "uint256",
          "name": "",
          "type": "uint256"
        }
      ],
      "stateMutability": "view",
      "type": "function"
    },
    {
      "inputs": [
        {
          "internalType": "uint256",
          "name": "shares",
          "type": "uint256"
        },
        {
          "internalType": "address",
          "name": "receiver",
          "type": "address"
        }
      ],
      "name": "mint",
      "outputs": [
        {
          "internalType": "uint256",
          "name": "assets",
          "type": "uint256"
        }
      ],
      "stateMutability": "nonpayable",
      "type": "function"
    },
    {
      "inputs": [
        {
          "internalType": "uint256",
          "name": "shares",
          "type": "uint256"
        },
        {
          "internalType": "address",
          "name": "receiver",
          "type": "address"
        },
        {
          "internalType": "uint256",
          "name": "referralCode",
          "type": "uint256"
        }
      ],
      "name": "mintWithReferral",
      "outputs": [
        {
          "internalType": "uint256",
          "name": "assets",
          "type": "uint256"
        }
      ],
      "stateMutability": "nonpayable",
      "type": "function"
    },
    {
      "inputs": [],
      "name": "name",
      "outputs": [
        {
          "internalType": "string",
          "name": "",
          "type": "string"
        }
      ],
      "stateMutability": "view",
      "type": "function"
    },
    {
      "inputs": [
        {
          "internalType": "address",
          "name": "owner",
          "type": "address"
        }
      ],
      "name": "nonces",
      "outputs": [
        {
          "internalType": "uint256",
          "name": "",
          "type": "uint256"
        }
      ],
      "stateMutability": "view",
      "type": "function"
    },
    {
      "inputs": [
        {
          "internalType": "address",
          "name": "owner",
          "type": "address"
        },
        {
          "internalType": "address",
          "name": "spender",
          "type": "address"
        },
        {
          "internalType": "uint256",
          "name": "value",
          "type": "uint256"
        },
        {
          "internalType": "uint256",
          "name": "deadline",
          "type": "uint256"
        },
        {
          "internalType": "uint8",
          "name": "v",
          "type": "uint8"
        },
        {
          "internalType": "bytes32",
          "name": "r",
          "type": "bytes32"
        },
        {
          "internalType": "bytes32",
          "name": "s",
          "type": "bytes32"
        }
      ],
      "name": "permit",
      "outputs": [],
      "stateMutability": "nonpayable",
      "type": "function"
    },
    {
      "inputs": [],
      "name": "poolQuotaKeeper",
      "outputs": [
        {
          "internalType": "address",
          "name": "",
          "type": "address"
        }
      ],
      "stateMutability": "view",
      "type": "function"
    },
    {
      "inputs": [
        {
          "internalType": "uint256",
          "name": "assets",
          "type": "uint256"
        }
      ],
      "name": "previewDeposit",
      "outputs": [
        {
          "internalType": "uint256",
          "name": "shares",
          "type": "uint256"
        }
      ],
      "stateMutability": "view",
      "type": "function"
    },
    {
      "inputs": [
        {
          "internalType": "uint256",
          "name": "shares",
          "type": "uint256"
        }
      ],
      "name": "previewMint",
      "outputs": [
        {
          "internalType": "uint256",
          "name": "",
          "type": "uint256"
        }
      ],
      "stateMutability": "view",
      "type": "function"
    },
    {
      "inputs": [
        {
          "internalType": "uint256",
          "name": "shares",
          "type": "uint256"
        }
      ],
      "name": "previewRedeem",
      "outputs": [
        {
          "internalType": "uint256",
          "name": "",
          "type": "uint256"
        }
      ],
      "stateMutability": "view",
      "type": "function"
    },
    {
      "inputs": [
        {
          "internalType": "uint256",
          "name": "assets",
          "type": "uint256"
        }
      ],
      "name": "previewWithdraw",
      "outputs": [
        {
          "internalType": "uint256",
          "name": "",
          "type": "uint256"
        }
      ],
      "stateMutability": "view",
      "type": "function"
    },
    {
      "inputs": [],
      "name": "quotaRevenue",
      "outputs": [
        {
          "internalType": "uint256",
          "name": "",
          "type": "uint256"
        }
      ],
      "stateMutability": "view",
      "type": "function"
    },
    {
      "inputs": [
        {
          "internalType": "uint256",
          "name": "shares",
          "type": "uint256"
        },
        {
          "internalType": "address",
          "name": "receiver",
          "type": "address"
        },
        {
          "internalType": "address",
          "name": "owner",
          "type": "address"
        }
      ],
      "name": "redeem",
      "outputs": [
        {
          "internalType": "uint256",
          "name": "assets",
          "type": "uint256"
        }
      ],
      "stateMutability": "nonpayable",
      "type": "function"
    },
    {
      "inputs": [
        {
          "internalType": "uint256",
          "name": "repaidAmount",
          "type": "uint256"
        },
        {
          "internalType": "uint256",
          "name": "profit",
          "type": "uint256"
        },
        {
          "internalType": "uint256",
          "name": "loss",
          "type": "uint256"
        }
      ],
      "name": "repayCreditAccount",
      "outputs": [],
      "stateMutability": "nonpayable",
      "type": "function"
    },
    {
      "inputs": [
        {
          "internalType": "address",
          "name": "creditManager",
          "type": "address"
        },
        {
          "internalType": "uint256",
          "name": "newLimit",
          "type": "uint256"
        }
      ],
      "name": "setCreditManagerDebtLimit",
      "outputs": [],
      "stateMutability": "nonpayable",
      "type": "function"
    },
    {
      "inputs": [
        {
          "internalType": "address",
          "name": "newInterestRateModel",
          "type": "address"
        }
      ],
      "name": "setInterestRateModel",
      "outputs": [],
      "stateMutability": "nonpayable",
      "type": "function"
    },
    {
      "inputs": [
        {
          "internalType": "address",
          "name": "newPoolQuotaKeeper",
          "type": "address"
        }
      ],
      "name": "setPoolQuotaKeeper",
      "outputs": [],
      "stateMutability": "nonpayable",
      "type": "function"
    },
    {
      "inputs": [
        {
          "internalType": "uint256",
          "name": "newQuotaRevenue",
          "type": "uint256"
        }
      ],
      "name": "setQuotaRevenue",
      "outputs": [],
      "stateMutability": "nonpayable",
      "type": "function"
    },
    {
      "inputs": [
        {
          "internalType": "uint256",
          "name": "newLimit",
          "type": "uint256"
        }
      ],
      "name": "setTotalDebtLimit",
      "outputs": [],
      "stateMutability": "nonpayable",
      "type": "function"
    },
    {
      "inputs": [
        {
          "internalType": "uint256",
          "name": "newWithdrawFee",
          "type": "uint256"
        }
      ],
      "name": "setWithdrawFee",
      "outputs": [],
      "stateMutability": "nonpayable",
      "type": "function"
    },
    {
      "inputs": [],
      "name": "supplyRate",
      "outputs": [
        {
          "internalType": "uint256",
          "name": "",
          "type": "uint256"
        }
      ],
      "stateMutability": "view",
      "type": "function"
    },
    {
      "inputs": [],
      "name": "symbol",
      "outputs": [
        {
          "internalType": "string",
          "name": "",
          "type": "string"
        }
      ],
      "stateMutability": "view",
      "type": "function"
    },
    {
      "inputs": [],
      "name": "totalAssets",
      "outputs": [
        {
          "internalType": "uint256",
          "name": "assets",
          "type": "uint256"
        }
      ],
      "stateMutability": "view",
      "type": "function"
    },
    {
      "inputs": [],
      "name": "totalBorrowed",
      "outputs": [
        {
          "internalType": "uint256",
          "name": "",
          "type": "uint256"
        }
      ],
      "stateMutability": "view",
      "type": "function"
    },
    {
      "inputs": [],
      "name": "totalDebtLimit",
      "outputs": [
        {
          "internalType": "uint128",
          "name": "",
          "type": "uint128"
        }
      ],
      "stateMutability": "view",
      "type": "function"
    },
    {
      "inputs": [],
      "name": "totalSupply",
      "outputs": [
        {
          "internalType": "uint256",
          "name": "",
          "type": "uint256"
        }
      ],
      "stateMutability": "view",
      "type": "function"
    },
    {
      "inputs": [
        {
          "internalType": "address",
          "name": "to",
          "type": "address"
        },
        {
          "internalType": "uint256",
          "name": "value",
          "type": "uint256"
        }
      ],
      "name": "transfer",
      "outputs": [
        {
          "internalType": "bool",
          "name": "",
          "type": "bool"
        }
      ],
      "stateMutability": "nonpayable",
      "type": "function"
    },
    {
      "inputs": [
        {
          "internalType": "address",
          "name": "from",
          "type": "address"
        },
        {
          "internalType": "address",
          "name": "to",
          "type": "address"
        },
        {
          "internalType": "uint256",
          "name": "value",
          "type": "uint256"
        }
      ],
      "name": "transferFrom",
      "outputs": [
        {
          "internalType": "bool",
          "name": "",
          "type": "bool"
        }
      ],
      "stateMutability": "nonpayable",
      "type": "function"
    },
    {
      "inputs": [],
      "name": "treasury",
      "outputs": [
        {
          "internalType": "address",
          "name": "",
          "type": "address"
        }
      ],
      "stateMutability": "view",
      "type": "function"
    },
    {
      "inputs": [],
      "name": "underlyingToken",
      "outputs": [
        {
          "internalType": "address",
          "name": "",
          "type": "address"
        }
      ],
      "stateMutability": "view",
      "type": "function"
    },
    {
      "inputs": [
        {
          "internalType": "int256",
          "name": "quotaRevenueDelta",
          "type": "int256"
        }
      ],
      "name": "updateQuotaRevenue",
      "outputs": [],
      "stateMutability": "nonpayable",
      "type": "function"
    },
    {
      "inputs": [
        {
          "internalType": "uint256",
          "name": "assets",
          "type": "uint256"
        },
        {
          "internalType": "address",
          "name": "receiver",
          "type": "address"
        },
        {
          "internalType": "address",
          "name": "owner",
          "type": "address"
        }
      ],
      "name": "withdraw",
      "outputs": [
        {
          "internalType": "uint256",
          "name": "shares",
          "type": "uint256"
        }
      ],
      "stateMutability": "nonpayable",
      "type": "function"
    },
    {
      "inputs": [],
      "name": "withdrawFee",
      "outputs": [
        {
          "internalType": "uint16",
          "name": "",
          "type": "uint16"
        }
      ],
      "stateMutability": "view",
      "type": "function"
    }
  ],
  "bytecode": "0x6102006040523480156200001257600080fd5b506040516200586a3803806200586a833981810160405281019062000038919062000886565b81806040518060400160405280600181526020017f3100000000000000000000000000000000000000000000000000000000000000815250878585816003908162000084919062000bab565b50806004908162000096919062000bab565b505050600080620000ad836200033360201b60201c565b9150915081620000bf576012620000c1565b805b60ff1660a08160ff16815250508273ffffffffffffffffffffffffffffffffffffffff1660808173ffffffffffffffffffffffffffffffffffffffff16815250505050506200011b6005836200044d60201b90919060201c565b6101608181525050620001396006826200044d60201b90919060201c565b610180818152505081805190602001206101208181525050808051906020012061014081815250504660e0818152505062000179620004a560201b60201c565b60c081815250503073ffffffffffffffffffffffffffffffffffffffff166101008173ffffffffffffffffffffffffffffffffffffffff168152505050505060016008819055508573ffffffffffffffffffffffffffffffffffffffff166101a08173ffffffffffffffffffffffffffffffffffffffff16815250508473ffffffffffffffffffffffffffffffffffffffff166101c08173ffffffffffffffffffffffffffffffffffffffff168152505042600960146101000a81548164ffffffffff021916908364ffffffffff1602179055506b033b2e3c9fd0803ce8000000600b60106101000a8154816fffffffffffffffffffffffffffffffff02191690836fffffffffffffffffffffffffffffffff16021790555083600960006101000a81548173ffffffffffffffffffffffffffffffffffffffff021916908373ffffffffffffffffffffffffffffffffffffffff1602179055508373ffffffffffffffffffffffffffffffffffffffff167f60d671e95013fc5fd0cf35d947791aa49209ad86fccf748e0b126f3f9f0a83ba60405160405180910390a262000327836200050360201b60201c565b50505050505062000f58565b6000806000808473ffffffffffffffffffffffffffffffffffffffff1660405160240160405160208183030381529060405263313ce56760e01b6020820180517bffffffffffffffffffffffffffffffffffffffffffffffffffffffff8381831617835250505050604051620003aa919062000cdf565b600060405180830381855afa9150503d8060008114620003e7576040519150601f19603f3d011682016040523d82523d6000602084013e620003ec565b606091505b50915091508180156200040157506020815110155b156200043e576000818060200190518101906200041f919062000d29565b905060ff801681116200043c576001819450945050505062000448565b505b6000809350935050505b915091565b600060208351101562000473576200046b83620005ca60201b60201c565b90506200049f565b8262000485836200063760201b60201c565b600001908162000496919062000bab565b5060ff60001b90505b92915050565b60007f8b73c3c69bb8fe3d512ecc4cf759cc79239f7b179b0ffacaa9a75d522b39400f61012051610140514630604051602001620004e895949392919062000d98565b60405160208183030381529060405280519060200120905090565b600d60000160109054906101000a90046fffffffffffffffffffffffffffffffff166fffffffffffffffffffffffffffffffff16816fffffffffffffffffffffffffffffffff160315620005c75780600d60000160106101000a8154816fffffffffffffffffffffffffffffffff02191690836fffffffffffffffffffffffffffffffff1602179055507f9154a5b15c38625466fe66233214f14f17fd994f819818caf08017b94d0787ba81604051620005be919062000e2e565b60405180910390a15b50565b600080829050601f815111156200061a57826040517f305a27a900000000000000000000000000000000000000000000000000000000815260040162000611919062000e9d565b60405180910390fd5b805181620006289062000ee8565b60001c1760001b915050919050565b6000819050919050565b6000604051905090565b600080fd5b600080fd5b600073ffffffffffffffffffffffffffffffffffffffff82169050919050565b6000620006828262000655565b9050919050565b620006948162000675565b8114620006a057600080fd5b50565b600081519050620006b48162000689565b92915050565b60006fffffffffffffffffffffffffffffffff82169050919050565b620006e181620006ba565b8114620006ed57600080fd5b50565b6000815190506200070181620006d6565b92915050565b600080fd5b600080fd5b6000601f19601f8301169050919050565b7f4e487b7100000000000000000000000000000000000000000000000000000000600052604160045260246000fd5b6200075c8262000711565b810181811067ffffffffffffffff821117156200077e576200077d62000722565b5b80604052505050565b60006200079362000641565b9050620007a1828262000751565b919050565b600067ffffffffffffffff821115620007c457620007c362000722565b5b620007cf8262000711565b9050602081019050919050565b60005b83811015620007fc578082015181840152602081019050620007df565b60008484015250505050565b60006200081f6200081984620007a6565b62000787565b9050828152602081018484840111156200083e576200083d6200070c565b5b6200084b848285620007dc565b509392505050565b600082601f8301126200086b576200086a62000707565b5b81516200087d84826020860162000808565b91505092915050565b60008060008060008060c08789031215620008a657620008a56200064b565b5b6000620008b689828a01620006a3565b9650506020620008c989828a01620006a3565b9550506040620008dc89828a01620006a3565b9450506060620008ef89828a01620006f0565b935050608087015167ffffffffffffffff81111562000913576200091262000650565b5b6200092189828a0162000853565b92505060a087015167ffffffffffffffff81111562000945576200094462000650565b5b6200095389828a0162000853565b9150509295509295509295565b600081519050919050565b7f4e487b7100000000000000000000000000000000000000000000000000000000600052602260045260246000fd5b60006002820490506001821680620009b357607f821691505b602082108103620009c957620009c86200096b565b5b50919050565b60008190508160005260206000209050919050565b60006020601f8301049050919050565b600082821b905092915050565b60006008830262000a337fffffffffffffffffffffffffffffffffffffffffffffffffffffffffffffffff82620009f4565b62000a3f8683620009f4565b95508019841693508086168417925050509392505050565b6000819050919050565b6000819050919050565b600062000a8c62000a8662000a808462000a57565b62000a61565b62000a57565b9050919050565b6000819050919050565b62000aa88362000a6b565b62000ac062000ab78262000a93565b84845462000a01565b825550505050565b600090565b62000ad762000ac8565b62000ae481848462000a9d565b505050565b5b8181101562000b0c5762000b0060008262000acd565b60018101905062000aea565b5050565b601f82111562000b5b5762000b2581620009cf565b62000b3084620009e4565b8101602085101562000b40578190505b62000b5862000b4f85620009e4565b83018262000ae9565b50505b505050565b600082821c905092915050565b600062000b806000198460080262000b60565b1980831691505092915050565b600062000b9b838362000b6d565b9150826002028217905092915050565b62000bb68262000960565b67ffffffffffffffff81111562000bd25762000bd162000722565b5b62000bde82546200099a565b62000beb82828562000b10565b600060209050601f83116001811462000c23576000841562000c0e578287015190505b62000c1a858262000b8d565b86555062000c8a565b601f19841662000c3386620009cf565b60005b8281101562000c5d5784890151825560018201915060208501945060208101905062000c36565b8683101562000c7d578489015162000c79601f89168262000b6d565b8355505b6001600288020188555050505b505050505050565b600081519050919050565b600081905092915050565b600062000cb58262000c92565b62000cc1818562000c9d565b935062000cd3818560208601620007dc565b80840191505092915050565b600062000ced828462000ca8565b915081905092915050565b62000d038162000a57565b811462000d0f57600080fd5b50565b60008151905062000d238162000cf8565b92915050565b60006020828403121562000d425762000d416200064b565b5b600062000d528482850162000d12565b91505092915050565b6000819050919050565b62000d708162000d5b565b82525050565b62000d818162000a57565b82525050565b62000d928162000675565b82525050565b600060a08201905062000daf600083018862000d65565b62000dbe602083018762000d65565b62000dcd604083018662000d65565b62000ddc606083018562000d76565b62000deb608083018462000d87565b9695505050505050565b600062000e1662000e1062000e0a84620006ba565b62000a61565b62000a57565b9050919050565b62000e288162000df5565b82525050565b600060208201905062000e45600083018462000e1d565b92915050565b600082825260208201905092915050565b600062000e698262000960565b62000e75818562000e4b565b935062000e87818560208601620007dc565b62000e928162000711565b840191505092915050565b6000602082019050818103600083015262000eb9818462000e5c565b905092915050565b6000819050602082019050919050565b600062000edf825162000d5b565b80915050919050565b600062000ef58262000c92565b8262000f018462000ec1565b905062000f0e8162000ed1565b9250602082101562000f515762000f4c7fffffffffffffffffffffffffffffffffffffffffffffffffffffffffffffffff83602003600802620009f4565b831692505b5050919050565b60805160a05160c05160e05161010051610120516101405161016051610180516101a0516101c0516101e051614864620010066000396000610fcc015260008181610e4a015281816110900152818161183d01528181612113015261238101526000610e81015260006122d30152600061229801526000612d8601526000612d65015260006120070152600061205d0152600061208601526000611fd501526000610ec501526148646000f3fe608060405234801561001057600080fd5b50600436106103c55760003560e01c806388ae7842116101ff578063c63d75b61161011a578063d905777e116100ad578063ef8b30f71161007c578063ef8b30f714610c56578063f3fdb15a14610c86578063faaba9e214610ca4578063fe14112d14610cc2576103c5565b8063d905777e14610bba578063dac5443114610bea578063dd62ed3e14610c08578063e941fa7814610c38576103c5565b8063ce96cb77116100e9578063ce96cb7714610b22578063d505accf14610b52578063d6458eea14610b6e578063d7337c2e14610b8a576103c5565b8063c63d75b614610a88578063c6e6f59214610ab8578063c8c9866214610ae8578063ca9505e414610b06576103c5565b8063b0df2c6611610192578063b6ac642a11610161578063b6ac642a14610a02578063ba08765214610a1e578063be8da14b14610a4e578063bf28068b14610a6c576103c5565b8063b0df2c6614610942578063b3d4543314610972578063b3d7f6b9146109a2578063b460af94146109d2576103c5565b8063a74d4910116101ce578063a74d4910146108b8578063a9059cbb146108d6578063ad2961a314610906578063afd9276214610924576103c5565b806388ae7842146108305780638bcd40161461084e57806394bf804d1461086a57806395d89b411461089a576103c5565b806338d52e0f116102ef5780636e553f65116102825780637a99c017116102515780637a99c017146107905780637ecebe00146107c057806384b0196e146107f0578063871d726814610814576103c5565b80636e553f65146106f657806370a0823114610726578063743753591461075657806379e4e3a914610774576103c5565b80635a6952e4116102be5780635a6952e41461067e5780636083e59a1461069c57806361d027b3146106ba5780636b88245b146106d8576103c5565b806338d52e0f146105e2578063402d267d146106005780634c19386c146106305780634cdad5061461064e576103c5565b8063183ace9011610367578063275df3ad11610336578063275df3ad1461056c5780632954018c14610588578063313ce567146105a65780633644e515146105c4576103c5565b8063183ace90146104e45780631ab7c7d71461050257806323b872dd1461051e5780632495a5991461054e576103c5565b8063095ea7b3116103a3578063095ea7b3146104365780630a28a47714610466578063136a68331461049657806318160ddd146104c6576103c5565b806301e1d114146103ca57806306fdde03146103e857806307a2d13a14610406575b600080fd5b6103d2610ce0565b6040516103df9190613858565b60405180910390f35b6103f0610cef565b6040516103fd9190613903565b60405180910390f35b610420600480360381019061041b9190613956565b610d81565b60405161042d9190613858565b60405180910390f35b610450600480360381019061044b91906139e1565b610d95565b60405161045d9190613a3c565b60405180910390f35b610480600480360381019061047b9190613956565b610db8565b60405161048d9190613858565b60405180910390f35b6104b060048036038101906104ab9190613a57565b610ddc565b6040516104bd9190613858565b60405180910390f35b6104ce610de3565b6040516104db9190613858565b60405180910390f35b6104ec610ded565b6040516104f99190613aaf565b60405180910390f35b61051c60048036038101906105179190613a57565b610e16565b005b61053860048036038101906105339190613aca565b610e19565b6040516105459190613a3c565b60405180910390f35b610556610e48565b6040516105639190613b2c565b60405180910390f35b61058660048036038101906105819190613956565b610e6c565b005b610590610e7f565b60405161059d9190613b2c565b60405180910390f35b6105ae610ea3565b6040516105bb9190613b63565b60405180910390f35b6105cc610eb2565b6040516105d99190613b97565b60405180910390f35b6105ea610ec1565b6040516105f79190613b2c565b60405180910390f35b61061a60048036038101906106159190613a57565b610ee9565b6040516106279190613858565b60405180910390f35b610638610f13565b6040516106459190613858565b60405180910390f35b61066860048036038101906106639190613956565b610f4e565b6040516106759190613858565b60405180910390f35b610686610f72565b6040516106939190613858565b60405180910390f35b6106a4610fa2565b6040516106b19190613858565b60405180910390f35b6106c2610fca565b6040516106cf9190613b2c565b60405180910390f35b6106e0610fee565b6040516106ed9190613bd2565b60405180910390f35b610710600480360381019061070b9190613bed565b611005565b60405161071d9190613858565b60405180910390f35b610740600480360381019061073b9190613a57565b611044565b60405161074d9190613858565b60405180910390f35b61075e61108c565b60405161076b9190613858565b60405180910390f35b61078e600480360381019061078991906139e1565b61112d565b005b6107aa60048036038101906107a59190613a57565b611200565b6040516107b79190613858565b60405180910390f35b6107da60048036038101906107d59190613a57565b61127a565b6040516107e79190613858565b60405180910390f35b6107f861128c565b60405161080b9796959493929190613d26565b60405180910390f35b61082e60048036038101906108299190613956565b611336565b005b610838611339565b6040516108459190613bd2565b60405180910390f35b61086860048036038101906108639190613a57565b611350565b005b610884600480360381019061087f9190613bed565b611353565b6040516108919190613858565b60405180910390f35b6108a2611392565b6040516108af9190613903565b60405180910390f35b6108c0611424565b6040516108cd9190613858565b60405180910390f35b6108f060048036038101906108eb91906139e1565b61145c565b6040516108fd9190613a3c565b60405180910390f35b61090e61147f565b60405161091b9190613858565b60405180910390f35b61092c611484565b6040516109399190613858565b60405180910390f35b61095c60048036038101906109579190613a57565b6114bc565b6040516109699190613aaf565b60405180910390f35b61098c60048036038101906109879190613daa565b611524565b6040516109999190613858565b60405180910390f35b6109bc60048036038101906109b79190613956565b61152d565b6040516109c99190613858565b60405180910390f35b6109ec60048036038101906109e79190613dfd565b611549565b6040516109f99190613858565b60405180910390f35b610a1c6004803603810190610a179190613956565b611599565b005b610a386004803603810190610a339190613dfd565b61159c565b604051610a459190613858565b60405180910390f35b610a566115ec565b604051610a639190613b2c565b60405180910390f35b610a866004803603810190610a819190613bed565b611612565b005b610aa26004803603810190610a9d9190613a57565b6118f6565b604051610aaf9190613858565b60405180910390f35b610ad26004803603810190610acd9190613956565b611920565b604051610adf9190613858565b60405180910390f35b610af0611934565b604051610afd9190613858565b60405180910390f35b610b206004803603810190610b1b9190613e50565b61196c565b005b610b3c6004803603810190610b379190613a57565b611981565b604051610b499190613858565b60405180910390f35b610b6c6004803603810190610b679190613efb565b6119bd565b005b610b886004803603810190610b839190613fd3565b611b05565b005b610ba46004803603810190610b9f9190613daa565b611b18565b604051610bb19190613858565b60405180910390f35b610bd46004803603810190610bcf9190613a57565b611b21565b604051610be19190613858565b60405180910390f35b610bf2611b4d565b604051610bff91906140be565b60405180910390f35b610c226004803603810190610c1d91906140e0565b611b5e565b604051610c2f9190613858565b60405180910390f35b610c40611be5565b604051610c4d919061413d565b60405180910390f35b610c706004803603810190610c6b9190613956565b611bf9565b604051610c7d9190613858565b60405180910390f35b610c8e611c15565b604051610c9b9190613b2c565b60405180910390f35b610cac611c3b565b604051610cb99190613858565b60405180910390f35b610cca611cab565b604051610cd79190613858565b60405180910390f35b6000610cea611cab565b905090565b606060038054610cfe90614187565b80601f0160208091040260200160405190810160405280929190818152602001828054610d2a90614187565b8015610d775780601f10610d4c57610100808354040283529160200191610d77565b820191906000526020600020905b815481529060010190602001808311610d5a57829003601f168201915b5050505050905090565b6000610d8e826000611cf5565b9050919050565b600080610da0611d38565b9050610dad818585611d40565b600191505092915050565b6000610dd5610dce610dc984611d52565b611d5c565b6001611da3565b9050919050565b6000919050565b6000600254905090565b6000600d60000160109054906101000a90046fffffffffffffffffffffffffffffffff16905090565b50565b600080610e24611d38565b9050610e31858285611df1565b610e3c858585611e85565b60019150509392505050565b7f000000000000000000000000000000000000000000000000000000000000000081565b610e74611f79565b610e7c611fbf565b50565b7f000000000000000000000000000000000000000000000000000000000000000081565b6000610ead611fc9565b905090565b6000610ebc612003565b905090565b60007f0000000000000000000000000000000000000000000000000000000000000000905090565b60007fffffffffffffffffffffffffffffffffffffffffffffffffffffffffffffffff9050919050565b6000600d60000160009054906101000a90046fffffffffffffffffffffffffffffffff166fffffffffffffffffffffffffffffffff16905090565b6000610f6b610f66610f61846000611cf5565b6120ba565b612101565b9050919050565b6000600a60149054906101000a90046bffffffffffffffffffffffff166bffffffffffffffffffffffff16905090565b60007fffffffffffffffffffffffffffffffffffffffffffffffffffffffffffffffff905090565b7f000000000000000000000000000000000000000000000000000000000000000081565b600960149054906101000a900464ffffffffff1681565b600061100f611f79565b600061101a84612101565b9050611027816000611da3565b91506110358385838561210b565b5061103e611fbf565b92915050565b60008060008373ffffffffffffffffffffffffffffffffffffffff1673ffffffffffffffffffffffffffffffffffffffff168152602001908152602001600020549050919050565b60007f000000000000000000000000000000000000000000000000000000000000000073ffffffffffffffffffffffffffffffffffffffff166370a08231306040518263ffffffff1660e01b81526004016110e79190613b2c565b602060405180830381865afa158015611104573d6000803e3d6000fd5b505050506040513d601f19601f8201168201806040525081019061112891906141cd565b905090565b611136816121e2565b600e60008473ffffffffffffffffffffffffffffffffffffffff1673ffffffffffffffffffffffffffffffffffffffff16815260200190815260200160002060000160106101000a8154816fffffffffffffffffffffffffffffffff02191690836fffffffffffffffffffffffffffffffff1602179055508173ffffffffffffffffffffffffffffffffffffffff167fce20e043afe93acdab0352023688eb8da23cdfd33d80471cce1e6c9239662bcd826040516111f49190613858565b60405180910390a25050565b6000600e60008373ffffffffffffffffffffffffffffffffffffffff1673ffffffffffffffffffffffffffffffffffffffff16815260200190815260200160002060000160009054906101000a90046fffffffffffffffffffffffffffffffff166fffffffffffffffffffffffffffffffff169050919050565b600061128582612246565b9050919050565b6000606080600080600060606112a061228f565b6112a86122ca565b46306000801b600067ffffffffffffffff8111156112c9576112c86141fa565b5b6040519080825280602002602001820160405280156112f75781602001602082028036833780820191505090505b507f0f00000000000000000000000000000000000000000000000000000000000000959493929190965096509650965096509650965090919293949596565b50565b600960199054906101000a900464ffffffffff1681565b50565b600061135d611f79565b600061136a846001611cf5565b905061137581611d52565b91506113838383838761210b565b5061138c611fbf565b92915050565b6060600480546113a190614187565b80601f01602080910402602001604051908101604052809291908181526020018280546113cd90614187565b801561141a5780601f106113ef5761010080835404028352916020019161141a565b820191906000526020600020905b8154815290600101906020018083116113fd57829003601f168201915b5050505050905090565b6000600b60109054906101000a90046fffffffffffffffffffffffffffffffff166fffffffffffffffffffffffffffffffff16905090565b600080611467611d38565b9050611474818585611e85565b600191505092915050565b600090565b6000600b60009054906101000a90046fffffffffffffffffffffffffffffffff166fffffffffffffffffffffffffffffffff16905090565b6000600e60008373ffffffffffffffffffffffffffffffffffffffff1673ffffffffffffffffffffffffffffffffffffffff16815260200190815260200160002060000160109054906101000a90046fffffffffffffffffffffffffffffffff169050919050565b60009392505050565b600061154261153d836001611cf5565b611d52565b9050919050565b6000611553611f79565b600061155e85611d52565b9050600061156b82611d5c565b9050611578816001611da3565b9250611588858583898688612305565b5050611592611fbf565b9392505050565b50565b60006115a6611f79565b60006115b3856000611cf5565b905060006115c0826120ba565b90506115cb81612101565b92506115db85858486858b612305565b50506115e5611fbf565b9392505050565b600a60009054906101000a900473ffffffffffffffffffffffffffffffffffffffff1681565b61161a611f79565b6000611625836121e2565b90506000600e60003373ffffffffffffffffffffffffffffffffffffffff1673ffffffffffffffffffffffffffffffffffffffff1681526020019081526020016000209050600082600d60000160009054906101000a90046fffffffffffffffffffffffffffffffff166116999190614258565b90506000838360000160009054906101000a90046fffffffffffffffffffffffffffffffff166116c99190614258565b9050600086148061171d57508260000160109054906101000a90046fffffffffffffffffffffffffffffffff166fffffffffffffffffffffffffffffffff16816fffffffffffffffffffffffffffffffff16115b8061176c5750600d60000160109054906101000a90046fffffffffffffffffffffffffffffffff166fffffffffffffffffffffffffffffffff16826fffffffffffffffffffffffffffffffff16115b156117a3576040517f9abfd95000000000000000000000000000000000000000000000000000000000815260040160405180910390fd5b6117bf60006117b18861244b565b6117ba9061429c565b6124ba565b808360000160006101000a8154816fffffffffffffffffffffffffffffffff02191690836fffffffffffffffffffffffffffffffff16021790555081600d60000160006101000a8154816fffffffffffffffffffffffffffffffff02191690836fffffffffffffffffffffffffffffffff16021790555061188185877f000000000000000000000000000000000000000000000000000000000000000073ffffffffffffffffffffffffffffffffffffffff166126c19092919063ffffffff16565b8473ffffffffffffffffffffffffffffffffffffffff163373ffffffffffffffffffffffffffffffffffffffff167f312a5e5e1079f5dda4e95dbbd0b908b291fd5b992ef22073643ab691572c5b52886040516118de9190613858565b60405180910390a3505050506118f2611fbf565b5050565b60007fffffffffffffffffffffffffffffffffffffffffffffffffffffffffffffffff9050919050565b600061192d826000611da3565b9050919050565b6000600c60009054906101000a90046fffffffffffffffffffffffffffffffff166fffffffffffffffffffffffffffffffff16905090565b611974611f79565b61197c611fbf565b505050565b60006119b66119b16119ac61199461108c565b6119a76119a087611044565b6000611cf5565b612740565b6120ba565b612101565b9050919050565b83421115611a0257836040517f627913020000000000000000000000000000000000000000000000000000000081526004016119f99190613858565b60405180910390fd5b60007f6e71edae12b1b97f4d1f60370fef10105fa2faae0126114a169c64845d6126c9888888611a318c612759565b89604051602001611a47969594939291906142e4565b6040516020818303038152906040528051906020012090506000611a6a826127b0565b90506000611a7a828787876127ca565b90508973ffffffffffffffffffffffffffffffffffffffff168173ffffffffffffffffffffffffffffffffffffffff1614611aee57808a6040517f4b800e46000000000000000000000000000000000000000000000000000000008152600401611ae5929190614345565b60405180910390fd5b611af98a8a8a611d40565b50505050505050505050565b611b0d611f79565b611b15611fbf565b50565b60009392505050565b6000611b46611b2f83611044565b611b41611b3a61108c565b6000611da3565b612740565b9050919050565b6060611b59600f6127fa565b905090565b6000600160008473ffffffffffffffffffffffffffffffffffffffff1673ffffffffffffffffffffffffffffffffffffffff16815260200190815260200160002060008373ffffffffffffffffffffffffffffffffffffffff1673ffffffffffffffffffffffffffffffffffffffff16815260200190815260200160002054905092915050565b6009601e9054906101000a900461ffff1681565b6000611c0e611c0783612101565b6000611da3565b9050919050565b600960009054906101000a900473ffffffffffffffffffffffffffffffffffffffff1681565b600080600960149054906101000a900464ffffffffff1664ffffffffff169050804203611c9b57600b60109054906101000a90046fffffffffffffffffffffffffffffffff166fffffffffffffffffffffffffffffffff16915050611ca8565b611ca48161281b565b9150505b90565b6000611cb56128a7565b600c60009054906101000a90046fffffffffffffffffffffffffffffffff166fffffffffffffffffffffffffffffffff16611cf0919061436e565b905090565b600080611d00610de3565b905060008114611d2d57611d28611d15610ce0565b8285876128e8909392919063ffffffff16565b611d2f565b835b91505092915050565b600033905090565b611d4d838383600161293f565b505050565b6000819050919050565b60006009601e9054906101000a900461ffff16612710611d7c91906143a2565b61ffff1661271061ffff1683611d9291906143d8565b611d9c9190614449565b9050919050565b600080611dae610de3565b90506000841480611dbf5750600081145b611de657611de181611dcf610ce0565b85876128e8909392919063ffffffff16565b611de8565b835b91505092915050565b6000611dfd8484611b5e565b90507fffffffffffffffffffffffffffffffffffffffffffffffffffffffffffffffff8114611e7f5781811015611e6f578281836040517ffb8f41b2000000000000000000000000000000000000000000000000000000008152600401611e669392919061447a565b60405180910390fd5b611e7e8484848403600061293f565b5b50505050565b600073ffffffffffffffffffffffffffffffffffffffff168373ffffffffffffffffffffffffffffffffffffffff1603611ef75760006040517f96c6fd1e000000000000000000000000000000000000000000000000000000008152600401611eee9190613b2c565b60405180910390fd5b600073ffffffffffffffffffffffffffffffffffffffff168273ffffffffffffffffffffffffffffffffffffffff1603611f695760006040517fec442f05000000000000000000000000000000000000000000000000000000008152600401611f609190613b2c565b60405180910390fd5b611f74838383612b16565b505050565b600260085403611fb5576040517f3ee5aeb500000000000000000000000000000000000000000000000000000000815260040160405180910390fd5b6002600881905550565b6001600881905550565b6000611fd3612d3b565b7f0000000000000000000000000000000000000000000000000000000000000000611ffe91906144b1565b905090565b60007f000000000000000000000000000000000000000000000000000000000000000073ffffffffffffffffffffffffffffffffffffffff163073ffffffffffffffffffffffffffffffffffffffff1614801561207f57507f000000000000000000000000000000000000000000000000000000000000000046145b156120ac577f000000000000000000000000000000000000000000000000000000000000000090506120b7565b6120b4612d40565b90505b90565b600061271061ffff166009601e9054906101000a900461ffff166127106120e191906143a2565b61ffff16836120f091906143d8565b6120fa9190614449565b9050919050565b6000819050919050565b6121583330857f000000000000000000000000000000000000000000000000000000000000000073ffffffffffffffffffffffffffffffffffffffff16612dd6909392919063ffffffff16565b61216b6121648361244b565b60006124ba565b6121758482612e58565b8373ffffffffffffffffffffffffffffffffffffffff163373ffffffffffffffffffffffffffffffffffffffff167fdcbc1c05240f31ff3ad067ef1ee35ce4997762752e3a095284754544f4c709d785846040516121d49291906144e6565b60405180910390a350505050565b60006fffffffffffffffffffffffffffffffff801682111561223e576080826040517f6dfcc650000000000000000000000000000000000000000000000000000000008152600401612235929190614554565b60405180910390fd5b819050919050565b6000600760008373ffffffffffffffffffffffffffffffffffffffff1673ffffffffffffffffffffffffffffffffffffffff168152602001908152602001600020549050919050565b60606122c560057f0000000000000000000000000000000000000000000000000000000000000000612eda90919063ffffffff16565b905090565b606061230060067f0000000000000000000000000000000000000000000000000000000000000000612eda90919063ffffffff16565b905090565b8473ffffffffffffffffffffffffffffffffffffffff163373ffffffffffffffffffffffffffffffffffffffff161461234457612343853383611df1565b5b61234e8582612f8a565b61237a61235a8561244b565b6123639061429c565b61236c8661244b565b6123759061429c565b6124ba565b6123c586837f000000000000000000000000000000000000000000000000000000000000000073ffffffffffffffffffffffffffffffffffffffff166126c19092919063ffffffff16565b8473ffffffffffffffffffffffffffffffffffffffff168673ffffffffffffffffffffffffffffffffffffffff163373ffffffffffffffffffffffffffffffffffffffff167ffbde797d201c681b91056529119e0b02407c7bb96a4a2c75c01fc9667232c8db868560405161243b9291906144e6565b60405180910390a4505050505050565b60007f7fffffffffffffffffffffffffffffffffffffffffffffffffffffffffffffff8211156124b257816040517f24775e060000000000000000000000000000000000000000000000000000000081526004016124a99190613858565b60405180910390fd5b819050919050565b60006124df836124d06124cb611cab565b61244b565b6124da919061457d565b61300c565b90506000612506836124f76124f261108c565b61244b565b612501919061457d565b61300c565b90506000600960149054906101000a900464ffffffffff1664ffffffffff16905080421461259b5761253f61253a8261281b565b6121e2565b600b60106101000a8154816fffffffffffffffffffffffffffffffff02191690836fffffffffffffffffffffffffffffffff16021790555042600960146101000a81548164ffffffffff021916908364ffffffffff1602179055505b6125a4836121e2565b600c60006101000a8154816fffffffffffffffffffffffffffffffff02191690836fffffffffffffffffffffffffffffffff160217905550612682600960009054906101000a900473ffffffffffffffffffffffffffffffffffffffff1673ffffffffffffffffffffffffffffffffffffffff166342568d4485856040518363ffffffff1660e01b815260040161263c9291906144e6565b602060405180830381865afa158015612659573d6000803e3d6000fd5b505050506040513d601f19601f8201168201806040525081019061267d91906141cd565b6121e2565b600b60006101000a8154816fffffffffffffffffffffffffffffffff02191690836fffffffffffffffffffffffffffffffff1602179055505050505050565b61273b838473ffffffffffffffffffffffffffffffffffffffff1663a9059cbb85856040516024016126f49291906145c1565b604051602081830303815290604052915060e01b6020820180517bffffffffffffffffffffffffffffffffffffffffffffffffffffffff838183161783525050505061305b565b505050565b600081831061274f5781612751565b825b905092915050565b6000600760008373ffffffffffffffffffffffffffffffffffffffff1673ffffffffffffffffffffffffffffffffffffffff1681526020019081526020016000206000815480929190600101919050559050919050565b60006127c36127bd612003565b836130f2565b9050919050565b6000806000806127dc88888888613133565b9250925092506127ec8282613227565b829350505050949350505050565b6060600061280a8360000161338b565b905060608190508092505050919050565b60006b033b2e3c9fd0803ce800000061284483612836611484565b6133e790919063ffffffff16565b6b033b2e3c9fd0803ce800000061285b919061436e565b600b60109054906101000a90046fffffffffffffffffffffffffffffffff166fffffffffffffffffffffffffffffffff1661289691906143d8565b6128a09190614449565b9050919050565b600080600960149054906101000a900464ffffffffff1664ffffffffff1690508042036128d85760009150506128e5565b6128e181613417565b9150505b90565b6000806128f686868661348f565b905061290183613596565b801561291e5750600084806129195761291861441a565b5b868809115b1561293357600181612930919061436e565b90505b80915050949350505050565b600073ffffffffffffffffffffffffffffffffffffffff168473ffffffffffffffffffffffffffffffffffffffff16036129b15760006040517fe602df050000000000000000000000000000000000000000000000000000000081526004016129a89190613b2c565b60405180910390fd5b600073ffffffffffffffffffffffffffffffffffffffff168373ffffffffffffffffffffffffffffffffffffffff1603612a235760006040517f94280d62000000000000000000000000000000000000000000000000000000008152600401612a1a9190613b2c565b60405180910390fd5b81600160008673ffffffffffffffffffffffffffffffffffffffff1673ffffffffffffffffffffffffffffffffffffffff16815260200190815260200160002060008573ffffffffffffffffffffffffffffffffffffffff1673ffffffffffffffffffffffffffffffffffffffff168152602001908152602001600020819055508015612b10578273ffffffffffffffffffffffffffffffffffffffff168473ffffffffffffffffffffffffffffffffffffffff167f8c5be1e5ebec7d5bd14f71427d1e84f3dd0314c0f7b2291e5b200ac8c7c3b92584604051612b079190613858565b60405180910390a35b50505050565b600073ffffffffffffffffffffffffffffffffffffffff168373ffffffffffffffffffffffffffffffffffffffff1603612b68578060026000828254612b5c919061436e565b92505081905550612c3b565b60008060008573ffffffffffffffffffffffffffffffffffffffff1673ffffffffffffffffffffffffffffffffffffffff16815260200190815260200160002054905081811015612bf4578381836040517fe450d38c000000000000000000000000000000000000000000000000000000008152600401612beb9392919061447a565b60405180910390fd5b8181036000808673ffffffffffffffffffffffffffffffffffffffff1673ffffffffffffffffffffffffffffffffffffffff16815260200190815260200160002081905550505b600073ffffffffffffffffffffffffffffffffffffffff168273ffffffffffffffffffffffffffffffffffffffff1603612c845780600260008282540392505081905550612cd1565b806000808473ffffffffffffffffffffffffffffffffffffffff1673ffffffffffffffffffffffffffffffffffffffff168152602001908152602001600020600082825401925050819055505b8173ffffffffffffffffffffffffffffffffffffffff168373ffffffffffffffffffffffffffffffffffffffff167fddf252ad1be2c89b69c2b068fc378daa952ba7f163c4a11628f55a4df523b3ef83604051612d2e9190613858565b60405180910390a3505050565b600090565b60007f8b73c3c69bb8fe3d512ecc4cf759cc79239f7b179b0ffacaa9a75d522b39400f7f00000000000000000000000000000000000000000000000000000000000000007f00000000000000000000000000000000000000000000000000000000000000004630604051602001612dbb9594939291906145ea565b60405160208183030381529060405280519060200120905090565b612e52848573ffffffffffffffffffffffffffffffffffffffff166323b872dd868686604051602401612e0b9392919061463d565b604051602081830303815290604052915060e01b6020820180517bffffffffffffffffffffffffffffffffffffffffffffffffffffffff838183161783525050505061305b565b50505050565b600073ffffffffffffffffffffffffffffffffffffffff168273ffffffffffffffffffffffffffffffffffffffff1603612eca5760006040517fec442f05000000000000000000000000000000000000000000000000000000008152600401612ec19190613b2c565b60405180910390fd5b612ed660008383612b16565b5050565b606060ff60001b8314612ef757612ef0836135c4565b9050612f84565b818054612f0390614187565b80601f0160208091040260200160405190810160405280929190818152602001828054612f2f90614187565b8015612f7c5780601f10612f5157610100808354040283529160200191612f7c565b820191906000526020600020905b815481529060010190602001808311612f5f57829003601f168201915b505050505090505b92915050565b600073ffffffffffffffffffffffffffffffffffffffff168273ffffffffffffffffffffffffffffffffffffffff1603612ffc5760006040517f96c6fd1e000000000000000000000000000000000000000000000000000000008152600401612ff39190613b2c565b60405180910390fd5b61300882600083612b16565b5050565b60008082121561305357816040517fa8ce443200000000000000000000000000000000000000000000000000000000815260040161304a9190614683565b60405180910390fd5b819050919050565b6000613086828473ffffffffffffffffffffffffffffffffffffffff1661363890919063ffffffff16565b905060008151141580156130ab5750808060200190518101906130a991906146ca565b155b156130ed57826040517f5274afe70000000000000000000000000000000000000000000000000000000081526004016130e49190613b2c565b60405180910390fd5b505050565b60006040517f190100000000000000000000000000000000000000000000000000000000000081528360028201528260228201526042812091505092915050565b60008060007f7fffffffffffffffffffffffffffffff5d576e7357a4501ddfe92f46681b20a08460001c111561317357600060038592509250925061321d565b60006001888888886040516000815260200160405260405161319894939291906146f7565b6020604051602081039080840390855afa1580156131ba573d6000803e3d6000fd5b505050602060405103519050600073ffffffffffffffffffffffffffffffffffffffff168173ffffffffffffffffffffffffffffffffffffffff160361320e57600060016000801b9350935093505061321d565b8060008060001b935093509350505b9450945094915050565b6000600381111561323b5761323a61473c565b5b82600381111561324e5761324d61473c565b5b031561338757600160038111156132685761326761473c565b5b82600381111561327b5761327a61473c565b5b036132b2576040517ff645eedf00000000000000000000000000000000000000000000000000000000815260040160405180910390fd5b600260038111156132c6576132c561473c565b5b8260038111156132d9576132d861473c565b5b0361331e578060001c6040517ffce698f70000000000000000000000000000000000000000000000000000000081526004016133159190613858565b60405180910390fd5b6003808111156133315761333061473c565b5b8260038111156133445761334361473c565b5b0361338657806040517fd78bce0c00000000000000000000000000000000000000000000000000000000815260040161337d9190613b97565b60405180910390fd5b5b5050565b6060816000018054806020026020016040519081016040528092919081815260200182805480156133db57602002820191906000526020600020905b8154815260200190600101908083116133c7575b50505050509050919050565b60006301e1338082426133fa919061476b565b8461340591906143d8565b61340f9190614449565b905092915050565b60006b033b2e3c9fd0803ce800000061344083613432611484565b6133e790919063ffffffff16565b600d60000160009054906101000a90046fffffffffffffffffffffffffffffffff166fffffffffffffffffffffffffffffffff1661347e91906143d8565b6134889190614449565b9050919050565b60008083850290506000801985870982811083820303915050600081036134ca578382816134c0576134bf61441a565b5b049250505061358f565b808411613503576040517f227bc15300000000000000000000000000000000000000000000000000000000815260040160405180910390fd5b600084868809905082811182039150808303925060008560000386169050808604955080840493506001818260000304019050808302841793506000600287600302189050808702600203810290508087026002038102905080870260020381029050808702600203810290508087026002038102905080870260020381029050808502955050505050505b9392505050565b6000600160028360038111156135af576135ae61473c565b5b6135b9919061479f565b60ff16149050919050565b606060006135d18361364e565b90506000602067ffffffffffffffff8111156135f0576135ef6141fa565b5b6040519080825280601f01601f1916602001820160405280156136225781602001600182028036833780820191505090505b5090508181528360208201528092505050919050565b60606136468383600061369e565b905092915050565b60008060ff8360001c169050601f811115613695576040517fb3512b0c00000000000000000000000000000000000000000000000000000000815260040160405180910390fd5b80915050919050565b6060814710156136e557306040517fcd7860590000000000000000000000000000000000000000000000000000000081526004016136dc9190613b2c565b60405180910390fd5b6000808573ffffffffffffffffffffffffffffffffffffffff16848660405161370e9190614817565b60006040518083038185875af1925050503d806000811461374b576040519150601f19603f3d011682016040523d82523d6000602084013e613750565b606091505b509150915061376086838361376b565b925050509392505050565b6060826137805761377b826137fa565b6137f2565b600082511480156137a8575060008473ffffffffffffffffffffffffffffffffffffffff163b145b156137ea57836040517f9996b3150000000000000000000000000000000000000000000000000000000081526004016137e19190613b2c565b60405180910390fd5b8190506137f3565b5b9392505050565b60008151111561380d5780518082602001fd5b6040517f1425ea4200000000000000000000000000000000000000000000000000000000815260040160405180910390fd5b6000819050919050565b6138528161383f565b82525050565b600060208201905061386d6000830184613849565b92915050565b600081519050919050565b600082825260208201905092915050565b60005b838110156138ad578082015181840152602081019050613892565b60008484015250505050565b6000601f19601f8301169050919050565b60006138d582613873565b6138df818561387e565b93506138ef81856020860161388f565b6138f8816138b9565b840191505092915050565b6000602082019050818103600083015261391d81846138ca565b905092915050565b600080fd5b6139338161383f565b811461393e57600080fd5b50565b6000813590506139508161392a565b92915050565b60006020828403121561396c5761396b613925565b5b600061397a84828501613941565b91505092915050565b600073ffffffffffffffffffffffffffffffffffffffff82169050919050565b60006139ae82613983565b9050919050565b6139be816139a3565b81146139c957600080fd5b50565b6000813590506139db816139b5565b92915050565b600080604083850312156139f8576139f7613925565b5b6000613a06858286016139cc565b9250506020613a1785828601613941565b9150509250929050565b60008115159050919050565b613a3681613a21565b82525050565b6000602082019050613a516000830184613a2d565b92915050565b600060208284031215613a6d57613a6c613925565b5b6000613a7b848285016139cc565b91505092915050565b60006fffffffffffffffffffffffffffffffff82169050919050565b613aa981613a84565b82525050565b6000602082019050613ac46000830184613aa0565b92915050565b600080600060608486031215613ae357613ae2613925565b5b6000613af1868287016139cc565b9350506020613b02868287016139cc565b9250506040613b1386828701613941565b9150509250925092565b613b26816139a3565b82525050565b6000602082019050613b416000830184613b1d565b92915050565b600060ff82169050919050565b613b5d81613b47565b82525050565b6000602082019050613b786000830184613b54565b92915050565b6000819050919050565b613b9181613b7e565b82525050565b6000602082019050613bac6000830184613b88565b92915050565b600064ffffffffff82169050919050565b613bcc81613bb2565b82525050565b6000602082019050613be76000830184613bc3565b92915050565b60008060408385031215613c0457613c03613925565b5b6000613c1285828601613941565b9250506020613c23858286016139cc565b9150509250929050565b60007fff0000000000000000000000000000000000000000000000000000000000000082169050919050565b613c6281613c2d565b82525050565b600081519050919050565b600082825260208201905092915050565b6000819050602082019050919050565b613c9d8161383f565b82525050565b6000613caf8383613c94565b60208301905092915050565b6000602082019050919050565b6000613cd382613c68565b613cdd8185613c73565b9350613ce883613c84565b8060005b83811015613d19578151613d008882613ca3565b9750613d0b83613cbb565b925050600181019050613cec565b5085935050505092915050565b600060e082019050613d3b600083018a613c59565b8181036020830152613d4d81896138ca565b90508181036040830152613d6181886138ca565b9050613d706060830187613849565b613d7d6080830186613b1d565b613d8a60a0830185613b88565b81810360c0830152613d9c8184613cc8565b905098975050505050505050565b600080600060608486031215613dc357613dc2613925565b5b6000613dd186828701613941565b9350506020613de2868287016139cc565b9250506040613df386828701613941565b9150509250925092565b600080600060608486031215613e1657613e15613925565b5b6000613e2486828701613941565b9350506020613e35868287016139cc565b9250506040613e46868287016139cc565b9150509250925092565b600080600060608486031215613e6957613e68613925565b5b6000613e7786828701613941565b9350506020613e8886828701613941565b9250506040613e9986828701613941565b9150509250925092565b613eac81613b47565b8114613eb757600080fd5b50565b600081359050613ec981613ea3565b92915050565b613ed881613b7e565b8114613ee357600080fd5b50565b600081359050613ef581613ecf565b92915050565b600080600080600080600060e0888a031215613f1a57613f19613925565b5b6000613f288a828b016139cc565b9750506020613f398a828b016139cc565b9650506040613f4a8a828b01613941565b9550506060613f5b8a828b01613941565b9450506080613f6c8a828b01613eba565b93505060a0613f7d8a828b01613ee6565b92505060c0613f8e8a828b01613ee6565b91505092959891949750929550565b6000819050919050565b613fb081613f9d565b8114613fbb57600080fd5b50565b600081359050613fcd81613fa7565b92915050565b600060208284031215613fe957613fe8613925565b5b6000613ff784828501613fbe565b91505092915050565b600081519050919050565b600082825260208201905092915050565b6000819050602082019050919050565b614035816139a3565b82525050565b6000614047838361402c565b60208301905092915050565b6000602082019050919050565b600061406b82614000565b614075818561400b565b93506140808361401c565b8060005b838110156140b1578151614098888261403b565b97506140a383614053565b925050600181019050614084565b5085935050505092915050565b600060208201905081810360008301526140d88184614060565b905092915050565b600080604083850312156140f7576140f6613925565b5b6000614105858286016139cc565b9250506020614116858286016139cc565b9150509250929050565b600061ffff82169050919050565b61413781614120565b82525050565b6000602082019050614152600083018461412e565b92915050565b7f4e487b7100000000000000000000000000000000000000000000000000000000600052602260045260246000fd5b6000600282049050600182168061419f57607f821691505b6020821081036141b2576141b1614158565b5b50919050565b6000815190506141c78161392a565b92915050565b6000602082840312156141e3576141e2613925565b5b60006141f1848285016141b8565b91505092915050565b7f4e487b7100000000000000000000000000000000000000000000000000000000600052604160045260246000fd5b7f4e487b7100000000000000000000000000000000000000000000000000000000600052601160045260246000fd5b600061426382613a84565b915061426e83613a84565b925082820190506fffffffffffffffffffffffffffffffff81111561429657614295614229565b5b92915050565b60006142a782613f9d565b91507f800000000000000000000000000000000000000000000000000000000000000082036142d9576142d8614229565b5b816000039050919050565b600060c0820190506142f96000830189613b88565b6143066020830188613b1d565b6143136040830187613b1d565b6143206060830186613849565b61432d6080830185613849565b61433a60a0830184613849565b979650505050505050565b600060408201905061435a6000830185613b1d565b6143676020830184613b1d565b9392505050565b60006143798261383f565b91506143848361383f565b925082820190508082111561439c5761439b614229565b5b92915050565b60006143ad82614120565b91506143b883614120565b9250828203905061ffff8111156143d2576143d1614229565b5b92915050565b60006143e38261383f565b91506143ee8361383f565b92508282026143fc8161383f565b9150828204841483151761441357614412614229565b5b5092915050565b7f4e487b7100000000000000000000000000000000000000000000000000000000600052601260045260246000fd5b60006144548261383f565b915061445f8361383f565b92508261446f5761446e61441a565b5b828204905092915050565b600060608201905061448f6000830186613b1d565b61449c6020830185613849565b6144a96040830184613849565b949350505050565b60006144bc82613b47565b91506144c783613b47565b9250828201905060ff8111156144e0576144df614229565b5b92915050565b60006040820190506144fb6000830185613849565b6145086020830184613849565b9392505050565b6000819050919050565b6000819050919050565b600061453e6145396145348461450f565b614519565b613b47565b9050919050565b61454e81614523565b82525050565b60006040820190506145696000830185614545565b6145766020830184613849565b9392505050565b600061458882613f9d565b915061459383613f9d565b9250828201905082811215600083121683821260008412151617156145bb576145ba614229565b5b92915050565b60006040820190506145d66000830185613b1d565b6145e36020830184613849565b9392505050565b600060a0820190506145ff6000830188613b88565b61460c6020830187613b88565b6146196040830186613b88565b6146266060830185613849565b6146336080830184613b1d565b9695505050505050565b60006060820190506146526000830186613b1d565b61465f6020830185613b1d565b61466c6040830184613849565b949350505050565b61467d81613f9d565b82525050565b60006020820190506146986000830184614674565b92915050565b6146a781613a21565b81146146b257600080fd5b50565b6000815190506146c48161469e565b92915050565b6000602082840312156146e0576146df613925565b5b60006146ee848285016146b5565b91505092915050565b600060808201905061470c6000830187613b88565b6147196020830186613b54565b6147266040830185613b88565b6147336060830184613b88565b95945050505050565b7f4e487b7100000000000000000000000000000000000000000000000000000000600052602160045260246000fd5b60006147768261383f565b91506147818361383f565b925082820390508181111561479957614798614229565b5b92915050565b60006147aa82613b47565b91506147b583613b47565b9250826147c5576147c461441a565b5b828206905092915050565b600081519050919050565b600081905092915050565b60006147f1826147d0565b6147fb81856147db565b935061480b81856020860161388f565b80840191505092915050565b600061482382846147e6565b91508190509291505056fea2646970667358221220107b40ba34a000c2f83f64ec9687915b3110e6a2e1a4e8a1504041a1ac5a69a964736f6c63430008180033",
  "linkReferences": {},
  "deployedLinkReferences": {}
}