{
  "_format": "hh-sol-artifact-1",
  "contractName": "AccountFactory",
  "sourceName": "contracts/core/AccountFactory.sol",
  "abi": [
    {
      "inputs": [],
      "stateMutability": "nonpayable",
      "type": "constructor"
    },
    {
      "inputs": [],
      "name": "CallerNotCreditManagerException",
      "type": "error"
    },
    {
      "inputs": [],
      "name": "CreditAccountIsInUseException",
      "type": "error"
    },
    {
      "inputs": [],
      "name": "ERC1167FailedCreateClone",
      "type": "error"
    },
    {
      "inputs": [],
      "name": "MasterCreditAccountAlreadyDeployedException",
      "type": "error"
    },
    {
      "anonymous": false,
      "inputs": [
        {
          "indexed": true,
          "internalType": "address",
          "name": "creditManager",
          "type": "address"
        },
        {
          "indexed": false,
          "internalType": "address",
          "name": "masterCreditAccount",
          "type": "address"
        }
      ],
      "name": "AddCreditManager",
      "type": "event"
    },
    {
      "anonymous": false,
      "inputs": [
        {
          "indexed": true,
          "internalType": "address",
          "name": "creditAccount",
          "type": "address"
        },
        {
          "indexed": true,
          "internalType": "address",
          "name": "creditManager",
          "type": "address"
        }
      ],
      "name": "DeployCreditAccount",
      "type": "event"
    },
    {
      "anonymous": false,
      "inputs": [
        {
          "indexed": true,
          "internalType": "address",
          "name": "creditAccount",
          "type": "address"
        },
        {
          "indexed": true,
          "internalType": "address",
          "name": "creditManager",
          "type": "address"
        }
      ],
      "name": "ReturnCreditAccount",
      "type": "event"
    },
    {
      "anonymous": false,
      "inputs": [
        {
          "indexed": true,
          "internalType": "address",
          "name": "creditAccount",
          "type": "address"
        },
        {
          "indexed": true,
          "internalType": "address",
          "name": "creditManager",
          "type": "address"
        }
      ],
      "name": "TakeCreditAccount",
      "type": "event"
    },
    {
      "inputs": [
        {
          "internalType": "address",
          "name": "creditManager",
          "type": "address"
        }
      ],
      "name": "addCreditManager",
      "outputs": [],
      "stateMutability": "nonpayable",
      "type": "function"
    },
    {
      "inputs": [
        {
          "internalType": "address",
          "name": "creditAccount",
          "type": "address"
        }
      ],
      "name": "returnCreditAccount",
      "outputs": [],
      "stateMutability": "nonpayable",
      "type": "function"
    },
    {
      "inputs": [],
      "name": "takeCreditAccount",
      "outputs": [
        {
          "internalType": "address",
          "name": "creditAccount",
          "type": "address"
        }
      ],
      "stateMutability": "nonpayable",
      "type": "function"
    }
  ],
  "bytecode": "0x608060405234801561001057600080fd5b50611421806100206000396000f3fe608060405234801561001057600080fd5b50600436106100415760003560e01c806389b77b3e1461004657806395ad97f214610062578063e26b2f6314610080575b600080fd5b610060600480360381019061005b91906108e6565b61009c565b005b61006a6102e2565b6040516100779190610922565b60405180910390f35b61009a600480360381019061009591906108e6565b6105f4565b005b60008060003373ffffffffffffffffffffffffffffffffffffffff1673ffffffffffffffffffffffffffffffffffffffff1681526020019081526020016000209050600073ffffffffffffffffffffffffffffffffffffffff168160000160009054906101000a900473ffffffffffffffffffffffffffffffffffffffff1673ffffffffffffffffffffffffffffffffffffffff1603610168576040517f1f51116700000000000000000000000000000000000000000000000000000000815260040160405180910390fd5b60405180602001604052808373ffffffffffffffffffffffffffffffffffffffff16815250600160003373ffffffffffffffffffffffffffffffffffffffff1673ffffffffffffffffffffffffffffffffffffffff16815260200190815260200160002060008360000160199054906101000a900464ffffffffff1664ffffffffff16815260200190815260200160002060008201518160000160006101000a81548173ffffffffffffffffffffffffffffffffffffffff021916908373ffffffffffffffffffffffffffffffffffffffff16021790555090505080600001601981819054906101000a900464ffffffffff166102649061097d565b91906101000a81548164ffffffffff021916908364ffffffffff1602179055503373ffffffffffffffffffffffffffffffffffffffff168273ffffffffffffffffffffffffffffffffffffffff167fe8d6fd8171676387a50d82e1751b2f078b786ff0700ed1877049c66f5b150d8360405160405180910390a35050565b6000806000803373ffffffffffffffffffffffffffffffffffffffff1673ffffffffffffffffffffffffffffffffffffffff168152602001908152602001600020905060008160000160009054906101000a900473ffffffffffffffffffffffffffffffffffffffff169050600073ffffffffffffffffffffffffffffffffffffffff168173ffffffffffffffffffffffffffffffffffffffff16036103b4576040517f1f51116700000000000000000000000000000000000000000000000000000000815260040160405180910390fd5b60008260000160149054906101000a900464ffffffffff1664ffffffffff1690508260000160199054906101000a900464ffffffffff1664ffffffffff16810361046257610401826107c5565b93503373ffffffffffffffffffffffffffffffffffffffff168473ffffffffffffffffffffffffffffffffffffffff167fe1b644b6334c18193b2f9111182fd3cf0af58bf954cd9949a56ef6a486a120e160405160405180910390a3610594565b600160003373ffffffffffffffffffffffffffffffffffffffff1673ffffffffffffffffffffffffffffffffffffffff168152602001908152602001600020600082815260200190815260200160002060000160009054906101000a900473ffffffffffffffffffffffffffffffffffffffff169350600160003373ffffffffffffffffffffffffffffffffffffffff1673ffffffffffffffffffffffffffffffffffffffff1681526020019081526020016000206000828152602001908152602001600020600080820160006101000a81549073ffffffffffffffffffffffffffffffffffffffff0219169055505082600001601481819054906101000a900464ffffffffff166105739061097d565b91906101000a81548164ffffffffff021916908364ffffffffff1602179055505b3373ffffffffffffffffffffffffffffffffffffffff168473ffffffffffffffffffffffffffffffffffffffff167f98b5155c93d7cea03235a2f37b8da764be2e15649b032ccb5cbbfe61cd71629960405160405180910390a350505090565b600073ffffffffffffffffffffffffffffffffffffffff166000808373ffffffffffffffffffffffffffffffffffffffff1673ffffffffffffffffffffffffffffffffffffffff16815260200190815260200160002060000160009054906101000a900473ffffffffffffffffffffffffffffffffffffffff1673ffffffffffffffffffffffffffffffffffffffff16146106bb576040517fc8ed8adc00000000000000000000000000000000000000000000000000000000815260040160405180910390fd5b6000816040516106ca90610876565b6106d49190610922565b604051809103906000f0801580156106f0573d6000803e3d6000fd5b509050806000808473ffffffffffffffffffffffffffffffffffffffff1673ffffffffffffffffffffffffffffffffffffffff16815260200190815260200160002060000160006101000a81548173ffffffffffffffffffffffffffffffffffffffff021916908373ffffffffffffffffffffffffffffffffffffffff1602179055508173ffffffffffffffffffffffffffffffffffffffff167f837f8321879761d39749a08e7aaca7841729ada6ac050818f4c30b6c82560a29826040516107b99190610922565b60405180910390a25050565b6000763d602d80600a3d3981f3363d3d373d3d3d363d730000008260601b60e81c176000526e5af43d82803e903d91602b57fd5bf38260781b17602052603760096000f09050600073ffffffffffffffffffffffffffffffffffffffff168173ffffffffffffffffffffffffffffffffffffffff1603610871576040517fc2f868f400000000000000000000000000000000000000000000000000000000815260040160405180910390fd5b919050565b610a41806109ab83390190565b600080fd5b600073ffffffffffffffffffffffffffffffffffffffff82169050919050565b60006108b382610888565b9050919050565b6108c3816108a8565b81146108ce57600080fd5b50565b6000813590506108e0816108ba565b92915050565b6000602082840312156108fc576108fb610883565b5b600061090a848285016108d1565b91505092915050565b61091c816108a8565b82525050565b60006020820190506109376000830184610913565b92915050565b7f4e487b7100000000000000000000000000000000000000000000000000000000600052601160045260246000fd5b600064ffffffffff82169050919050565b60006109888261096c565b915064ffffffffff820361099f5761099e61093d565b5b60018201905091905056fe60c060405234801561001057600080fd5b50604051610a41380380610a4183398181016040528101906100329190610103565b8073ffffffffffffffffffffffffffffffffffffffff1660a08173ffffffffffffffffffffffffffffffffffffffff16815250503373ffffffffffffffffffffffffffffffffffffffff1660808173ffffffffffffffffffffffffffffffffffffffff168152505050610130565b600080fd5b600073ffffffffffffffffffffffffffffffffffffffff82169050919050565b60006100d0826100a5565b9050919050565b6100e0816100c5565b81146100eb57600080fd5b50565b6000815190506100fd816100d7565b92915050565b600060208284031215610119576101186100a0565b5b6000610127848285016100ee565b91505092915050565b60805160a0516108e561015c6000396000818161015b01526101db0152600061017f01526108e56000f3fe608060405234801561001057600080fd5b506004361061004c5760003560e01c80631cff79cd14610051578063c12c21c014610081578063c45a01551461009f578063d1660f99146100bd575b600080fd5b61006b600480360381019061006691906105fa565b6100d9565b60405161007891906106ea565b60405180910390f35b610089610159565b604051610096919061071b565b60405180910390f35b6100a761017d565b6040516100b4919061071b565b60405180910390f35b6100d760048036038101906100d2919061076c565b6101a1565b005b60606100e36101d9565b61015083838080601f016020809104026020016040519081016040528093929190818152602001838380828437600081840152601f19601f820116905080830192505050505050508573ffffffffffffffffffffffffffffffffffffffff1661026090919063ffffffff16565b90509392505050565b7f000000000000000000000000000000000000000000000000000000000000000081565b7f000000000000000000000000000000000000000000000000000000000000000081565b6101a96101d9565b6101d482828573ffffffffffffffffffffffffffffffffffffffff166102769092919063ffffffff16565b505050565b7f000000000000000000000000000000000000000000000000000000000000000073ffffffffffffffffffffffffffffffffffffffff163373ffffffffffffffffffffffffffffffffffffffff161461025e576040517f1f51116700000000000000000000000000000000000000000000000000000000815260040160405180910390fd5b565b606061026e838360006102f5565b905092915050565b6102f0838473ffffffffffffffffffffffffffffffffffffffff1663a9059cbb85856040516024016102a99291906107ce565b604051602081830303815290604052915060e01b6020820180517bffffffffffffffffffffffffffffffffffffffffffffffffffffffff83818316178352505050506103c2565b505050565b60608147101561033c57306040517fcd786059000000000000000000000000000000000000000000000000000000008152600401610333919061071b565b60405180910390fd5b6000808573ffffffffffffffffffffffffffffffffffffffff1684866040516103659190610833565b60006040518083038185875af1925050503d80600081146103a2576040519150601f19603f3d011682016040523d82523d6000602084013e6103a7565b606091505b50915091506103b7868383610459565b925050509392505050565b60006103ed828473ffffffffffffffffffffffffffffffffffffffff1661026090919063ffffffff16565b905060008151141580156104125750808060200190518101906104109190610882565b155b1561045457826040517f5274afe700000000000000000000000000000000000000000000000000000000815260040161044b919061071b565b60405180910390fd5b505050565b60608261046e57610469826104e8565b6104e0565b60008251148015610496575060008473ffffffffffffffffffffffffffffffffffffffff163b145b156104d857836040517f9996b3150000000000000000000000000000000000000000000000000000000081526004016104cf919061071b565b60405180910390fd5b8190506104e1565b5b9392505050565b6000815111156104fb5780518082602001fd5b6040517f1425ea4200000000000000000000000000000000000000000000000000000000815260040160405180910390fd5b600080fd5b600080fd5b600073ffffffffffffffffffffffffffffffffffffffff82169050919050565b600061056282610537565b9050919050565b61057281610557565b811461057d57600080fd5b50565b60008135905061058f81610569565b92915050565b600080fd5b600080fd5b600080fd5b60008083601f8401126105ba576105b9610595565b5b8235905067ffffffffffffffff8111156105d7576105d661059a565b5b6020830191508360018202830111156105f3576105f261059f565b5b9250929050565b6000806000604084860312156106135761061261052d565b5b600061062186828701610580565b935050602084013567ffffffffffffffff81111561064257610641610532565b5b61064e868287016105a4565b92509250509250925092565b600081519050919050565b600082825260208201905092915050565b60005b83811015610694578082015181840152602081019050610679565b60008484015250505050565b6000601f19601f8301169050919050565b60006106bc8261065a565b6106c68185610665565b93506106d6818560208601610676565b6106df816106a0565b840191505092915050565b6000602082019050818103600083015261070481846106b1565b905092915050565b61071581610557565b82525050565b6000602082019050610730600083018461070c565b92915050565b6000819050919050565b61074981610736565b811461075457600080fd5b50565b60008135905061076681610740565b92915050565b6000806000606084860312156107855761078461052d565b5b600061079386828701610580565b93505060206107a486828701610580565b92505060406107b586828701610757565b9150509250925092565b6107c881610736565b82525050565b60006040820190506107e3600083018561070c565b6107f060208301846107bf565b9392505050565b600081905092915050565b600061080d8261065a565b61081781856107f7565b9350610827818560208601610676565b80840191505092915050565b600061083f8284610802565b915081905092915050565b60008115159050919050565b61085f8161084a565b811461086a57600080fd5b50565b60008151905061087c81610856565b92915050565b6000602082840312156108985761089761052d565b5b60006108a68482850161086d565b9150509291505056fea2646970667358221220f3c82125796c7ed579f27729c40591982517c4ee7423b57f8a0369e9beb7842764736f6c63430008180033a26469706673582212200632e8d094a530f7b4b0a5125f3dd4c6e0a1ceba4dd7b88c45d189ae817fd8e864736f6c63430008180033",
  "linkReferences": {},
  "deployedLinkReferences": {}
}