{
  "_format": "hh-sol-artifact-1",
  "contractName": "AddressProvider",
  "sourceName": "contracts/core/AddressProvider.sol",
  "abi": [
    {
      "inputs": [],
      "name": "AddressNotFoundException",
      "type": "error"
    },
    {
      "inputs": [],
      "name": "CallerNotConfiguratorException",
      "type": "error"
    },
    {
      "anonymous": false,
      "inputs": [
        {
          "indexed": true,
          "internalType": "bytes32",
          "name": "key",
          "type": "bytes32"
        },
        {
          "indexed": true,
          "internalType": "address",
          "name": "value",
          "type": "address"
        }
      ],
      "name": "SetAddress",
      "type": "event"
    },
    {
      "inputs": [
        {
          "internalType": "bytes32",
          "name": "",
          "type": "bytes32"
        }
      ],
      "name": "addresses",
      "outputs": [
        {
          "internalType": "address",
          "name": "",
          "type": "address"
        }
      ],
      "stateMutability": "view",
      "type": "function"
    },
    {
      "inputs": [],
      "name": "getAccountFactory",
      "outputs": [
        {
          "internalType": "address",
          "name": "",
          "type": "address"
        }
      ],
      "stateMutability": "view",
      "type": "function"
    },
    {
      "inputs": [
        {
          "internalType": "bytes32",
          "name": "key",
          "type": "bytes32"
        }
      ],
      "name": "getAddressOrRevert",
      "outputs": [
        {
          "internalType": "address",
          "name": "result",
          "type": "address"
        }
      ],
      "stateMutability": "view",
      "type": "function"
    },
    {
      "inputs": [],
      "name": "getContractsRegister",
      "outputs": [
        {
          "internalType": "address",
          "name": "",
          "type": "address"
        }
      ],
      "stateMutability": "view",
      "type": "function"
    },
    {
      "inputs": [],
      "name": "getDataCompressor",
      "outputs": [
        {
          "internalType": "address",
          "name": "",
          "type": "address"
        }
      ],
      "stateMutability": "view",
      "type": "function"
    },
    {
      "inputs": [],
      "name": "getLeveragedActions",
      "outputs": [
        {
          "internalType": "address",
          "name": "",
          "type": "address"
        }
      ],
      "stateMutability": "view",
      "type": "function"
    },
    {
      "inputs": [],
      "name": "getPriceOracle",
      "outputs": [
        {
          "internalType": "address",
          "name": "",
          "type": "address"
        }
      ],
      "stateMutability": "view",
      "type": "function"
    },
    {
      "inputs": [],
      "name": "getTreasuryContract",
      "outputs": [
        {
          "internalType": "address",
          "name": "",
          "type": "address"
        }
      ],
      "stateMutability": "view",
      "type": "function"
    },
    {
      "inputs": [],
      "name": "getWETHGateway",
      "outputs": [
        {
          "internalType": "address",
          "name": "",
          "type": "address"
        }
      ],
      "stateMutability": "view",
      "type": "function"
    },
    {
      "inputs": [],
      "name": "getWethToken",
      "outputs": [
        {
          "internalType": "address",
          "name": "",
          "type": "address"
        }
      ],
      "stateMutability": "view",
      "type": "function"
    },
    {
      "inputs": [
        {
          "internalType": "bytes32",
          "name": "key",
          "type": "bytes32"
        },
        {
          "internalType": "address",
          "name": "value",
          "type": "address"
        }
      ],
      "name": "setAddress",
      "outputs": [],
      "stateMutability": "nonpayable",
      "type": "function"
    }
  ],
  "bytecode": "0x608060405234801561001057600080fd5b5061067c806100206000396000f3fe608060405234801561001057600080fd5b50600436106100a95760003560e01c806377532ed91161007157806377532ed9146101565780639068a86814610174578063c513c9bb14610192578063ca446dd9146101b0578063e395b6ca146101cc578063fca513a8146101fc576100a9565b8063060678c2146100ae57806326c74fc3146100cc57806344b88563146100ea5780634c252f9114610108578063699f200f14610126575b600080fd5b6100b661021a565b6040516100c39190610557565b60405180910390f35b6100d461024a565b6040516100e19190610557565b60405180910390f35b6100f261027a565b6040516100ff9190610557565b60405180910390f35b6101106102aa565b60405161011d9190610557565b60405180910390f35b610140600480360381019061013b91906105ad565b6102da565b60405161014d9190610557565b60405180910390f35b61015e61030d565b60405161016b9190610557565b60405180910390f35b61017c61033d565b6040516101899190610557565b60405180910390f35b61019a61036d565b6040516101a79190610557565b60405180910390f35b6101ca60048036038101906101c59190610606565b61039d565b005b6101e660048036038101906101e191906105ad565b6103ab565b6040516101f39190610557565b60405180910390f35b61020461044d565b6040516102119190610557565b60405180910390f35b60006102457f444154415f434f4d50524553534f5200000000000000000000000000000000006103ab565b905090565b60006102757f54524541535552590000000000000000000000000000000000000000000000006103ab565b905090565b60006102a57f524f5554455200000000000000000000000000000000000000000000000000006103ab565b905090565b60006102d57f574554485f544f4b454e000000000000000000000000000000000000000000006103ab565b905090565b60006020528060005260406000206000915054906101000a900473ffffffffffffffffffffffffffffffffffffffff1681565b60006103387f574554485f4741544557415900000000000000000000000000000000000000006103ab565b905090565b60006103687f4143434f554e545f464143544f525900000000000000000000000000000000006103ab565b905090565b60006103987f434f4e5452414354535f524547495354455200000000000000000000000000006103ab565b905090565b6103a7828261047d565b5050565b600080600083815260200190815260200160002060009054906101000a900473ffffffffffffffffffffffffffffffffffffffff169050600073ffffffffffffffffffffffffffffffffffffffff168173ffffffffffffffffffffffffffffffffffffffff1603610448576040517faf58e23c00000000000000000000000000000000000000000000000000000000815260040160405180910390fd5b919050565b60006104787f50524943455f4f5241434c4500000000000000000000000000000000000000006103ab565b905090565b8060008084815260200190815260200160002060006101000a81548173ffffffffffffffffffffffffffffffffffffffff021916908373ffffffffffffffffffffffffffffffffffffffff1602179055508073ffffffffffffffffffffffffffffffffffffffff16827f77879ade5d0fc220756fdd6255178c5a1ad8e5ee2ae2970e8b2610242d38d8da60405160405180910390a35050565b600073ffffffffffffffffffffffffffffffffffffffff82169050919050565b600061054182610516565b9050919050565b61055181610536565b82525050565b600060208201905061056c6000830184610548565b92915050565b600080fd5b6000819050919050565b61058a81610577565b811461059557600080fd5b50565b6000813590506105a781610581565b92915050565b6000602082840312156105c3576105c2610572565b5b60006105d184828501610598565b91505092915050565b6105e381610536565b81146105ee57600080fd5b50565b600081359050610600816105da565b92915050565b6000806040838503121561061d5761061c610572565b5b600061062b85828601610598565b925050602061063c858286016105f1565b915050925092905056fea264697066735822122060f30be240c73f62cc4caf198de2ef4b3f8750814dd7701cb8c9d08930da980364736f6c63430008180033",
  "linkReferences": {},
  "deployedLinkReferences": {}
}