{
  "_format": "hh-sol-artifact-1",
  "contractName": "LinearInterestRateModel",
  "sourceName": "contracts/pool/LinearInterestRateModel.sol",
  "abi": [
    {
      "inputs": [
        {
          "internalType": "uint16",
          "name": "U_1",
          "type": "uint16"
        },
        {
          "internalType": "uint16",
          "name": "U_2",
          "type": "uint16"
        },
        {
          "internalType": "uint16",
          "name": "R_base",
          "type": "uint16"
        },
        {
          "internalType": "uint16",
          "name": "R_slope1",
          "type": "uint16"
        },
        {
          "internalType": "uint16",
          "name": "R_slope2",
          "type": "uint16"
        },
        {
          "internalType": "uint16",
          "name": "R_slope3",
          "type": "uint16"
        },
        {
          "internalType": "bool",
          "name": "_isBorrowingMoreU2Forbidden",
          "type": "bool"
        }
      ],
      "stateMutability": "nonpayable",
      "type": "constructor"
    },
    {
      "inputs": [],
      "name": "BorrowingMoreThanU2ForbiddenException",
      "type": "error"
    },
    {
      "inputs": [],
      "name": "IncorrectParameterException",
      "type": "error"
    },
    {
      "inputs": [],
      "name": "R_base_RAY",
      "outputs": [
        {
          "internalType": "uint256",
          "name": "",
          "type": "uint256"
        }
      ],
      "stateMutability": "view",
      "type": "function"
    },
    {
      "inputs": [],
      "name": "R_slope1_RAY",
      "outputs": [
        {
          "internalType": "uint256",
          "name": "",
          "type": "uint256"
        }
      ],
      "stateMutability": "view",
      "type": "function"
    },
    {
      "inputs": [],
      "name": "R_slope2_RAY",
      "outputs": [
        {
          "internalType": "uint256",
          "name": "",
          "type": "uint256"
        }
      ],
      "stateMutability": "view",
      "type": "function"
    },
    {
      "inputs": [],
      "name": "R_slope3_RAY",
      "outputs": [
        {
          "internalType": "uint256",
          "name": "",
          "type": "uint256"
        }
      ],
      "stateMutability": "view",
      "type": "function"
    },
    {
      "inputs": [],
      "name": "U_1_WAD",
      "outputs": [
        {
          "internalType": "uint256",
          "name": "",
          "type": "uint256"
        }
      ],
      "stateMutability": "view",
      "type": "function"
    },
    {
      "inputs": [],
      "name": "U_2_WAD",
      "outputs": [
        {
          "internalType": "uint256",
          "name": "",
          "type": "uint256"
        }
      ],
      "stateMutability": "view",
      "type": "function"
    },
    {
      "inputs": [
        {
          "internalType": "uint256",
          "name": "expectedLiquidity",
          "type": "uint256"
        },
        {
          "internalType": "uint256",
          "name": "availableLiquidity",
          "type": "uint256"
        }
      ],
      "name": "availableToBorrow",
      "outputs": [
        {
          "internalType": "uint256",
          "name": "",
          "type": "uint256"
        }
      ],
      "stateMutability": "view",
      "type": "function"
    },
    {
      "inputs": [
        {
          "internalType": "uint256",
          "name": "expectedLiquidity",
          "type": "uint256"
        },
        {
          "internalType": "uint256",
          "name": "availableLiquidity",
          "type": "uint256"
        },
        {
          "internalType": "bool",
          "name": "checkOptimalBorrowing",
          "type": "bool"
        }
      ],
      "name": "calcBorrowRate",
      "outputs": [
        {
          "internalType": "uint256",
          "name": "",
          "type": "uint256"
        }
      ],
      "stateMutability": "view",
      "type": "function"
    },
    {
      "inputs": [
        {
          "internalType": "uint256",
          "name": "expectedLiquidity",
          "type": "uint256"
        },
        {
          "internalType": "uint256",
          "name": "availableLiquidity",
          "type": "uint256"
        }
      ],
      "name": "calcBorrowRate",
      "outputs": [
        {
          "internalType": "uint256",
          "name": "",
          "type": "uint256"
        }
      ],
      "stateMutability": "view",
      "type": "function"
    },
    {
      "inputs": [],
      "name": "getModelParameters",
      "outputs": [
        {
          "internalType": "uint16",
          "name": "U_1",
          "type": "uint16"
        },
        {
          "internalType": "uint16",
          "name": "U_2",
          "type": "uint16"
        },
        {
          "internalType": "uint16",
          "name": "R_base",
          "type": "uint16"
        },
        {
          "internalType": "uint16",
          "name": "R_slope1",
          "type": "uint16"
        },
        {
          "internalType": "uint16",
          "name": "R_slope2",
          "type": "uint16"
        },
        {
          "internalType": "uint16",
          "name": "R_slope3",
          "type": "uint16"
        }
      ],
      "stateMutability": "view",
      "type": "function"
    },
    {
      "inputs": [],
      "name": "isBorrowingMoreU2Forbidden",
      "outputs": [
        {
          "internalType": "bool",
          "name": "",
          "type": "bool"
        }
      ],
      "stateMutability": "view",
      "type": "function"
    }
  ],
  "bytecode": "0x6101606040523480156200001257600080fd5b50604051620012c5380380620012c58339818101604052810190620000389190620002f1565b61271061ffff168761ffff161015806200005c575061271061ffff168661ffff1610155b806200006f57508561ffff168761ffff16115b8062000084575061271061ffff168561ffff16115b8062000099575061271061ffff168461ffff16115b80620000ae575061271061ffff168361ffff16115b80620000c157508261ffff168461ffff16115b80620000d457508161ffff168361ffff16115b156200010c576040517f47fbaa9700000000000000000000000000000000000000000000000000000000815260040160405180910390fd5b61271061ffff16670de0b6b3a76400006200012891906200040c565b8761ffff1662000139919062000444565b60a0818152505061271061ffff16670de0b6b3a76400006200015c91906200040c565b8661ffff166200016d919062000444565b60c0818152505061271061ffff166b033b2e3c9fd0803ce80000006200019491906200040c565b8561ffff16620001a5919062000444565b60e0818152505061271061ffff166b033b2e3c9fd0803ce8000000620001cc91906200040c565b8461ffff16620001dd919062000444565b610100818152505061271061ffff166b033b2e3c9fd0803ce80000006200020591906200040c565b8361ffff1662000216919062000444565b610120818152505061271061ffff166b033b2e3c9fd0803ce80000006200023e91906200040c565b8261ffff166200024f919062000444565b6101408181525050801515608081151581525050505050505050506200048f565b600080fd5b600061ffff82169050919050565b6200028e8162000275565b81146200029a57600080fd5b50565b600081519050620002ae8162000283565b92915050565b60008115159050919050565b620002cb81620002b4565b8114620002d757600080fd5b50565b600081519050620002eb81620002c0565b92915050565b600080600080600080600060e0888a03121562000313576200031262000270565b5b6000620003238a828b016200029d565b9750506020620003368a828b016200029d565b9650506040620003498a828b016200029d565b95505060606200035c8a828b016200029d565b94505060806200036f8a828b016200029d565b93505060a0620003828a828b016200029d565b92505060c0620003958a828b01620002da565b91505092959891949750929550565b6000819050919050565b7f4e487b7100000000000000000000000000000000000000000000000000000000600052601260045260246000fd5b7f4e487b7100000000000000000000000000000000000000000000000000000000600052601160045260246000fd5b60006200041982620003a4565b91506200042683620003a4565b925082620004395762000438620003ae565b5b828204905092915050565b60006200045182620003a4565b91506200045e83620003a4565b92508282026200046e81620003a4565b91508282048414831517620004885762000487620003dd565b5b5092915050565b60805160a05160c05160e051610100516101205161014051610d17620005ae6000396000818161025901528181610582015261099d01526000818161042e015281816105b70152818161067d01526109520152600081816102350152818161032601528181610463015281816105d801526109070152600081816102860152818161035b01528181610484015281816105f90152818161065901526108bc01526000818161038e015281816103d70152818161052201528181610556015281816106c5015281816107580152818161079101526108710152600081816102dc01528181610304015281816103b601528181610402015281816107e3015261082a0152600081816104c9015281816106a101526106eb0152610d176000f3fe608060405234801561001057600080fd5b50600436106100a95760003560e01c80636e55f77e116100715780636e55f77e14610168578063762dbdb8146101865780637f681d54146101a457806381ec4ab7146101c2578063be3c37cd146101f2578063c8284e6d14610210576100a9565b806301967344146100ae5780631a405265146100cc578063306ea067146100ea57806342568d441461011a5780636cdc90fd1461014a575b600080fd5b6100b6610233565b6040516100c391906109e9565b60405180910390f35b6100d4610257565b6040516100e191906109e9565b60405180910390f35b61010460048036038101906100ff9190610a6d565b61027b565b60405161011191906109e9565b60405180910390f35b610134600480360381019061012f9190610ac0565b610641565b60405161014191906109e9565b60405180910390f35b610152610657565b60405161015f91906109e9565b60405180910390f35b61017061067b565b60405161017d91906109e9565b60405180910390f35b61018e61069f565b60405161019b9190610b0f565b60405180910390f35b6101ac6106c3565b6040516101b991906109e9565b60405180910390f35b6101dc60048036038101906101d79190610ac0565b6106e7565b6040516101e991906109e9565b60405180910390f35b6101fa6107e1565b60405161020791906109e9565b60405180910390f35b610218610805565b60405161022a96959493929190610b47565b60405180910390f35b7f000000000000000000000000000000000000000000000000000000000000000081565b7f000000000000000000000000000000000000000000000000000000000000000081565b60008284116102ac577f0000000000000000000000000000000000000000000000000000000000000000905061063a565b60008484866102bb9190610bd7565b670de0b6b3a76400006102ce9190610c0b565b6102d89190610c7c565b90507f000000000000000000000000000000000000000000000000000000000000000081101561038c577f0000000000000000000000000000000000000000000000000000000000000000817f000000000000000000000000000000000000000000000000000000000000000061034f9190610c0b565b6103599190610c7c565b7f00000000000000000000000000000000000000000000000000000000000000006103849190610cad565b91505061063a565b7f00000000000000000000000000000000000000000000000000000000000000008110156104bf577f00000000000000000000000000000000000000000000000000000000000000007f00000000000000000000000000000000000000000000000000000000000000006104009190610bd7565b7f00000000000000000000000000000000000000000000000000000000000000008261042c9190610bd7565b7f00000000000000000000000000000000000000000000000000000000000000006104579190610c0b565b6104619190610c7c565b7f00000000000000000000000000000000000000000000000000000000000000007f00000000000000000000000000000000000000000000000000000000000000006104ad9190610cad565b6104b79190610cad565b91505061063a565b8280156104e957507f00000000000000000000000000000000000000000000000000000000000000005b15610520576040517f351f03e300000000000000000000000000000000000000000000000000000000815260040160405180910390fd5b7f0000000000000000000000000000000000000000000000000000000000000000670de0b6b3a76400006105549190610bd7565b7f0000000000000000000000000000000000000000000000000000000000000000826105809190610bd7565b7f00000000000000000000000000000000000000000000000000000000000000006105ab9190610c0b565b6105b59190610c7c565b7f00000000000000000000000000000000000000000000000000000000000000007f00000000000000000000000000000000000000000000000000000000000000007f00000000000000000000000000000000000000000000000000000000000000006106229190610cad565b61062c9190610cad565b6106369190610cad565b9150505b9392505050565b600061064f8383600061027b565b905092915050565b7f000000000000000000000000000000000000000000000000000000000000000081565b7f000000000000000000000000000000000000000000000000000000000000000081565b7f000000000000000000000000000000000000000000000000000000000000000081565b7f000000000000000000000000000000000000000000000000000000000000000081565b60007f000000000000000000000000000000000000000000000000000000000000000080156107165750818310155b8015610723575060008314155b156107d75760008383856107379190610bd7565b670de0b6b3a764000061074a9190610c0b565b6107549190610c7c565b90507f000000000000000000000000000000000000000000000000000000000000000081106107845760006107cf565b670de0b6b3a764000084827f00000000000000000000000000000000000000000000000000000000000000006107ba9190610bd7565b6107c49190610c0b565b6107ce9190610c7c565b5b9150506107db565b8190505b92915050565b7f000000000000000000000000000000000000000000000000000000000000000081565b60008060008060008061271061ffff16670de0b6b3a76400006108289190610c7c565b7f00000000000000000000000000000000000000000000000000000000000000006108539190610c7c565b955061271061ffff16670de0b6b3a764000061086f9190610c7c565b7f000000000000000000000000000000000000000000000000000000000000000061089a9190610c7c565b945061271061ffff166b033b2e3c9fd0803ce80000006108ba9190610c7c565b7f00000000000000000000000000000000000000000000000000000000000000006108e59190610c7c565b935061271061ffff166b033b2e3c9fd0803ce80000006109059190610c7c565b7f00000000000000000000000000000000000000000000000000000000000000006109309190610c7c565b925061271061ffff166b033b2e3c9fd0803ce80000006109509190610c7c565b7f000000000000000000000000000000000000000000000000000000000000000061097b9190610c7c565b915061271061ffff166b033b2e3c9fd0803ce800000061099b9190610c7c565b7f00000000000000000000000000000000000000000000000000000000000000006109c69190610c7c565b9050909192939495565b6000819050919050565b6109e3816109d0565b82525050565b60006020820190506109fe60008301846109da565b92915050565b600080fd5b610a12816109d0565b8114610a1d57600080fd5b50565b600081359050610a2f81610a09565b92915050565b60008115159050919050565b610a4a81610a35565b8114610a5557600080fd5b50565b600081359050610a6781610a41565b92915050565b600080600060608486031215610a8657610a85610a04565b5b6000610a9486828701610a20565b9350506020610aa586828701610a20565b9250506040610ab686828701610a58565b9150509250925092565b60008060408385031215610ad757610ad6610a04565b5b6000610ae585828601610a20565b9250506020610af685828601610a20565b9150509250929050565b610b0981610a35565b82525050565b6000602082019050610b246000830184610b00565b92915050565b600061ffff82169050919050565b610b4181610b2a565b82525050565b600060c082019050610b5c6000830189610b38565b610b696020830188610b38565b610b766040830187610b38565b610b836060830186610b38565b610b906080830185610b38565b610b9d60a0830184610b38565b979650505050505050565b7f4e487b7100000000000000000000000000000000000000000000000000000000600052601160045260246000fd5b6000610be2826109d0565b9150610bed836109d0565b9250828203905081811115610c0557610c04610ba8565b5b92915050565b6000610c16826109d0565b9150610c21836109d0565b9250828202610c2f816109d0565b91508282048414831517610c4657610c45610ba8565b5b5092915050565b7f4e487b7100000000000000000000000000000000000000000000000000000000600052601260045260246000fd5b6000610c87826109d0565b9150610c92836109d0565b925082610ca257610ca1610c4d565b5b828204905092915050565b6000610cb8826109d0565b9150610cc3836109d0565b9250828201905080821115610cdb57610cda610ba8565b5b9291505056fea26469706673582212201a20a20336efcfcccf10e56966d0059449177aefcdde5c56b3c82e5ef9efa29e64736f6c63430008180033",
  "linkReferences": {},
  "deployedLinkReferences": {}
}